:020000040800F2
:10180000382C002081190008457C0008716E000802
:1018100000000000000000000000000000000000C8
:1018200000000000000000000000000035F000088B
:1018300000000000000000001F81000863FD000898
:1018400093190008931900089319000893190008C8
:1018500093190008094F000893190008354F000834
:1018600093190008931900089319000893190008A8
:101870009319000893190008931900080907010833
:10188000931900089319000893190008A905010885
:101890009319000893190008931900089319000878
:1018A00093190008931900089319000815140108EA
:1018B000D914010899150108CD3C000893190008B6
:1018C00000F002F800F030F80CA030C808382418F6
:1018D0002D18A246671EAB4654465D46AC4201D168
:1018E00000F022F87E460F3E0FCCB646012633426A
:1018F00000D0FB1AA246AB4633431847783B0100A1
:10190000983B01000023002400250026103A01D353
:1019100078C1FBD8520700D330C100D50B607047A7
:101920001FB51FBD10B510BD00F05AFE1146FFF7E0
:10193000F7FF10F0EDFB00F072FE03B4FFF7F2FFCB
:1019400003BC00F079FE000070B505460C46164653
:1019500002E00FCC0FC5103E102EFAD2082E02D393
:1019600003CC03C5083E042E07D301CC01C5361FA6
:1019700003E021782970641C6D1C761EF9D270BDBD
:101980000748804707480047FEE7FEE7FEE7FEE717
:10199000FEE7FEE704480549054A064B704700008C
:1019A000D1FF0008C118000838260020382C00207C
:1019B000382800203828002001E004C0091F04292D
:1019C000FBD28B0701D50280801CC90700D00270B2
:1019D000704700290BD0C30702D00270401C491E7B
:1019E000022904D3830702D50280801C891EE3E705
:1019F0000022EEE70022DFE7002203098B422CD30E
:101A0000030A8B4211D300239C464EE003460B434E
:101A10003CD4002243088B4231D303098B421CD3B0
:101A2000030A8B4201D394463FE0C3098B4201D3A2
:101A3000CB01C01A524183098B4201D38B01C01ADA
:101A4000524143098B4201D34B01C01A5241030951
:101A50008B4201D30B01C01A5241C3088B4201D300
:101A6000CB00C01A524183088B4201D38B00C01AAD
:101A7000524143088B4201D34B00C01A5241411AD4
:101A800000D201465241104670475DE0CA0F00D0B7
:101A90004942031000D34042534000229C460309B0
:101AA0008B422DD3030A8B4212D3FC22890112BA36
:101AB000030A8B420CD3890192118B4208D389010E
:101AC00092118B4204D389013AD0921100E0890926
:101AD000C3098B4201D3CB01C01A524183098B4207
:101AE00001D38B01C01A524143098B4201D34B01F0
:101AF000C01A524103098B4201D30B01C01A524153
:101B0000C3088B4201D3CB00C01A524183088B42D9
:101B100001D38B00C01A5241D9D243088B4201D362
:101B20004B00C01A5241411A00D20146634652414D
:101B30005B10104601D34042002B00D5494270474C
:101B400063465B1000D3404201B50020C046C0464A
:101B500002BD704770477047F0B50C46871A9C412C
:101B60000D46861A9D4103D2C01BA141D219634183
:101B70000D0D1F0DC94EEC1BAE435CD07F057F0DD4
:101B80000026002F51D02D05AC46A943DD020123CC
:101B9000ED0A1B051D4320231B1B24D41746E740D9
:101BA000381871412F46E740CC199D40281831461E
:101BB00061410C0D27D161449A4013D50023401C8C
:101BC000594152000ED14008400001224B005205FD
:101BD000D34207D305204007C14201D5B04900E0F8
:101BE000B0493046F0BD6B00002A00D001229A189F
:101BF0001F23203C1B1B01D5002302E0E5402818D1
:101C000071410C0DD7D0012424050919C407CD0753
:101C100040084908E40F28436144002CD5D0002433
:101C2000401C61419A40D0D1CDE76A05520DD9D10F
:101C3000C90FC907D5E79C4D4E00002801D00124EB
:101C400000E0002434195F00002A01D0012600E0E2
:101C50000026BE19954FAC420CD8AE420AD8B44209
:101C600006D001256D05EC42BCD010461946F0BDEA
:101C70009942FCD000203946F0BDF0B51FB40C46A7
:101C80000F46811A9F412546861A9D4106D201259D
:101C9000ED076F40401ABC4152187B41210D1E0DCB
:101CA0008D1BAC467D4D8D437ED075056D0D7CD072
:101CB0000D05AE46AC431B031B0B794D52429D41B3
:101CC000202366469B1B14D31746F740381800267E
:101CD0000090744160462F460741E41900989D40EA
:101CE0002818664116D4714671189A4025D50123EB
:101CF00020E093182A466A415200002B00D0521C63
:101D00001E23203E9B1B002B61DD3541EE1728185A
:101D10006641E8D5001876415B1C9A4000D3401C10
:101D20004B05F3181524E34010D3002B52D0714615
:101D30007118D30FC01802D3491C05B0F0BD0123A0
:101D4000DB079A42F9D140084000F6E7012252052C
:101D5000B21801D1002853D00123CC0ADB029943E9
:101D6000891E002A08D1020C03D0020C000410398D
:101D700002E00246002020390023550B05D1120253
:101D80000823550B01D152010D23550C01D112012D
:101D90001B1DD50C01D192009B1C150D01D15200C9
:101DA0005B1C2025EE1A01E02CE022E00546F54000
:101DB00015439840CA1AE10769181305C918002A83
:101DC000BBDA032040070818C10FC9070FE07146AE
:101DD0006118B2E7F10740080843711071444A00E6
:101DE0000CD001235B059A42A7D2C90FC907002076
:101DF000A3E74905490D26D1002001E00028F4D1D0
:101E000000219AE7284D6600002801D0012100E05A
:101E1000002171185F00002A01D0012600E0002691
:101E2000BE19224FA94210D8AE420ED8B14208D0F6
:101E300001256D05E94206D01946A8024140104629
:101E40007BE79C4201D0214677E70020394674E7C2
:101E500010B50C465C4005D50124E4076340FFF74C
:101E60000CFF10BDFFF778FE10BD30B40C465C408F
:101E700004D50124E407634030BC6DE630BCFCE6C9
:101E800070B50124E40761400D465D4002D4FFF7C0
:101E900063FE70BD6340FFF7F0FE70BDFF070000FA
:101EA0000000F0FF0000F07F0000E0FF0000F87F7E
:101EB000F0B5F94D0C091E092C402E402F468BB071
:101EC000A7437DD0B543FCD0002E7AD0002CFCD0A7
:101ED0000D465D40ED0F2543AC1BFF25AD04641995
:101EE0000894C502440DC9022143500DDC0204438D
:101EF0000120C00701430443D2020191200C110CC0
:101F000000958C46010423468B430A9161460904DF
:101F1000E24D8A430991010A7D44491980390978C3
:101F200005464D4301266D18F605751B6943C90C1E
:101F3000640B891C4C436418B5012C1B250C2E0422
:101F4000B4434C434D43210C691889090591009D08
:101F5000E90701D00121C90704912C4601996708BE
:101F6000CD072F434C08059DE10B4D432D0C294611
:101F70006646754302950D4645432E46029D7D1BE0
:101F8000B44100950D465D4301942C0C2F040D4681
:101F90005543AE462D0C3D43029503947546049C73
:101FA0002D04641B049406D2029C039D641C00262D
:101FB00075410395029401AC70CC009F7D1B01E03C
:101FC0003EE162E1B441090400950791019405994D
:101FD000A4086143090C0C464443650BE7040C4616
:101FE00066467443A646640B3C43039502947446CC
:101FF000049DE4042C1B049406D2029C039D641CE3
:10200000002675410395029401AC70CC009F7D1BA6
:10201000B44101940C465C430095650FE7000C4603
:102020005443A646640F3C43039502947446049DB2
:10203000E4002C1B049406D2029C039D641C002621
:1020400075410395029401AC70CC009F7D1BB44197
:10205000AE09AF06049DC900AD092F43049DA40637
:10206000AD060495079D344369180791059DE10B62
:102070004D432D0C29466646754302950D46454352
:102080002E46029D7D1BB44100950D465D43019493
:102090002C0C2F040D465543AE462D0C3D430295A6
:1020A00003947546049C2D04641B049406D2029C80
:1020B000039D641C002675410395029401AC70CC0D
:1020C000009F7D1BB44101948C050694079C890AEE
:1020D000611800950791019C0599A4086143090CBA
:1020E0000D464543680BEF040D46644665436C0B93
:1020F0003C43049FED047D1BAC4602D20025641CCA
:102100006841009E019D371B854108465843019553
:102110000C46460FC5005443600F28436546E40053
:102120002C1B02D20025401C6E41019D3F1AB54177
:102130002846BD09800628438446A009BF064E02F2
:102140000699A40676180743079D002068410A995E
:10215000079019430020099B00906046FF19134324
:102160004041E20F64003A43A4460446D71A8C412A
:10217000A04203D90120009020463A46C70F941888
:1021800040416246D20F2243644664000494009C9E
:10219000BE466400D71AA446044602978C4177468F
:1021A000002F01D1A04204D96046401C8446029A07
:1021B0002046C40FA64694184041049A0546D20F03
:1021C000224364466400D31A8D417146002901D12F
:1021D000A84202D928461A46641C1043012200284E
:1021E00000D0164361020020079B891904465C4118
:1021F0000223002C02DB491813466441089DCE0AD5
:102200002D145D194B056705E10A2C050D19089978
:102210003E43C9076940002B08D0934006D30022F3
:10222000761C5141002B01D1760876001C4A002D06
:1022300043DB154241D0AA433FD030460BB0F0BD3E
:1022400006180D464D41174C7642AC411AD39518ED
:102250001C465C41134A6D42A24113D30122520530
:102260004C00D4420AD15C00D4420BD04B4002D582
:1022700092021143E2E749004908DFE75940C90FDC
:10228000C90718E000200849D8E7054801420DD1E8
:102290000342F7D0F2E700000000FF07FB33010024
:1022A0000000F07F0000E0FF0000F87F1148594077
:1022B0000143C01241400020C0E70123089A9B0659
:1022C0009A4205DC032252078918C90FC907B5E7EE
:1022D000052252078918074A1143D2125140ADE72F
:1022E00070B515461C4602460B4628462146FFF7A8
:1022F000DFFD70BDFFFFFF7F0346CA02400D10B532
:1023000010430A1504D00124E4072043002A05DB0A
:102310000A4CA21A04D4D040FF2A00DD002010BDD0
:102320004A00002B01D0012000E0002010180122FB
:102330005205D042F2D8C817C04310BD1E04000099
:102340001F22030C02D10F22000402D0030E03D07F
:1023500004E00020014670470002083A030F01D153
:102360000001121F830F01D18000921E002801DBA3
:102370004000521E120551184205C0124118104665
:102380007047C10FC90700D0404201229207114394
:10239000D6E701218907D3E7F0B58B4C0F09254615
:1023A00089B0BD437BD01D092646AE43FAD00E4608
:1023B0005E402740F60F3E43254071D02401214264
:1023C000FBD0FF24AD19A4042D1B039501252D0579
:1023D000DB02DB0AC9022B43C90A29431E0109019A
:1023E000040F130F050121431701880B820391434A
:1023F0002D098C46A90B1E438A039543B30B9A0300
:1024000096433F09BA0B9403A74302962E467E4398
:102410000497B6464E19D7190C46019654430597B2
:102420007E43371B7646BF1B3601B646BE0B3619B8
:1024300000967646BC043719009C01D3641C0094B6
:102440006400002F01D001263443029E049F75438F
:1024500066467E430496760034196E003419009463
:10246000029C019E1C196643751BAE460694654688
:102470004519059C05956C43594375460891691AA1
:102480000191049E01465143A41B0491611A009CD2
:102490000791E10605D061090122114302E072E0D3
:1024A0006EE06109089D00272C0A2D066918049D1D
:1024B0007C412A0A2D066918019D6241AC0DAD02CE
:1024C0006D185441079A910D920255196141029A73
:1024D000644658435443069B059A5A43121A131BE9
:1024E0009A0E9B015B187A41010B0005C3185141FC
:1024F000220A200644195A419A4200D2491C01205E
:102500004002814203D315230226F64302E014233E
:102510000326F6432020C51AA9401746AF40DA40EB
:102520000A4320460399D840091473181905511815
:10253000039A3843D2075140AC4009D0012294405D
:1025400006D30022401C5141002C01D1400840001C
:102550001E4A934212D3012203989206904207DB4F
:102560000520400709181A480143C012414004E001
:10257000032040070818C10FC907002009B0F0BDAB
:102580000020F107FAE705180C464C4111486D424E
:10259000A04115D394181A465A410E4864429041FE
:1025A0000ED301204A004005824209D35A008242DC
:1025B00006D35940C90F084AC90700201143DDE777
:1025C00000200649DAE700000000FF07FE070000D0
:1025D000FFFFFF7F0000E0FF0000F07F0000F87FBA
:1025E000754600F025F8AE46050069465346C0081A
:1025F000C000854618B020B5FFF7CCF960BC0027B5
:102600004908B6460026C0C5C0C5C0C5C0C5C0C5BE
:10261000C0C5C0C5C0C5403D49008D46704710B516
:102620000446C046C0462046FFF787F910BD0000AB
:1026300000487047D825002001491820ABBEFEE7AE
:1026400026000200704770B58C180578401C6B0797
:102650005B0F01D10378401C2A1106D10278401C7F
:1026600003E00678401C0E70491C5B1EF9D12B0755
:1026700005D40023521E0DD40B70491CFAE70378D1
:10268000401CCB1A921C03E01D780D70491C5B1C8A
:10269000521EF9D5A142D8D3002070BD38B50546E9
:1026A0000C466B4602220A49284604F0F9FE00282F
:1026B0000CD0012D04D1074800898010208003E050
:1026C0000448408980102080012038BD0020FCE7AC
:1026D00045010020E805002010B52A48007A0228AC
:1026E00003D02948007A02280CD1264B274A112111
:1026F000012004F085FF244B254A1121022004F01B
:10270000C5FF3EE02048007A012834D11E48407AB7
:10271000002836D01C48C0790A2250431B4A801832
:10272000811C012004F068F800280BD00121164814
:10273000C0790A225043154A1154002012494872A8
:102740000CF06EFA1048C0790A225043104A8018E3
:10275000811C022004F09AF8002812D002210A48B5
:10276000C0790A2250430A4A11540020064948728F
:102770000CF056FA05E00448007A002801D10CF06C
:1027800075FF10BD300D00203A0D0020F201002031
:102790004801002010B507F0B5FA2A48006B400840
:1027A0004000284908630846006B022188432549F8
:1027B00008630846006B04218843224908630846E1
:1027C000006B082188431F4908630846006B1021ED
:1027D00088431C4908631C480078400840001A4997
:1027E0000870084600780221884317490870084697
:1027F00000780421884314490870084600780821AD
:1028000088431149087008460078102188430E4912
:1028100008700E480078102188430C490870002089
:102820000B4908600B4908600B4908600B480078A9
:102830000221884309490870084600784008400092
:10284000087010BDA425002042050020430500208B
:102850007805002074050020700500203E0500204A
:10286000F0B585B0FE48007803000FF0E7FB0616D0
:10287000173F4DFA0416FB480078002801D005B038
:10288000F0BDF9480078402188434030F64908708F
:102890000120F34908700CF077FCE9E3F348007875
:1028A000002800D0EBE701200DF0CCF9039003984D
:1028B000012806D1EE480078202188432030EC49D9
:1028C0000870EC49088804F059F8EB498860EB4936
:1028D00008790EF0C9FB0DF00DF90220E3490870EC
:1028E000DF480078401CDE490870C8E7E0480078FF
:1028F000C007C00F002806D00DF0ECF8D8480078CB
:10290000401CD7490870BAE7D94800788007C00F43
:10291000002800D0B3E7D64800784007C00F002851
:102920007ED0D1480078C007C00F002879D0D448A5
:102930000088401CD2490880D2480078062803D07D
:10294000D04800780A2801D1062500E00C25CC48A3
:102950000088A8426CDCCC480188C9480088401E29
:102960008000CA4A1152C3480188C5480088401EE9
:102970004000401C40001152C2480078062803D095
:10298000C04800780A2830D1C1480078032815D102
:1029900000240EE006212046FFF738F8491E4900C2
:1029A000BC4A6000401C4000B84B185A5052601C92
:1029B000C4B2B34800888442ECDB36E000240FE068
:1029C00006212046FFF722F8491E4A00B1480C3084
:1029D0006100491C4900AD4B595A8152601CC4B278
:1029E000A74800888442EBDB1FE0002415E00621A5
:1029F0002046FFF70BF80C214843A649471806214B
:102A00002046FFF703F8491E49006000401C4000C3
:102A10009E4A105A7852601CC4B29948008802E05D
:102A2000AFE1A0E004E08442E1DB0BF091FFA8E11C
:102A3000934805806800801E40009449401801902A
:102A4000ECB22646FF20029000BF01980188029850
:102A5000814203DA0198007802902646012C01DCBD
:102A600006E00BE2601EC4B20198001F0190ECE783
:102A700000BF8548018802988142D8DD00BFAE4280
:102A800000DD13E0701C80008049085AB1007F4AC5
:102A90005052701C4000401C40001146095A700002
:102AA000401C40001152701CC6B2E8E700BF7648D7
:102AB0000188681E8000754A11526E480188681EA0
:102AC0004000401C400011526E480078062803D098
:102AD0006C4800780A282AD16D480078032812D162
:102AE00000240DE006212046FEF790FF4900694AC8
:102AF0006000401C4000654B185A5052601CC4B224
:102B0000AC42EFDB2CE000240EE006212046FEF76D
:102B10007DFF4A005F480C306100491C49005B4B57
:102B2000595A8152601CC4B2AC42EEDB18E000245A
:102B300014E006212046FEF769FF0C214843554961
:102B4000471806212046FEF761FF49006000401C3F
:102B500040004E4A105A7852601CC4B2AC42E8DBC6
:102B60000BF0F6FE0DE147480078042807D14A48EB
:102B70000078022801D1062502E00C2500E012258C
:102B800046480088401C4549088008460088A842FD
:102B90004CDC3D48018841480088401E8000404A86
:102BA0001152344801883D480088401E4000401CB6
:102BB0004000115233480078042818D13648007874
:102BC000022814D100240DE006212046FEF71EFF46
:102BD0004A0034486100491C4900314B595A81521E
:102BE000601CC4B22D4800888442EDDB1BE0002449
:102BF00015E006212046FEF709FF0C21484329492C
:102C00001839471806212046FEF700FF49006000EA
:102C1000401C4000224A105A7852601CC4B21F481F
:102C200000888442E5DB0BF093FEAAE01B48058098
:102C30006800801E40001A4940180190ECB22646F8
:102C4000FF20029000BF019801880298814203DAB8
:102C50000198007802902646012C25DC2AE000002D
:102C6000170500201A0500202F0500201905002057
:102C700030050020FE0400202423002064250020CD
:102C8000F8040020DD00002020050020D61E0020D2
:102C9000FA040020761E0020FB040020F604002029
:102CA0008E1E00205E1E0020601EC4B20198001F10
:102CB0000190C8E700BFFE4801880298814260DDAC
:102CC00000BFAE4200DD13E0B000FA49095A701EA1
:102CD0008000F84A11527000401C40001146095A09
:102CE000701E4000401C40001152701CC6B2E8E744
:102CF00000BFEF480188681E8000EE4A1152EE487E
:102D00000188681E4000401C40001152EB480078CA
:102D1000042818D1EA480078022814D100240DE0D4
:102D200006212046FEF772FE4A00E6486100491C73
:102D30004900E04B595A8152601CC4B2E2480088F5
:102D40008442EDDB1BE0002415E006212046FEF75F
:102D50005DFE0C214843DB491839471806212046FF
:102D6000FEF754FE49006000401C4000D14A105A52
:102D70007852601CC4B2D44800888442E5DB0BF072
:102D8000E7FDD2480088CC490988884203D0012059
:102D9000CF49087071E0CF480078C007C00F002805
:102DA0001FD1002401E0601CC4B2062CFBDBC34829
:102DB000007804280CD1C2480078022808D1C648FF
:102DC000007800282CD0C0480078C349087027E05C
:102DD000BD480088002823D0BB480078BF49087050
:102DE0001EE0002401E0601CC4B2062CFBDBB348EB
:102DF0000078062803D0B14800780A2808D1B848DE
:102E0000007800280CD0B7480078B549087007E072
:102E1000B4480088002803D0B2480078B24908704E
:102E2000B248007810218843B0490870A94800785A
:102E30004006C00F002802D003200EF00FF9A5486D
:102E4000007840218843A34908700120A8490870F0
:102E500004209F490870A7480078082805D1A64893
:102E60000078F7210840A4490870A448007801219F
:102E70000843A24908700BF025FC00E59C48007847
:102E8000002800D0FBE48D480078062803D08B484A
:102E900000780A2828D194480078002803D1904867
:102EA0000078002820D085480078062803D0834881
:102EB00000780A280AD18A480078002806D090486D
:102EC0000078904908707E49087004E003208D491D
:102ED00008707B49087001208B49087001217848EF
:102EE00000780AF0F5FC5AE17A480078C007C00F74
:102EF00000283DD07C480078002839D00120824944
:102F0000087004206E49087001216D4800780AF0AD
:102F1000DFFC694801880091684640787A49097861
:102F200049010843C1B26846417000886449097884
:102F30004900764A505261480078062803D05F481D
:102F400000780A2806D16E4800786E4908705C49FE
:102F5000087004E003206B4908705949087001208B
:102F6000694908700121564800780AF0B1FC16E161
:102F700058480078C007C00F00287AD14F48007821
:102F8000042876D154480078002803D153480078AB
:102F900000286ED049480078042825D14848007898
:102FA000022821D14C48007800281DD00120564924
:102FB00008700220424908700121414800780AF057
:102FC00087FC3D4801880091684640784E49097861
:102FD00049010843C1B26846417000883849097800
:102FE00049004A4A505227E034480078042823D147
:102FF0003348007802281FDA3848007800281BD0B0
:103000000120414908702E49087001212C480078A0
:103010000AF05EFC284801880091684640783A49E9
:10302000097849010843C1B26846417000882449C3
:1030300009784900354A505220480078042808D1C0
:103040001F480078022804D12E4908701C490870D6
:1030500004E000202B4908701949087001202A4912
:1030600008700121164800780AF032FC97E000E071
:10307000D0E018480078C007C00F002878D1174862
:103080000078002874D001201F49087002200C49E4
:10309000087001210A4800780AF01AFC06480188E5
:1030A00000916846407818490978490108432FE0A3
:1030B000200500208E1E0020FE040020DD000020E0
:1030C000FB0400205E1E0020F60400200205002004
:1030D000170500202F050020090500200805002005
:1030E0000B050020F80400200A0500203005002010
:1030F0001805002016050020E4000020E50000204F
:10310000FC040020FA04002006050020061F002011
:10311000C1B2684641700088404909784900404A78
:10312000505201203D49087001213C4800780AF0C6
:10313000CFFB3C4801880091684640783A490978BD
:1031400049010843C1B26846417000883349097893
:103150004900334A505235480078042809D12F4895
:103160000078022805D1324908702C49087005E022
:103170000DE000202E4908702849087001202A49D6
:1031800008700121254800780AF0A2FB07E02948D1
:10319000007827490870214908700BF073FE1F481A
:1031A00000782549887025480078C007C00F00289E
:1031B00012D11E480078042808D11D480078022842
:1031C00004D11B4908701549087017E00020184900
:1031D00008701249087011E014480078062803D0DE
:1031E000124800780A2804D1114800780B49087069
:1031F00004E003200E4908700849087000F0A2FBA3
:1032000000200949087007200D49087001200D4968
:10321000087032E600BF00BF2FE60000FB0400206C
:10322000061F0020FE04002006050020DD0000200F
:10323000FA040020FC040020242300202F05002095
:10324000160500201705002010B541480078012818
:1032500004D0022834D0032877D13FE03D480078DD
:10326000002800D010BD3C48007809280ED101206C
:103270000CF0E8FC04463949088803F07FFB384924
:103280008860384908790DF0EFFE0EE001200CF05F
:1032900067FC04463149088803F070FB30498860B8
:1032A0003049097948420DF0DFFE022029490870B3
:1032B00027480078401C264908700CF01BFCD1E719
:1032C00029480078C007C00F002806D00CF002FC87
:1032D0001F480078401C1E490870C3E72248007848
:1032E0008007C00F00282ED11F4800784007C00F6C
:1032F000002803D000201649087024E0012014495A
:103300000870164802881948018819A004F085FF42
:103310001648008811490988884214D1124800785B
:103320004007C00F002802D10BF0ACFD01E00CF00B
:10333000E1FB122009F034FB134800780821884390
:103340000830114908708DE7FFE700BF8AE70000E9
:10335000170500201905002016050020FE04002096
:1033600024230020642500203005002002050020D1
:103370000D0A206E657874207374617420203A25DC
:10338000782C2578000000002F05002000200D4932
:1033900088600D48C068491508430B49C860084655
:1033A000C068491588430849C860002007498860FB
:1033B000C86008614861044880694915884302492A
:1033C0008861704700240140001002400000024064
:1033D0002C4989690122520211432A4A91611146FE
:1033E000496901221143274A5161D104264A91605B
:1033F0007D20000100BF24498968C90FC907002941
:1034000003D00146401E0029F5D11F49C9681F4A53
:1034100011431D4AD1601146C968012211431A4A5D
:10342000D1601146C96802221143174AD160510583
:103430001161012151611146896A154A1143124AED
:103440009162144989682D2252011143114A9160F9
:103450000621D1600C49403111610F4951610A497F
:10346000896801221143084A916011468968042243
:103470001143054A91600749896801221143054AB1
:1034800091607047001002400024014008200000B5
:103490005341000000000240E8050020F8B5AB48A9
:1034A0000078C007C00F002805D0A9480078C007E1
:1034B000C00F002800D1F8BDA6480078042811D11B
:1034C000A548007802280DD0A3480078032809D029
:1034D000A1480078042805D09C4800788006C00FD9
:1034E000002810D19948007840084000974908709A
:1034F00000209A4908709A4802889648017899A055
:1035000004F08BFED7E79548007803000EF096FD97
:103510000604057489DDDE0414E19848007800286B
:1035200000D0C8E700BF964896490978405C9649A4
:10353000087008460078CC2803DC924800781928E7
:103540001DDB0BF0BFFC914988680DF099FD002050
:103550008C490870814908707C4800784008400018
:103560007A4908708A48007800908748017889482D
:10357000037884480278884804F04FFE9BE70020D7
:1035800081494870088803F0A3FA7F4908800846FB
:1035900000887E498968884205D17A480078401CB5
:1035A0007849087000E002E000F0CCF9BBE700BF0A
:1035B000754801887348027878A004F02EFE002434
:1035C00007E06F48025D21467DA004F026FE601CE6
:1035D000C4B2072CF5DB6B480078401C69490870C1
:1035E0000320664908700020774908705B4800781E
:1035F000401C5A490870A5E060480078002800D0B7
:1036000059E7614908880DF069FD00206F4908708D
:1036100002205A49087051480078401C4F490870F0
:1036200090E056480078002800D044E70DF012FDE5
:103630006748437B027B4038816C66A004F0EDFD57
:1036400063484038806CBA2833D961484038816C6F
:103650006D480078401D81422BD95D48007B0F28C2
:1036600027DA002069490870002506E02020684913
:10367000485568494855681CC5B2082DF6DB4248D4
:10368000008842498860404908880DF0F9FC3E20D6
:103690003A49087078206049087005202F49087061
:1036A0004B484038826C584801785CA004F0B5FD66
:1036B0000AE001202949087045484038826C524888
:1036C00001785FA004F0A9FD3CE03BE02B480078C6
:1036D000002800D0EFE62D4882684B48017862A0B0
:1036E00004F09BFD00201D490870264908706849B8
:1036F00008701648007840084000144908700846D1
:103700000078402188431149087000202F49087033
:103710002D4908703A20404908709C205D49087086
:103720001A4988680DF008FD1849098988B203F024
:1037300067F900200BF0E2F90BF00AF900200749C5
:10374000087000BF00BF00BFB5E600003F050020C5
:103750003005002016050020390500203B0500201B
:10376000FE0400200D0A205244532044654D757418
:10377000653A2532582C25347800000019050020C0
:10378000121F0020B1050020C405002024230020C2
:103790005B0500205C050020305401080D0A204123
:1037A00066206A756D703A526164667265203D25C7
:1037B000642C6352647341664465743D2564000063
:1037C000202025782D257800ED04002038050020E4
:1037D000642500200D0A204166206A756D70206EF8
:1037E000657720737461743A6C6576203D2025649A
:1037F0002C6D756C7469706C65203D2025642C619E
:10380000646A203D20256400B30500204B0500209C
:103810008F050020970500206A0500200D0A204131
:103820004620737769746368204F4B3A7243757210
:10383000537461536967203D2025642C2564000082
:103840000D0A20414620737769746368206E65789D
:10385000743A72437572537461536967203D202531
:10386000642C2564000000000D0A207377697463DE
:103870006820656E643A7243757253746153696768
:10388000203D2025642C667265203D2025640000C3
:10389000060500206C0500201EB50A46002105E043
:1038A00003786C466354401C4B1CD9B29142F7DB41
:1038B0006B461B78032B03D16B465B78032B07D039
:1038C0006B461B78032B13D16B465B78012B0FD112
:1038D0006B469B7830242340102B06D10123054CE6
:1038E00023702823044C237002E00023014C237032
:1038F0001EBD0000700300207103002000210B4A50
:1039000011800B4A11800B4A11700B4A11800B4A2F
:103910001180002004E00021094A1154411C88B2A2
:10392000012149028842F6DB704700003201002085
:103930003401002036010020380100203A01002027
:1039400031080020044800880449088004480078B1
:103950000449087070470000FE04002004050020A0
:10396000060500200C05002010B50D480D49C86063
:103970000020C8600C4808610020086108464069C2
:103980000A4908430749486103F0F8F80CF036FF8C
:10399000FFF71EFD04F0C2FB00F00AF810BD0000A6
:1039A000015A0700001002401349620201001E0084
:1039B00010B5E121490201200CF0D4F9E1214902BE
:1039C00002200CF0CFF9E121490204200CF0CAF9E1
:1039D00010BD000010B501235B02CA1A994242D003
:1039E00010DC202930D006DC012924D0042925D080
:1039F000082948D125E0402929D0CA1FF93A002AD0
:103A000041D12DE03F246402131BA24236D009DCD1
:103A1000FF3AFF3A023A002A28D001239B02D21A29
:103A200031D126E00122D2039A1A13D001231B04BC
:103A3000D21A28D111E0154A826025E00822C2601E
:103A400022E01022C2601FE0082202611CE0102266
:103A5000026119E00822426016E01022426013E081
:103A60000422426010E0042242600DE00422426021
:103A70000AE0002282610422426005E000228261A5
:103A80000422426000E000BF00BF10BD0101010040
:103A900010B50C010346FF33B1331B5904242340F6
:103AA0001372137A002B07D10C010346FF33B13395
:103AB0001B595B0D136006E00C010346FF33B13365
:103AC0001B59DB0853600C010346FF33B1331B590C
:103AD0000224234053720C010346FF33B133E31831
:103AE0005B681B071B0F93720C010346FF33B13356
:103AF000E3185B681B041B0ED3740C010346FF33F1
:103B0000B133E3189B68D3720C010346FF33B13322
:103B1000E3189B681B041C0E14730C010346FF334F
:103B2000B133E3189B681B021C0E54730C0103464F
:103B3000FF33B133E3189B681B0E93730C010346EC
:103B4000FF33B133E318DB68D3730C010346FF3353
:103B5000B133E318DB681B041C0E14740C0103461C
:103B6000FF33B133E318DB681B021C0E54740C01E5
:103B70000346FF33B133E318DB681B0E937400294F
:103B800004D1C36820242343C36003E003692024D5
:103B90002343036110BD30B5024600209368012421
:103BA000A4062340A34200D110E093680124E40658
:103BB0002340A34201D1012008E093680124240797
:103BC0002340A34201D1022000E0042004287BD03E
:103BD00004011346FF3381331B59DC07E40F050151
:103BE0001346FF3381335C510B7A002B0FD10B88C6
:103BF0005B054C7A234305011446FF348134645934
:103C0000234305011446FF348134635110E04B68AF
:103C1000DB000C7A23434C7A234305011446FF341E
:103C200081346459234305011446FF3481346351C0
:103C30008B7A1B071B0F8B7204011346FF338133F2
:103C4000E3185B681C09240105011346FF33813327
:103C5000EB185C6004011346FF338133E3185B68A3
:103C60008C7A234305011446FF3481342C19636098
:103C70008B7B1B064C7B240423430C7B24022343B5
:103C8000CC7A234305011446FF3481342C19A360F8
:103C90008B7C1B064C7C240423430C7C2402234392
:103CA000CC7B234305011446FF3481342C19E36097
:103CB00004011346FF3381331B59012423430501BB
:103CC0001446FF348134635130BD000000B58BB021
:103CD000142106A8FDF78EFE06AA00211148FFF761
:103CE000D7FE079802900698019008A88178684648
:103CF000817308A801786846017308A8417868466E
:103D00004173082208A903310F300EF0ADFA01A962
:103D1000002000F021F802210248FFF75BFE0BB003
:103D200000BD000000640040FFB581B004460D46B0
:103D30001646E00007494018A9004758002F06D052
:103D400031463846049A05F0DDFC05B0F0BD002090
:103D5000FBE70000B422010870B505460C460123BC
:103D6000224600212846FFF7DFFF70BD00200749EB
:103D70000870074800780421884305490870084600
:103D80000078022188430249087070472905002005
:103D90003005002000200B4908700B4800780421F2
:103DA0008843094908700948007804218843001DA8
:103DB00006490870084600780221884303490870C4
:103DC00070470000290500203F0500203005002035
:103DD00010B57D4800788007C00F002800D110BDC5
:103DE0007A48007803000EF029F9090622E1E1E1A2
:103DF0002AE15F74E1007448007804218843724925
:103E0000087001207249087070480078401C6F49A2
:103E1000087000206F4908706B48007808218843BB
:103E200008306949087005206B490870D7E76A486F
:103E30000078002800D0D2E70DF056FF00BF64489C
:103E40000078032829D165480078082806D16448FD
:103E50000078022802D0FFF79DFF24E06148007837
:103E6000C007C00F002815D15F4800784007400FF9
:103E700000280FD05D480078C007C00F002809D186
:103E80005B490870072051490870FF20F5305949F7
:103E9000088008E0FFF77EFF05E04D480078002825
:103EA00001D1FFF763FF8BE007F0E4FC002809D0A5
:103EB000FA205049088008204449087000204C49E5
:103EC000087005E04B480088002801D1FFF74EFF3D
:103ED00076E048480088002802D1FFF747FF64E0F9
:103EE00007F0FEFB002860D03C480078082803D18A
:103EF00001200DF0B3F802E003200DF0AFF83A48CE
:103F000000784007C00F002812D03B4800780428F2
:103F10000ED13A4800783A490978884205D03948A4
:103F2000007837490978884201D1FFF733FF56E717
:103F30002D4800788007C00F00280CD03248007848
:103F40000007C00F00282ED12F480078C006C00FF0
:103F5000002828D143E72D4800784007C00F0028EB
:103F600021D021480078C006C00F002808D028487A
:103F7000008828490988884214D1FFF70BFF11E017
:103F800023484078F021084022494978F022114026
:103F9000884207D11E4800781E490978884201D11D
:103FA000FFF7F8FE1BE7FFF7F5FE18E700200749CB
:103FB000087005480078022188430349087000BF53
:103FC00000BF00BF0BE700003005002029050020DE
:103FD000EC040020ED040020190500201605002047
:103FE00039050020320500203D0500202F05002066
:103FF0004E0500201C0500203E010020BB050020CE
:10400000B5050020D90400208B0500203F050020C5
:10401000A2050020A005002010B5FFF7B7F902F0B7
:10402000D5FB04F073F80CF0D3FB03F001FA0DF0AC
:1040300079FD0DF073FC0DF0FFFB2B484069400843
:1040400040002949486100202849086028488069C3
:10405000C904084326498861084680690904084361
:10406000234988610846806909030843204988611B
:104070000BF05AFF1C48C069FF21013108431A495F
:10408000C8611A4800680121C9040843174908603B
:10409000084603210902401800690002000A13497A
:1040A000032212028918086110481146401800695D
:1040B000890408430D49891808610E480E49C862F1
:1040C00000200D49203108810B494862084680894B
:1040D00001210843084988810846008801210843D6
:1040E0000549088010BD00000010024000E100E01A
:1040F0000004004850C300000020004070B5044692
:10410000257A0A22002120460EF0BCF8257270BDE7
:1041100000200C4908700C4908700C4908700C49C3
:1041200008700C4908700C4908700C4908700C495B
:10413000487008700B49087048700B4908700B49AB
:10414000087070473B0500203C0500203905002021
:10415000400500203F0500203E0500203D050020D1
:10416000A0050020A20500204C0500208A050020A3
:1041700010B5D848007803000DF060FF0A06074626
:1041800091C8FDFCFBFAF9FBA1E1D24800890028A7
:1041900000D09CE1D0480078002805D10520CD4909
:1041A00008700020088192E1CC480078002800D1F6
:1041B0008DE10CF005F8C8200BF0C4FDC84800687C
:1041C000032189068843C649086008460068C90378
:1041D0000843C34908600846806901214903084330
:1041E000BF498861FFF7E4FB0DF0D0FBB948417887
:1041F000BCA004F012F87D200001B649088102201D
:1042000008700020487162E100F01AFA00F058FAD4
:1042100000F0C6F9AF488078002803D00320AD49EC
:10422000087054E1AB48007900281CD0AA480078F7
:10423000002803D0A9480078002807D1AD4880693C
:10424000012189070843AB4988610CE0AA4800783E
:104250004007C00F002806D0A648806901218903C5
:104260000843A44988619B480089002807D19A48DF
:104270000078002803D199480078002803D1974896
:10428000007800280AD195480078002803D1012041
:104290009049087002E005208E49087017E18E48A9
:1042A0000078002803D08D48007800282DD191484F
:1042B00080690121890708438E4988618E4800780A
:1042C000400840008C490870042082490870FF2093
:1042D000F530088189480078002805D088480078A2
:1042E0000A2148437B49088186480078002803D189
:1042F000FF20F530774908817648417882A003F0A5
:104300008CFF03F075FC09F0DFFDE0E072480078F7
:10431000002811D07148007800280DD009F0D4FD94
:10432000C82003F073FC03206A49087008464178EE
:1043300079A003F072FFCAE06648008900281DD109
:104340006C4880690121890708436A49886161488E
:104350004078022801D10BF09FFFFF20F5305D4926
:104360000881052008700846417870A004E086E0C6
:1043700059E0A6E029E002E003F04FFFA7E0614822
:104380000078002803D05348008900281CD15948E0
:104390008069012189070843564988610BF08AFE2C
:1043A0007D20C0000BF0CEFC5248806901218905B8
:1043B0000843504988614748417862A003F02DFFC7
:1043C00006204449087082E081E003F0BBFA0FE068
:1043D00061480078002804D004F088FE00205E497F
:1043E00008703F48008A20210840002800D100E0E2
:1043F000EEE700BF012080F3108800BF002057497E
:10440000087003F0F5FB10200BF09CFC0AF0E0FCB8
:10441000002080F3108800BF2E49487108200881D1
:104420000120087053E0334880690121890708435F
:104430003049886103F0DCFB28480078002808D068
:104440006420244908810920087045A003F0E5FE96
:1044500014E047A003F0E1FE274800784008400040
:10446000254908701E201B49088102204349087015
:1044700000204349087001201649087027E01548BC
:104480000089002800D022E014480078002809D0D4
:104490003CA003F0C2FEFF20F5300E490881022047
:1044A00008700DE03BA003F0B8FE0220334908700D
:1044B0000020334908701420064908810120087043
:1044C00005E00820034908810120087000BF00BFF3
:1044D00010BD000002060020EC000020F9000020C2
:1044E000000800480D0A20416363207374617274F0
:1044F0003A25640000040048DB000020DE000020B4
:10450000DF000020E90000200D0A204163632064E1
:104510006E3A2564000000000D0A20416363206F9D
:104520006E20646C793A2564200000000D0A204159
:10453000636320736C65657020646C793A25642030
:10454000000000000D0A2041636320736C656570F4
:104550003A2564200000000001010020DA0000205C
:104560000D0A204C6F772073746172740000000094
:104570000D0A205265736574000000003D010020A3
:10458000E00000200D0A204163632073746172749F
:10459000000000000D0A2041636320776169740008
:1045A00030B58BB022488078002801D00BB030BDE8
:1045B0001F480079002800D1F8E71E48007800283D
:1045C00034D01D480078C006C00F00282ED11B48EB
:1045D000008800282AD019480088401E1749088002
:1045E0000024002502222146641C01A84254902088
:1045F00001A908552146641C01A8405C45400F20D4
:1046000001A908552146641C01A8405C45400020D2
:1046100001A908552146641C01A8405C454021467B
:10462000641C01A8455421460DF020FA00BFBDE7E7
:1046300002060020FF000020DB000020E200002036
:1046400010B51A488078002800D010BD18480078AE
:10465000002829D01748007800280ED01648007886
:10466000C009002809D1144800782021884320304F
:1046700011490870012009F0A1FE0E4800780028B9
:1046800003D00E48007800280ED10B480078400671
:10469000C00F002808D1084800788006C00F002805
:1046A00002D0022009F08AFE00BFCEE702060020F9
:1046B000FF000020EF000020DB000020EC000020C5
:1046C00010B50C488078002800D010BD094800794A
:1046D000002800D1F9E708480078002808D00748EA
:1046E00000784007C00F002802D1012009F074FCB7
:1046F00000BFEAE702060020FF000020DB000020E8
:104700000020094988700871C870142008810120B0
:104710000870022048700020487104490870322057
:10472000034908807047000002060020E0000020D6
:10473000E200002010B563480078002806D16248E6
:104740004078042802D004205F4948705E484078D1
:1047500003000DF073FC05041F587CA0B5005B48F6
:104760000078C009002814D0584800788021884378
:10477000564908700120564908701E205249488148
:1047800008464078401C48700846017851A003F064
:1047900044FD95E04C484089002833D152480078C8
:1047A000002808D00920C00680690121C9030843F8
:1047B0000921C90688614D480078002809D04C4875
:1047C0000078002805D04B488069042108434949F6
:1047D00088610020484908703B484078401C3A49AD
:1047E0004870444880690121890308434149886130
:1047F000142003F00BFA09F0A5FE334801783FA01E
:1048000003F00BFD5CE031480078C00900281DD0A2
:104810002E480078802188432C49087000202C49BC
:10482000087034488069012189070843314988614B
:1048300003F0DEF91E202449488108464078401CD8
:1048400048700846017831A003F0E7FC38E01E48C4
:10485000408900281ED10920C00680690121C907AE
:1048600008430921C9068861224880690121890419
:1048700008432049886101201F490870002012491F
:1048800048700BF07DF809F05DFE0F48017824A018
:1048900003F0C3FC14E00C48007803280FD10A4849
:1048A000417823A003F0B9FC09480078002803D020
:1048B00001200549487002E000200349487000BF0C
:1048C00000BF10BDEC00002002060020DC0000202C
:1048D000400100200D0A20507772206F6E20646C1A
:1048E000793A2564200000000C0100200D01002011
:1048F0003F010020000400481D0100200D0A205047
:104900007772206F6E3A2564200000000D0A205057
:10491000777220646E20646C793A25642000000070
:104920000D0A20507772206F66663A2564200000D9
:104930000D0A20507772206F6E20616363206F6EC6
:104940003A256420000000000C480078002800D1BF
:1049500070470B480089002804D009480089401E90
:104960000749088106484089002804D00448408946
:10497000401E0349488100BFEAE70000FE00002016
:104980000206002015480078002800D1704714481E
:10499000008A0821084000280FD000201149087023
:1049A00011480078401C10490870084600786428B7
:1049B00012DD00200D4908700EE000200A49087041
:1049C00008480078401C074908700846007802280B
:1049D00002DD01200549087000BFD7E7FE00002076
:1049E00000080048E7000020E8000020E90000205F
:1049F00015480078002800D170471448008A20210B
:104A0000084000280ED11249087012480078401C56
:104A10001049087008460078022812DD01200E496E
:104A200008700EE000200B49087009480078401C0F
:104A30000749087008460078142802DD002006495E
:104A4000087000BFD8E70000FE0000200008004802
:104A5000EA000020EB000020EC000020284800784D
:104A6000002800D170472748008A402108400028CC
:104A700003D025480078002820D000202349087062
:104A800023480078401C2249087008460078142802
:104A900034DD20480078002830D101201D490870FD
:104AA0001D480078802188431B490870154880699B
:104AB000012149020843134988611FE0002014497D
:104AC000087012480078401C1049087008460078A9
:104AD0001E2813DD0F48007800280FD000200D4954
:104AE00008700D480078402188430B49087005483C
:104AF00080690121490608430249886100BFB1E786
:104B0000FE0000200008004870030020EE00002096
:104B1000ED000020EF000020DB00002010B53F4832
:104B20000078002800D110BD3D48C0888005040EE3
:104B3000312C27DA3B48808A08210840002808D019
:104B400003F056F837488069012189070843354941
:104B500088613548007840084000334908700220D9
:104B600032490870082032490870FFF7C9FD00205B
:104B7000304908702A48C2882D4801782EA003F0D9
:104B80004CFB49E0382C20DA2648808A082108406E
:104B9000002808D003F02CF82248806901218907F9
:104BA0000843204988612048007840084000401CA4
:104BB0001D49087001201F4908701948C2881C4807
:104BC000017822A003F029FB26E06B2C09DD1648B2
:104BD000007840084000144908700020154908700A
:104BE0001AE03A2C18DD0120124908700E480078AE
:104BF000C007C00F00280FD00A488069012189032F
:104C0000084308498861C82003F000F80648007886
:104C1000400840000449087000BF84E704010020F8
:104C2000E805002000040048DB0000203D010020D2
:104C300002060020F90000200D0A20426174204C79
:104C40006F773A25642C2564000000000D0A20428D
:104C50006174206F6E3A25642C2564001948007831
:104C6000002800D170471848008A01210903084034
:104C7000002812D11549087015480078401C1449C5
:104C800008700846007814281ADD124800780028B9
:104C900016D101200F49087012E000200C4908705D
:104CA0000A480078401C09490870084600781E2808
:104CB00006DD08480078002802D000200549087069
:104CC00000BFCFE7FE00002000080048F1000020F0
:104CD000F0000020F200002019480078002800D1E0
:104CE00070471848008A80210840002812D11649D0
:104CF000087016480078401C14490870084600786F
:104D000014281ADD12480078002816D10120104915
:104D1000087012E000200D4908700B480078401C14
:104D200009490870084600781E2806DD0848007802
:104D3000002802D000200649087000BFD0E700001C
:104D4000FE00002000080048F4000020F3000020CE
:104D5000F500002000201549087015490870154914
:104D600008701549087015490870154908701549EB
:104D700008701549087015490870154908701549DB
:104D800008701549087015490870154908701549CB
:104D900008700E48007814490870124800781349CA
:104DA00008700D480078124908707047E70000202D
:104DB000E8000020E9000020EA000020EB000020CD
:104DC000EC000020ED000020EE000020EF000020AD
:104DD000F0000020F1000020F2000020F30000208D
:104DE000F4000020F5000020F6000020F70000206D
:104DF000F800002010B5FFF7FBFDFFF7C3FDFFF73C
:104E00008DFE02F037F800280BD00648808A20215A
:104E10000840002805D0FFF721FEFFF71FFFFFF72E
:104E20005BFF10BD000400480EB51049104800F0AB
:104E300085FF684600F0F4F80021684601712020E3
:104E400000900C21684641710021817100F0A4F8A6
:104E500007216846017200214172817202A802F0A6
:104E6000F3FE202000F084F80EBD000000030C0CBF
:104E70000340010000B5002016490870164908706B
:104E80000BF00EFA002205E000205100134B58529F
:104E9000501CC2B2062AF7DB1148124908800120D3
:104EA0008870C87000200871487188710E490870B8
:104EB00001200E49087000200D4908800D49087036
:104EC0000D4908700D4908700D49087001200D4901
:104ED000087000BDFC000020FD000020E805002057
:104EE000E30700000E01002016010020060100204B
:104EF000080100200A0100200B0100200D01002004
:104F00000C0100204001002010B5022000F036F80E
:104F100000280BD0064800784021884340300449DF
:104F2000087008F063FD022000F022F810BD0000B8
:104F30002903002010B5202000F020F8002804D01C
:104F400006F03CFD202000F013F8802000F016F859
:104F500000280AD00548007840218843034908709A
:104F600008F044FD802000F003F810BD2903002064
:104F700001494861704700000004014001460020DB
:104F8000044A52690A40002A01D0012000E00020B2
:104F90007047000000040140002120498279002A66
:104FA00035D00A46126803689A430B461A600A46CF
:104FB000526803689A430B465A60027951180A688E
:104FC00003681A430A60154A926803689A43134BB0
:104FD0009A601A46D26803689A43104BDA604279A5
:104FE000102A0CD11A46926803681A430B4B9A6038
:104FF0001A46D26803681A43084BDA600DE0074985
:10500000427951180A6803681A430A6005E0027978
:1050100051180A6803689A430A6070470004014007
:105020000021016001710C214171002181717047E3
:1050300070B500242AE01848055D02F041F8C2204E
:1050400001F0D2FF144A611C515CC907C90F084620
:10505000E03001F0C9FF104AA11C505C01F0C4FF10
:105060000D4AE11C505C01F0BFFF261D04E00A4917
:10507000885D01F0B9FF761CA8000019001DB04240
:10508000F5D802F043F8A8000019041D0248005D9D
:10509000FF28D0D170BD0000D82C010870B504469F
:1050A0000725FF2000042040000C0749C870FF209E
:1050B00000022040000A08714C7101221146284666
:1050C00000F08EFE70BD00007625002070B504460D
:1050D0000F25FF2000042040000C0749C870FF2066
:1050E00000022040000A08714C7101221146284636
:1050F00000F076FE70BD00007625002070B50446F5
:105100001025FF2000042040000C0749C870FF2034
:1051100000022040000A08714C7101221146284605
:1051200000F05EFE70BD000076250020F8B5074651
:105130000C4615461E462320009000202249C870C8
:10514000087108464771FF2000042040000C887158
:10515000FF2000022040000AC8710C72FF200004EA
:105160002840000C4872FF2000022840000A887284
:10517000CD72FF2000043040000C0873FF200002B5
:105180003040000A48738E7301220421009800F019
:1051900027FEFA200D49087000BF0A200AF0D2FD50
:1051A00000F074FA08485238C06FC004C00F0028DD
:1051B00003D0064800780028EFD104480078002882
:1051C00001D107F04FFCF8BD762500201B0500201B
:1051D00070B504462425FF2000042040000C14492B
:1051E000C870FF2000022040000A08714C710122A3
:1051F0001146284600F0F4FDFA200E49087000BF61
:105200000A200AF09FFD00F041FA09485238C06FA9
:10521000C004C00F002803D0064800780028EFD152
:1052200004480078002801D107F01CFC70BD000084
:10523000762500201B05002070B50446202500209F
:105240000549C87008710846447101221146284674
:1052500000F0C6FD70BD00007625002010B51324B7
:1052600004220021204600F0BBFD0948417A523853
:1052700081645230C07A06491239887304488179B2
:10528000123801731230C1791238417310BD000019
:105290007625002070B504460D460D20400384425B
:1052A0001BD31B48844218D81E26FF200004204030
:1052B000000C1849C870FF2000022040000A087145
:1052C0004C7100208871C87108460572681CC2B212
:1052D0000221304600F084FD18E00026FF20000483
:1052E0002040000C0B49C870FF2000022040000A3B
:1052F00008714C7100208871C871084605726800F9
:10530000401CC2B20221304600F06AFD70BD0000B0
:10531000FFBF010076250020F0B597B000240020E3
:105320001490139012900A2615908BE01820169076
:105330000020C749C8700871701E1599884203D1B2
:105340000120C349487102E00020C149487106228A
:105350000121169800F044FDBD48017B523881645C
:105360005230807BBA4912398873B948407A087341
:10537000B748807A4873B64880790004FF21090451
:1053800008400546B248C0790002091208400543AA
:10539000AF48007A0543AF48281AAF49884209D977
:1053A000AC48281AAD49884204D2AA48281AAC4908
:1053B000C8602EE00A212846FCF71EFBA949884256
:1053C00006D90A212846FCF717FBA549C86020E04A
:1053D00005212846FCF710FBAD21C9004018A14962
:1053E000884214D205212846FCF706FBAD21C900EE
:1053F000401873210901884209D905212846FCF784
:10540000FBFAAD21C90040189549C86001E09448F5
:10541000C5608F485238806C04198D481238817BE2
:105420001498081814908A481238017B13980818A9
:10543000139087481238417B1298081812901598DB
:10544000401C15901598B04200D26FE731462046B7
:10545000FCF7D2FA044631461398FCF7CDFA1390C4
:1054600031461298FCF7C8FA1290CD2C02D212984D
:10547000C7B24CE0D72C0ED91298FCF78AFF7A4AB3
:105480007A4B0F910E90FCF787FF11911090FCF76B
:1054900033FFC7B23BE01298FCF77BFF724A734BB5
:1054A0000B910A90FCF778FF0F910E90D721081B03
:1054B000FCF76FFF099108901298FCF76AFF6A4A9F
:1054C0006A4B01910090FCF767FF059104901298D8
:1054D000FCF75FFF03910290059B049AFCF7C5FC63
:1054E00007910690099B089AFCF756FF0022604B33
:1054F0000B910A90FCF7DCFC0D910C900F9B0E9A1F
:10550000FCF7A6FC11911090FCF7F6FEC7B25448C8
:105510008078032819DA574800784007C00F002820
:1055200001D1BB2C07D2534800784007C00F002898
:105530000BD0D52C09D32D2F07DC1398052804D8C0
:10554000062070431499884217D245488078032872
:1055500053DB484800784007C00F002801D1AA2C2F
:1055600007D2444800784007C00F002845D0C42C1B
:1055700043D33101149881423FD935485238C06F26
:1055800002218843801C32495239C86734488068F8
:105590003449884239D9324880683749884209D924
:1055A0002F4880683549884204D22948123840790A
:1055B00004282AD02A4880682749884204D92848E4
:1055C00080682649884220D32D480078C007C00F44
:1055D000002803D12B48007800280BD12A480078F6
:1055E000C007C00F002805D1274800788007C00FEA
:1055F00000280AD004F0DEFA07E015485238C06FE0
:105600000221884312495239C86715480069144974
:10561000C968884209D10E485238C06F04218843B6
:10562000001D0B495239C86707E009485238C06F5E
:105630000421884306495239C86705485238C06F6B
:1056400010218843103002495239C86717B0F0BDA5
:1056500076250020A08601005CF3000088F400009D
:105660002423002032190000333333333333E33F34
:10567000000024402F0500204C1D00008C2300005A
:1056800032050020390500203D05002010B5112409
:1056900002220021204600F0A3FB27484079402148
:1056A0000840002809D024485238C06F09018843B7
:1056B000411821485238C16708E01F485238C06F6E
:1056C0000121890288431C495239C8671A48007968
:1056D000C007C00F00280AD017485238C06F0121F8
:1056E00049038843411814485238C16708E01248FA
:1056F0005238C06F0121490388430F495239C867A6
:105700000D48C078C007C00F00280AD00A48523898
:10571000C06F012109038843411807485238C16707
:1057200008E005485238C06F012109038843024947
:105730005239C86710BD00007625002070B50446B8
:10574000252500202149C870087108464471002CA5
:105750002CD102220121284600F042FB1B48C178CF
:1057600052388164523000791849123988731748C9
:10577000807908731548C079487314484079012826
:105780000AD108464038C06FFF21013188434018D4
:105790000E495239C86717E00C485238C06FFF21D4
:1057A0000131884309495239C8670DE002220121BD
:1057B000284600F015FB0548C17852388164523004
:1057C000007902491239887370BD000076250020E7
:1057D00070B50446172500200549C8700871A00758
:1057E000800F487101221146284600F0F9FA70BD79
:1057F00076250020F8B507460D461646092000908C
:10580000002E05D101220021009800F0E9FAB8E04D
:1058100000205C49C8700871084645710F2D26D1DB
:10582000002F0AD15848807F88715748C07FC871BF
:1058300055482030007808729DE0022F0BD1534864
:10584000807F504988715148C07FC8714F482030CF
:10585000007808728FE04E48807F4A4988714C4832
:10586000C07FC8714A4820300078087283E0002F5A
:105870002AD1002425E0680028186100611840182A
:105880004149095C60002018801D3E4A115468009F
:105890002818610061184018401C3B49095C6000F1
:1058A0002018C01D115468002818610061184018A4
:1058B000801C3549095C6000201808301154601CB8
:1058C000C4B2B442D7DB56E0022F2AD1002425E02F
:1058D000680028186100611840182C49095C6000B4
:1058E0002018801D274A115468002818610061188B
:1058F0004018401C2549095C60002018C01D115447
:1059000068002818610061184018801C1F49095C54
:105910006000201808301154601CC4B2B442D7DBB8
:1059200029E0002425E0680028186100611840186B
:105930001749095C60002018801D124A1154680044
:105940002818610061184018401C1149095C60006A
:105950002018C01D115468002818610061184018F3
:10596000801C0B49095C6000201808301154601C31
:10597000C4B2B442D7DB701CC1B20122009800F05F
:105980002FFAF8BD76250020B4520108D55201083F
:10599000F6520108F8B504460D4616461F46142077
:1059A0000090FF2000042040000C3749C870FF2001
:1059B00000022040000A08714C71FF2000042840BA
:1059C000000C8871FF2000022840000AC8710D7287
:1059D000FF2000043040000C4872FF2000023040DD
:1059E000000A8872CE72FF2000043840000C087351
:1059F000FF2000023840000A48738F73FF2109041A
:105A000006980840000C2049C873FF210902069837
:105A10000840000A1C49087406984874FF210904CC
:105A200007980840000C18498874FF21090207985C
:105A30000840000A1449C87407980875FF21090432
:105A400008980840000C10494875FF210902089881
:105A50000840000A0C4988750898C875FF21090498
:105A600009980840000C08490876FF2109020998A6
:105A70000840000A044948760998887601220821DE
:105A8000009800F0ADF9F8BD7625002070B5044609
:105A90001525FF200004204000140749C870FF208E
:105AA00000022040001208714C7101221146284664
:105AB00000F096F970BD00007625002070B5044610
:105AC000222500201249C87008710846447101223D
:105AD0001146284600F084F9FA200E49087000BFEC
:105AE0000A200AF02FF9FFF7D1FD09485238C06F9C
:105AF000C004C00F002803D0064800780028EFD16A
:105B000004480078002801D106F0ACFF70BD000009
:105B1000762500201B050020F0B587B00546FDE086
:105B200028780590069068780490A8780390E87823
:105B30000290002000906F783F02A87807433F0250
:105B4000E87807437848874206D9072080038742D0
:105B500005D37648874202D80320019012E00D2039
:105B60004003874205D37248874202D81F20019024
:105B700008E01B200003874204D36E48874201D807
:105B80001F2001900198032844D100243AE06A497B
:105B90000498C8700398087102984871A100281DE4
:105BA000405C65498871A100681D405C6249C8710C
:105BB000A100A81D405C604908720846C07948727F
:105BC0000846007A8872A100E81D405C5A49C872F4
:105BD00001220321019800F003F9049E3602039884
:105BE0000643360202980643761CFF20000430402C
:105BF000000C0490FF2000023040000A0390F0B235
:105C00000290641C06988442C1D305988000001D50
:105C10002D1883E001981F28FBD148E046490498DD
:105C2000C870039808710298487100241CE0A10014
:105C3000281D09180098095C60002018801D3E4A44
:105C40001154A100681D09180098095C6000201813
:105C5000C01D1154A100A81D09180098095C60001E
:105C6000201808301154641C072CE0D301220821AD
:105C7000019800F0B5F8049E3602039806433602F8
:105C800002980643F61DFF2000043040000C0490EB
:105C9000FF2000023040000A0390F0B2029000980A
:105CA0001C30C0B200900698C01FC0B20690069883
:105CB0000728B3DC20490498C8700398087102983B
:105CC000487100241CE0A100281D09180098095CF7
:105CD00060002018801D184A1154A100681D091881
:105CE0000098095C60002018C01D1154A100A81D77
:105CF00009180098095C6000201808301154641CD1
:105D000006988442DFD30698401CC1B20122019854
:105D100000F066F805988000001D2D182878FF28EF
:105D200000D0FDE607B0F0BDFF9F0100FFFF0100BE
:105D3000FFAF0100FFBF01007625002070B50446CB
:105D40000D460D204003844220D3234884421DD8B1
:105D50001F26FF2000042040000C2049C870FF20AF
:105D600000022040000A08714C71FF200004284006
:105D7000000C8871FF2000022840000AC8710D72D3
:105D800001220221304600F02BF824E00326FF20F8
:105D900000042040000C1149C870FF200002204080
:105DA000000A08714C71280E8871FF2000042840F9
:105DB000000CC871FF2000022840000A0872084643
:105DC000C07948720846007A8872CD720122032198
:105DD000304600F005F870BDFFBF010076250020B9
:105DE00070B504460D46164601211348C173902034
:105DF00011490F31487000208870F02020400011B8
:105E00000F3988742007000E12314870681CC006D4
:105E1000C00E8870691CC8B20122032100F0E8F8A6
:105E2000012E07DBEB2004490F3188700321304637
:105E300000F004F870BD000064250020F8B50646A7
:105E40000F46354601F03CF9C22001F0CDF8002F95
:105E500002D0032F38D138E06449C97BC807C00F8E
:105E600001F0C2F861490F31487801F0BDF85F498F
:105E70000F31887801F0B8F801F048F904200AF0F1
:105E800049F801F01DF9C32001F0AEF804200AF032
:105E900041F801F06BF85549887400F0F7FF01F004
:105EA00065F852491231487000F0F0FF01F05EF8D9
:105EB0004E491231887000F0E9FF01F057F84B4964
:105EC0001231C87001F012F88CE04849C97BC9074B
:105ED000C90F0846703001F087F844490F314878FF
:105EE00001F082F841490F31887801F07DF801F026
:105EF0000DF904200AF00EF801F0E2F8C32001F0D9
:105F000073F804200AF006F8681C002841D101F05B
:105F10002DF83649887400F0B9FF01F027F83349AD
:105F20001231487000F0B2FF01F020F82F49123111
:105F3000887000F0ABFF2D4812308078C506ED0E5A
:105F4000012422E001F012F861006118274A1232A0
:105F5000505400F09BFF01F009F861006118491CE2
:105F6000224A1232505400F091FF00F0FFFF61000E
:105F70006118891C1D4A12325054AC4202D100F003
:105F8000B5FF01E000F082FF641C681C8442D9D395
:105F900027E0002423E000F0E9FF61006118134AC4
:105FA0001232505400F072FF00F0E0FF61006118FF
:105FB000491C0E4A1232505400F068FF00F0D6FF20
:105FC00061006118891C094A12325054681EA042AF
:105FD00002D100F08BFF01E000F058FF641CAC42DE
:105FE000D9D300BF00BF01F091F8F8BD64250020AF
:105FF000F7B583B007461646002000900190029046
:1060000001F05EF8C22000F0EFFF0498002802D0F3
:10601000032825D125E04F49C97BC907C90F084688
:10602000803000F0E1FF4B490F31487800F0DCFF91
:1060300048490F31887800F0D7FF4649887C00F046
:10604000D3FF44491231487800F0CEFF4149123164
:10605000887800F0C9FF3F491231C87800F0C4FFCA
:1060600072E03C49C97BC907C90F0846F03000F00F
:10607000BBFF38490F31487800F0B6FF35490F3182
:10608000887800F0B1FF00254DE069006918314AB9
:106090001232505C00F0A8FF69006918491C2D4AB3
:1060A0001232505C00F0A0FF69006918891C294A6F
:1060B0001232505C00F098FF002E33D0022420E012
:1060C000A00069460858690069180919214A123266
:1060D000515C4018A1006A465050A000694608581B
:1060E000FF280DD9601E80000858401C611E8900E1
:1060F0005050A00069460858FF380138A1005050A0
:10610000641E002CDCD169006918124A1232515CFD
:106110000098401800900098FF2803D90098FF3895
:10612000013800906D1CBD42AFD3002E0BD00099FA
:10613000C8B200F059FF0199C8B200F055FF0299AA
:10614000C8B200F051FF00BF00BF00F0DFFF06B093
:10615000F0BD000064250020FEB50546002600279E
:10616000002001900090424880684249884222D92C
:106170003F488068404988421DD200240BE002203D
:10618000FFF7DCFA3D48806C86193C484030807B44
:10619000C719601CC4B2AC42F1DB29463046FBF79C
:1061A0002BFC3649886429463846FBF725FC3349E1
:1061B000403188735AE02E4880683149884238D986
:1061C000002417E00020FFF7B9FA2C48806C8619EC
:1061D0002A484030807BC71928484030017B01980D
:1061E0000818019025484030417B0098081800901D
:1061F000601CC4B2AC42E5DB29463046FBF7FCFB31
:106200001E49886429463846FBF7F6FB1B49403196
:10621000887329460198FBF7EFFB18494031087352
:1062200029460098FBF7E8FBC1B21448403041739F
:106230001CE000240BE00120FFF780FA0F48806C7F
:1062400086190E484030807BC719601CC4B2AC422E
:10625000F1DB29463046FBF7CFFB08498864294625
:106260003846FBF7C9FB054940318873FEBD000085
:10627000242300205CF3000088F400002425002083
:106280003219000000B585B01A491B48FFF756FDCA
:106290000121480403F0D2FA202000900021684632
:1062A00001710321417100218171C1716946092089
:1062B000C00600F021FA03A8FEF7B2FE00216846EE
:1062C0000174202003900C216846417401218174DF
:1062D00003A8FEF761FE07216846017200214172A2
:1062E0000121817202A801F0AFFC2020FEF740FEE0
:1062F00005B000BD00130C0C0340010008B58B482D
:106300000078C007C00F002800D108BD8848007879
:10631000801E03000BF092FE05047CA1DEF97B00D9
:1063200000BF00210091834800781C214843824926
:106330004018801C81490978415C684601700188D9
:106340007FA001F06AFF68460078002851DD6846AA
:106350000078CD284DDA7E480078012807D07C48A7
:10636000007804280CD17B480078022808D06846C1
:1063700000884004010C0091684600887649088036
:106380007549088800F0FAFA7449886806F04EFBEF
:1063900003F0B0FB03206649087000207049487084
:1063A000087005F013FC05F035FC6E4800784021BC
:1063B00088436C4908700846007820218843694961
:1063C00008700846007880218843664908700020DC
:1063D000654908706548007808218843634908705A
:1063E00000206349087063490870062062490870FC
:1063F0008BE752480078401C5049087008460078E6
:1064000019288EDB06204A49087000BF00BF8AE0C9
:10641000544800788006C00F002809D02E20564925
:10642000087004204249087054A001F0F6FE13E001
:106430005148007800280FD140480078401C3F495F
:10644000087008460078192803DB062038490870D0
:1064500002E002203649087065E0434800780007F2
:10646000C00F00281ED040480078C006C00F00288A
:1064700018D005202E490870454800780821884327
:1064800008304349087005204249087000204249FD
:1064900008702E20414908703748017840A001F06B
:1064A000BCFE16E034480078002812D140A001F06C
:1064B000B4FE22480078401C204908700846007845
:1064C000192803DB06201A49087002E00220184947
:1064D000087028E0244800780007C00F002813D077
:1064E00021480078C006C00F00280DD02848007849
:1064F0004006C00F002807D00C4800788007C00F66
:10650000002801D101E700E000BF084800784008FA
:1065100040000649087003F041FD05F0F3F829A09A
:1065200001F07BFE00BF00BF00BFEEE6CF050020FC
:10653000C9050020CA05002044220020D005002003
:106540000D0A20456F6E20537461743A257800005F
:10655000DD000020FA040020FE0400202423002097
:10656000A00500203F0500208B05002040050020ED
:106570008C0500208D050020CD0500200D0A20454A
:106580006F6E2050492045786973742E200A0000F0
:106590003E050020390500203C050020650500204F
:1065A0000D0A20456F6E544120666E643A257800CE
:1065B0000D0A204E65787420456F6E202041462ECE
:1065C000200A00000D0A20456F6E204465742045A6
:1065D0006E642E200A0000000149C8607047000068
:1065E0000020024010B503460B20000400F042F8E2
:1065F0000446012C17D10D480069022108430B49BC
:106600000861084643610069402108430749086161
:106610000B20000400F02EF8044604480069022113
:10662000884302490861204610BD00000020024056
:1066300000B500F013F83520FFF7CEFF00BD0000D5
:106640000348006980210843014908617047000040
:106650000020024001460A6890B270470248034990
:1066600048600348486070472301674500200240A6
:10667000AB89EFCD014616E00E48C068C007C00FD9
:10668000002800D00FE00B48C068102210400028FE
:1066900000D008E00748C06804221040002800D05D
:1066A00001E0012070470846491E0028E4D100BFE0
:1066B000F8E700000020024030B503460C460B20EE
:1066C0000004FFF7D7FF0546012D11D109480069E5
:1066D00001210843074908611C800B200004FFF7D3
:1066E000C9FF0546034800694008400001490861A8
:1066F000284630BD00200240F0B50A4600210023A4
:10670000002400BF3DE001258D402B4615681D404B
:106710002C469C4234D11579012D02D01579022DD9
:1067200016D185684F000326BE40B5438560557974
:106730004E00B540866835438560858801268E40C9
:10674000B5438580858896798E40B6B2354385807D
:1067500005684F000326BE40B543056015794E001D
:10676000B540066835430560C5684F000326BE4046
:10677000B543C560D5794E00B540C6683543C560A0
:10678000491C1029BFD3F0BDF0B5002300244D07EC
:10679000EE0E1546B5402B46CD10AE000546203511
:1067A000AD594E07F70E0F26BE40B543CE10B600CA
:1067B00007462037BD51CD10AE003D46AD591D43B3
:1067C0002C46CD10AD003E467451F0BD7047002000
:1067D0007047F8B505460E460027002404E0600027
:1067E000285AC719601CC4B2B442F8DB3146384697
:1067F000FBF702F980B2F8BDF8B506460F4620480F
:10680000007840001F4A81183046FBF747FF0028F8
:1068100000D1F8BD1A49097849001A4A505A0E2287
:10682000FF2100F04EFE002803D00020144908701C
:10683000EFE713480078401CC0B2114908700A28DD
:106840001BD30A210F48FFF7C4FF054600240CE0C4
:10685000012E08D10A2060430B4A801841880E227D
:10686000284600F02EFE601C84B2112CF0DB3D8027
:106870000020034908700120CBE70020C9E7000091
:106880009D020020580D002048010020F8B5064662
:106890000F462048007840001F4A81183046FBF719
:1068A000FDFE002800D1F8BD1A49097849001A4AAE
:1068B000505A0E22FF2100F004FE002803D00020D1
:1068C00014490870EFE713480078401CC0B2114922
:1068D00008700A281BD30A210F48FFF77AFF0546E4
:1068E00000240CE0022E08D10A2060430B4A8018D5
:1068F00041880E22284600F0E4FD601C84B2112C71
:10690000F0DB3D800020034908700120CBE7002028
:10691000C9E700009C020020440D0020F201002085
:1069200030B504460D4600210AE00A204843C0184D
:106930008079A04202D12970012030BD481CC1B22B
:106940009142F2DB0020F8E708B50AF047FA014669
:106950004A79684642708A790270008808BD000052
:1069600070B504460D462101034A881801222946C4
:1069700002F006FF70BD0000740300203EB505461E
:10698000FFF7E2FFA84202DAFFF7DEFF05460AF052
:1069900025FA0446E1786846417121790171E1796F
:1069A0004170217A0170818812480164684601882B
:1069B0001048C163A0780F49403108710E48007833
:1069C000C007C00F002803D0A0780C49087005E06C
:1069D000A0780A21FBF71AF80849087068468188F0
:1069E000064800786843081881B202916846008919
:1069F0003EBD0000242500202F0500203C1E002065
:106A00007CB506463546274886600AF0E7F9044615
:106A1000E1786846417121790171E1794170217A0B
:106A20000170818820480164684601881E48C1635E
:106A3000A0781D49403108711C480078C007C00F7C
:106A4000002803D0A0781A49087005E0A0780A2130
:106A5000FAF7DCFF1649087068460088A84209DC8E
:106A6000684601888088081A85B2684600880D4902
:106A7000886009E068468088A84204DC684680880F
:106A8000281A85B200E00025094801782846FAF75F
:106A9000BDFF0849088008460288314606A001F07B
:106AA000BCFB7CBD24230020242500202F050020D2
:106AB0003C1E0020FE0400200D0A2073656C6563F7
:106AC0007420667265203D203A25642C25782C00C0
:106AD0000EB502460AF082F90146CB78684643714A
:106AE0000B790371CB7943700B7A037083880F485D
:106AF0000364684603880D48C3630A200C4B187072
:106B0000684683880A4800785043181883B2029375
:106B1000684603890548C06B834203D30348808FCE
:106B200080B20290684600890EBD00002425002036
:106B30003C1E0020002109E00A204843054A105C61
:106B4000002801D001207047481CC1B21129F3DB95
:106B50000020F8E748010020002109E00A2048430E
:106B6000054A105C002801D001207047481CC1B2C2
:106B70001129F3DB0020F8E7F20100200520C00610
:106B80000921C906086000202449086024490860DA
:106B9000244908600920C0060068234908430921E8
:106BA000C90608601D480068032108431B490860A6
:106BB0001B4800681D490843194908600846806958
:106BC0001B4908431649886114480068194908435D
:106BD00012490860084680680F21090508430F49DB
:106BE0008860084680880321890208430B49888011
:106BF0000846806910490843084988610920C00691
:106C000000680E4908430921C906086008468069E2
:106C10000B4908430921C9068861704700040048F0
:106C200000080048000C00480F330000150304045E
:106C3000000014225455501140003E4C5004404175
:106C400000002C981CB55448406853498861084698
:106C50008068C8610846C0680862084600694862E2
:106C60000846406988620846006B202188434A49EB
:106C7000096B49012022114008434749086308462F
:106C8000006B402188434449098E8907C90F890157
:106C9000402211400843404908630846006B8021A8
:106CA00088433D49098E4907C90FC9018022114017
:106CB0000843394908630846006B51008843364948
:106CC000098E0907C90F09025200114008433249D1
:106CD00008630846006B510088432F49098EC90696
:106CE000C90F49025200114008432B490863084666
:106CF000006B4008400008630846006B022188438F
:106D0000254908630846006B04218843224908632B
:106D10000846006B082188431F4908630846006B3A
:106D2000102188431C49086300240846008E800611
:106D3000C00F002801D0012004431748008E4006F0
:106D4000C00F002801D0022004431348008E000623
:106D5000C00F002801D0042004430F48008EC00556
:106D6000C00F002801D0082004430B48008E800586
:106D7000C00F002801D0102004430748806A06494C
:106D8000496A009101900448036AC26981692046FA
:106D900004F01EFE1CBD0000A425002010B51648FE
:106DA00000788007C00F002820D001211348FEF78B
:106DB00071FA1348C0781349086008460068000259
:106DC00008600F480079096808430E4908600846C2
:106DD0000068000208600A484079096808430949C8
:106DE000086000210548FEF7A9FF04E00548016896
:106DF0000248FEF7A3FF10BD2F050020D6B001000A
:106E000076250020E005002010B50446002C20D097
:106E100001211248FEF73EFA1148C0781149086076
:106E200008460068000208600D48007909680843B8
:106E30000C4908600846006800020860084840796C
:106E4000096808430749086007490448FEF776FFC8
:106E500003E006490148FEF771FF10BDF2B40100DE
:106E600076250020E40500202DA6FF00D359000060
:106E700000BFFEE70448008A20210840002801D115
:106E8000012070470020FCE70008004810B51648B4
:106E9000806901218906084313498861012008F0AF
:106EA0005FFF114880690121C90608430E498861C6
:106EB000012008F055FF0C48806901218902084330
:106EC00009498861012008F04BFF074880690121CA
:106ED0008906084304498861012008F041FF012028
:106EE00008F03EFF10BD00000004004810B51E4829
:106EF00080690121890608431B498861012008F047
:106F00002FFF194880690121C90208431649886189
:106F1000012008F025FF14488069012189020843F7
:106F200011498861002404E0022008F0F3FF601C8E
:106F3000C4B20A2C06DA0C48008A012189020840F2
:106F40000028F1D0012008F00BFF074880690121DB
:106F50008906084304498861012008F001FF0120E7
:106F600008F0FEFE10BD00000004004800B51D48FA
:106F700080690121890608431A49886100F0ECF80C
:106F8000184880690121C90208431649886100F048
:106F9000E3F800F0E1F8002200231EE011488069C8
:106FA0000121890608430F49886100F0D5F80D4892
:106FB00080690121890208430A49886100F0CCF800
:106FC0005006020E0748008A0121C9020840002825
:106FD00001D001200243581CC3B2082BDEDB10464F
:106FE00000BD00000004004830B502461546334895
:106FF00080690121890608433049886100F0ACF8B6
:1070000000232AE02D4880690121890608432B4985
:10701000886100F0A1F880202840002807D0274888
:1070200080690121C90208432449886106E0234898
:1070300080690121C90608432049886100F08CF865
:107040001E4880690121890208431C49886100F0BB
:1070500083F86806050E581CC3B2082BD2DB17480C
:1070600080690121890608431449886100F074F899
:10707000124880690121C90208431049886100F063
:107080006BF80E4880690121890208430B49886129
:1070900000F062F8142409E00848008A0121C902BE
:1070A0000840002800D106E000F056F82046611E96
:1070B000CCB20028F0D100BF30BD00000004004871
:1070C00000B5114880690121C90208430E49886151
:1070D000084680690121890208430B49886100F054
:1070E0003BF8094880690121C906084306498861BF
:1070F00000F032F8044880690121890608430249FA
:10710000886100F029F800BD0004004800B511486E
:1071100080690121890608430E4988610846806913
:10712000490408430B49886100F016F80948806952
:107130000121890208430749886100F00DF80548DC
:1071400080690121C90208430249886100F004F8FE
:1071500000BD000000040048002001E0411CC8B24E
:107160000128FBDB704700B585B00721002007F040
:1071700063FF0121480402F031FB802001900021CF
:107180006846017203214172002181720121C1729E
:1071900001A90920C006FFF7AFFA03A8FDF740FFD9
:1071A000002168460174802003900C2168464174D8
:1071B0000121817403A8FDF7EFFE072168460170E5
:1071C000002141700121817000F03EFD8020FDF71B
:1071D000CFFE05B000BD000000B585B00121022042
:1071E00007F02AFF0121C80402F0F8FA02200190FA
:1071F0000021684601720321417200218172012140
:10720000C17201A91048FFF777FA03A8FDF708FF3C
:10721000002168460174022003900C2168464174E5
:107220000121817403A8FDF7B7FE052168460170AE
:10723000002141700121817000F006FD0220FDF760
:1072400097FE05B000BD00000008004800212E4A4E
:107250001278052A03D02C4A1278072A01D12B492B
:107260002CE0294A1278012A01D1294926E0264A30
:107270001278022A03D0244A1278032A01D1254920
:107280001CE0214A1278032A01D1234916E01E4A44
:107290001278082A01D1214910E01B4A1278042AE9
:1072A00001D11F490AE0184A1278062A01D11D4966
:1072B00004E0154A1278092A00D11B491B4800BF77
:1072C0000A880280194A1632904200D102E0891CD5
:1072D000801CF5E700BF0C4A1278062A03D00A4A40
