:020000040800F2
:10180000F029002081190008ED7A00089D6B00087E
:1018100000000000000000000000000000000000C8
:10182000000000000000000000000000B1E6000819
:101830000000000000000000BF7F00081FF4000847
:1018400093190008931900089319000893190008C8
:1018500093190008CD4D000893190008E54D0008C4
:1018600093190008931900089319000893190008A8
:1018700093190008931900089319000835FD000812
:10188000931900089319000893190008D5FB000864
:101890009319000893190008931900089319000878
:1018A00093190008931900089319000849090108C1
:1018B0000D0A0108CD0A01088D3B000893190008A4
:1018C00000F002F800F030F80CA030C808382418F6
:1018D0002D18A246671EAB4654465D46AC4201D168
:1018E00000F022F87E460F3E0FCCB646012633426A
:1018F00000D0FB1AA246AB46334318479430010090
:10190000B43001000023002400250026103A01D342
:1019100078C1FBD8520700D330C100D50B607047A7
:101920001FB51FBD10B510BD00F05AFE1146FFF7E0
:10193000F7FF0FF07FFE00F072FE03B4FFF7F2FF37
:1019400003BC00F079FE000070B505460C46164653
:1019500002E00FCC0FC5103E102EFAD2082E02D393
:1019600003CC03C5083E042E07D301CC01C5361FA6
:1019700003E021782970641C6D1C761EF9D270BDBD
:101980000748804707480047FEE7FEE7FEE7FEE717
:10199000FEE7FEE704480549054A064B704700008C
:1019A0008DF60008C1180008F0230020F02900205F
:1019B000F0250020F025002001E004C0091F0429C3
:1019C000FBD28B0701D50280801CC90700D00270B2
:1019D000704700290BD0C30702D00270401C491E7B
:1019E000022904D3830702D50280801C891EE3E705
:1019F0000022EEE70022DFE7002203098B422CD30E
:101A0000030A8B4211D300239C464EE003460B434E
:101A10003CD4002243088B4231D303098B421CD3B0
:101A2000030A8B4201D394463FE0C3098B4201D3A2
:101A3000CB01C01A524183098B4201D38B01C01ADA
:101A4000524143098B4201D34B01C01A5241030951
:101A50008B4201D30B01C01A5241C3088B4201D300
:101A6000CB00C01A524183088B4201D38B00C01AAD
:101A7000524143088B4201D34B00C01A5241411AD4
:101A800000D201465241104670475DE0CA0F00D0B7
:101A90004942031000D34042534000229C460309B0
:101AA0008B422DD3030A8B4212D3FC22890112BA36
:101AB000030A8B420CD3890192118B4208D389010E
:101AC00092118B4204D389013AD0921100E0890926
:101AD000C3098B4201D3CB01C01A524183098B4207
:101AE00001D38B01C01A524143098B4201D34B01F0
:101AF000C01A524103098B4201D30B01C01A524153
:101B0000C3088B4201D3CB00C01A524183088B42D9
:101B100001D38B00C01A5241D9D243088B4201D362
:101B20004B00C01A5241411A00D20146634652414D
:101B30005B10104601D34042002B00D5494270474C
:101B400063465B1000D3404201B50020C046C0464A
:101B500002BD704770477047F0B50C46871A9C412C
:101B60000D46861A9D4103D2C01BA141D219634183
:101B70000D0D1F0DC94EEC1BAE435CD07F057F0DD4
:101B80000026002F51D02D05AC46A943DD020123CC
:101B9000ED0A1B051D4320231B1B24D41746E740D9
:101BA000381871412F46E740CC199D40281831461E
:101BB00061410C0D27D161449A4013D50023401C8C
:101BC000594152000ED14008400001224B005205FD
:101BD000D34207D305204007C14201D5B04900E0F8
:101BE000B0493046F0BD6B00002A00D001229A189F
:101BF0001F23203C1B1B01D5002302E0E5402818D1
:101C000071410C0DD7D0012424050919C407CD0753
:101C100040084908E40F28436144002CD5D0002433
:101C2000401C61419A40D0D1CDE76A05520DD9D10F
:101C3000C90FC907D5E79C4D4E00002801D00124EB
:101C400000E0002434195F00002A01D0012600E0E2
:101C50000026BE19954FAC420CD8AE420AD8B44209
:101C600006D001256D05EC42BCD010461946F0BDEA
:101C70009942FCD000203946F0BDF0B51FB40C46A7
:101C80000F46811A9F412546861A9D4106D201259D
:101C9000ED076F40401ABC4152187B41210D1E0DCB
:101CA0008D1BAC467D4D8D437ED075056D0D7CD072
:101CB0000D05AE46AC431B031B0B794D52429D41B3
:101CC000202366469B1B14D31746F740381800267E
:101CD0000090744160462F460741E41900989D40EA
:101CE0002818664116D4714671189A4025D50123EB
:101CF00020E093182A466A415200002B00D0521C63
:101D00001E23203E9B1B002B61DD3541EE1728185A
:101D10006641E8D5001876415B1C9A4000D3401C10
:101D20004B05F3181524E34010D3002B52D0714615
:101D30007118D30FC01802D3491C05B0F0BD0123A0
:101D4000DB079A42F9D140084000F6E7012252052C
:101D5000B21801D1002853D00123CC0ADB029943E9
:101D6000891E002A08D1020C03D0020C000410398D
:101D700002E00246002020390023550B05D1120253
:101D80000823550B01D152010D23550C01D112012D
:101D90001B1DD50C01D192009B1C150D01D15200C9
:101DA0005B1C2025EE1A01E02CE022E00546F54000
:101DB00015439840CA1AE10769181305C918002A83
:101DC000BBDA032040070818C10FC9070FE07146AE
:101DD0006118B2E7F10740080843711071444A00E6
:101DE0000CD001235B059A42A7D2C90FC907002076
:101DF000A3E74905490D26D1002001E00028F4D1D0
:101E000000219AE7284D6600002801D0012100E05A
:101E1000002171185F00002A01D0012600E0002691
:101E2000BE19224FA94210D8AE420ED8B14208D0F6
:101E300001256D05E94206D01946A8024140104629
:101E40007BE79C4201D0214677E70020394674E7C2
:101E500010B50C465C4005D50124E4076340FFF74C
:101E60000CFF10BDFFF778FE10BD30B40C465C408F
:101E700004D50124E407634030BC6DE630BCFCE6C9
:101E800070B50124E40761400D465D4002D4FFF7C0
:101E900063FE70BD6340FFF7F0FE70BDFF070000FA
:101EA0000000F0FF0000F07F0000E0FF0000F87F7E
:101EB000F0B5F94D0C091E092C402E402F468BB071
:101EC000A7437DD0B543FCD0002E7AD0002CFCD0A7
:101ED0000D465D40ED0F2543AC1BFF25AD04641995
:101EE0000894C502440DC9022143500DDC0204438D
:101EF0000120C00701430443D2020191200C110CC0
:101F000000958C46010423468B430A9161460904DF
:101F1000E24D8A430991010A7D44491980390978C3
:101F200005464D4301266D18F605751B6943C90C1E
:101F3000640B891C4C436418B5012C1B250C2E0422
:101F4000B4434C434D43210C691889090591009D08
:101F5000E90701D00121C90704912C4601996708BE
:101F6000CD072F434C08059DE10B4D432D0C294611
:101F70006646754302950D4645432E46029D7D1BE0
:101F8000B44100950D465D4301942C0C2F040D4681
:101F90005543AE462D0C3D43029503947546049C73
:101FA0002D04641B049406D2029C039D641C00262D
:101FB00075410395029401AC70CC009F7D1B01E03C
:101FC0003EE162E1B441090400950791019405994D
:101FD000A4086143090C0C464443650BE7040C4616
:101FE00066467443A646640B3C43039502947446CC
:101FF000049DE4042C1B049406D2029C039D641CE3
:10200000002675410395029401AC70CC009F7D1BA6
:10201000B44101940C465C430095650FE7000C4603
:102020005443A646640F3C43039502947446049DB2
:10203000E4002C1B049406D2029C039D641C002621
:1020400075410395029401AC70CC009F7D1BB44197
:10205000AE09AF06049DC900AD092F43049DA40637
:10206000AD060495079D344369180791059DE10B62
:102070004D432D0C29466646754302950D46454352
:102080002E46029D7D1BB44100950D465D43019493
:102090002C0C2F040D465543AE462D0C3D430295A6
:1020A00003947546049C2D04641B049406D2029C80
:1020B000039D641C002675410395029401AC70CC0D
:1020C000009F7D1BB44101948C050694079C890AEE
:1020D000611800950791019C0599A4086143090CBA
:1020E0000D464543680BEF040D46644665436C0B93
:1020F0003C43049FED047D1BAC4602D20025641CCA
:102100006841009E019D371B854108465843019553
:102110000C46460FC5005443600F28436546E40053
:102120002C1B02D20025401C6E41019D3F1AB54177
:102130002846BD09800628438446A009BF064E02F2
:102140000699A40676180743079D002068410A995E
:10215000079019430020099B00906046FF19134324
:102160004041E20F64003A43A4460446D71A8C412A
:10217000A04203D90120009020463A46C70F941888
:1021800040416246D20F2243644664000494009C9E
:10219000BE466400D71AA446044602978C4177468F
:1021A000002F01D1A04204D96046401C8446029A07
:1021B0002046C40FA64694184041049A0546D20F03
:1021C000224364466400D31A8D417146002901D12F
:1021D000A84202D928461A46641C1043012200284E
:1021E00000D0164361020020079B891904465C4118
:1021F0000223002C02DB491813466441089DCE0AD5
:102200002D145D194B056705E10A2C050D19089978
:102210003E43C9076940002B08D0934006D30022F3
:10222000761C5141002B01D1760876001C4A002D06
:1022300043DB154241D0AA433FD030460BB0F0BD3E
:1022400006180D464D41174C7642AC411AD39518ED
:102250001C465C41134A6D42A24113D30122520530
:102260004C00D4420AD15C00D4420BD04B4002D582
:1022700092021143E2E749004908DFE75940C90FDC
:10228000C90718E000200849D8E7054801420DD1E8
:102290000342F7D0F2E700000000FF071729010012
:1022A0000000F07F0000E0FF0000F87F1148594077
:1022B0000143C01241400020C0E70123089A9B0659
:1022C0009A4205DC032252078918C90FC907B5E7EE
:1022D000052252078918074A1143D2125140ADE72F
:1022E00070B515461C4602460B4628462146FFF7A8
:1022F000DFFD70BDFFFFFF7F0346CA02400D10B532
:1023000010430A1504D00124E4072043002A05DB0A
:102310000A4CA21A04D4D040FF2A00DD002010BDD0
:102320004A00002B01D0012000E0002010180122FB
:102330005205D042F2D8C817C04310BD1E04000099
:102340001F22030C02D10F22000402D0030E03D07F
:1023500004E00020014670470002083A030F01D153
:102360000001121F830F01D18000921E002801DBA3
:102370004000521E120551184205C0124118104665
:102380007047C10FC90700D0404201229207114394
:10239000D6E701218907D3E7F0B58B4C0F09254615
:1023A00089B0BD437BD01D092646AE43FAD00E4608
:1023B0005E402740F60F3E43254071D02401214264
:1023C000FBD0FF24AD19A4042D1B039501252D0579
:1023D000DB02DB0AC9022B43C90A29431E0109019A
:1023E000040F130F050121431701880B820391434A
:1023F0002D098C46A90B1E438A039543B30B9A0300
:1024000096433F09BA0B9403A74302962E467E4398
:102410000497B6464E19D7190C46019654430597B2
:102420007E43371B7646BF1B3601B646BE0B3619B8
:1024300000967646BC043719009C01D3641C0094B6
:102440006400002F01D001263443029E049F75438F
:1024500066467E430496760034196E003419009463
:10246000029C019E1C196643751BAE460694654688
:102470004519059C05956C43594375460891691AA1
:102480000191049E01465143A41B0491611A009CD2
:102490000791E10605D061090122114302E072E0D3
:1024A0006EE06109089D00272C0A2D066918049D1D
:1024B0007C412A0A2D066918019D6241AC0DAD02CE
:1024C0006D185441079A910D920255196141029A73
:1024D000644658435443069B059A5A43121A131BE9
:1024E0009A0E9B015B187A41010B0005C3185141FC
:1024F000220A200644195A419A4200D2491C01205E
:102500004002814203D315230226F64302E014233E
:102510000326F6432020C51AA9401746AF40DA40EB
:102520000A4320460399D840091473181905511815
:10253000039A3843D2075140AC4009D0012294405D
:1025400006D30022401C5141002C01D1400840001C
:102550001E4A934212D3012203989206904207DB4F
:102560000520400709181A480143C012414004E001
:10257000032040070818C10FC907002009B0F0BDAB
:102580000020F107FAE705180C464C4111486D424E
:10259000A04115D394181A465A410E4864429041FE
:1025A0000ED301204A004005824209D35A008242DC
:1025B00006D35940C90F084AC90700201143DDE777
:1025C00000200649DAE700000000FF07FE070000D0
:1025D000FFFFFF7F0000E0FF0000F07F0000F87FBA
:1025E000754600F025F8AE46050069465346C0081A
:1025F000C000854618B020B5FFF7CCF960BC0027B5
:102600004908B6460026C0C5C0C5C0C5C0C5C0C5BE
:10261000C0C5C0C5C0C5403D49008D46704710B516
:102620000446C046C0462046FFF787F910BD0000AB
:10263000004870478C23002001491820ABBEFEE7FC
:1026400026000200704770B58C180578401C6B0797
:102650005B0F01D10378401C2A1106D10278401C7F
:1026600003E00678401C0E70491C5B1EF9D12B0755
:1026700005D40023521E0DD40B70491CFAE70378D1
:10268000401CCB1A921C03E01D780D70491C5B1C8A
:10269000521EF9D5A142D8D3002070BD38B50546E9
:1026A0000C466B4602220B49284604F059FD0028CF
:1026B0000ED0FF200130854204D1074800898010E8
:1026C000208003E00448408980102080012038BD2C
:1026D0000020FCE7450100200C05002010B528482B
:1026E000007A02280CD1264B264A1121002004F042
:1026F000E7FD234B234A1121002004F0E1FD3EE0D9
:102700001F48007A012834D11D48407A002836D06D
:102710001B48C0790A2250431A4A8018811C0020A5
:1027200003F070FF00280BD001211548C0790A2260
:102730005043144A11540020114948720BF0F8FD1F
:102740000F48C0790A2250430E4A8018811C00208D
:1027500003F058FF002812D002210948C0790A224C
:102760005043084A11540020054948720BF0E0FD1F
:1027700005E00348007A002801D10CF0B5FA10BD3D
:10278000540C002048010020F0B585B0FE480078C8
:1027900003000EF0E5FE0616173F4DFA0416FB483F
:1027A0000078002801D005B0F0BDF948007840213C
:1027B00088434030F64908700120F34908700CF056
:1027C00021F8FDE3F3480078002800D0EBE7012072
:1027D0000CF096FD03900398012806D1EE4800788E
:1027E000202188432030EC490870EC49088803F028
:1027F00099FFEB498860EB4908790DF0E9FE0CF090
:10280000B5FC0220E3490870DF480078401CDE492F
:102810000870C8E7E0480078C007C00F002806D05D
:102820000CF094FCD8480078401CD7490870BAE7EF
:10283000D94800788007C00F002800D0B3E7D648F9
:1028400000784007C00F00287ED0D1480078C0072C
:10285000C00F002879D0D4480088401CD249088095
:10286000D2480078062803D0D04800780A2801D141
:10287000062500E00C25CC480088A8426CDCCC483A
:102880000188C9480088401E8000CA4A1152C348C6
:102890000188C5480088401E4000401C400011527D
:1028A000C2480078062803D0C04800780A2830D1F2
:1028B000C1480078032815D100240EE006212046E7
:1028C000FFF7A4F8491E4900BC4A6000401C4000C4
:1028D000B84B185A5052601CC4B2B34800888442A6
:1028E000ECDB36E000240FE006212046FFF78EF8EF
:1028F000491E4A00B1480C306100491C4900AD4BEB
:10290000595A8152601CC4B2A74800888442EBDB4C
:102910001FE0002415E006212046FFF777F80C2180
:102920004843A649471806212046FFF76FF8491E7D
:1029300049006000401C40009E4A105A7852601CBA
:10294000C4B29948008802E0AFE1A0E004E084420C
:10295000E1DB0BF085FBA8E1934805806800801E51
:102960004000944940180190ECB22646FF200290A6
:1029700000BF019801880298814203DA019800782B
:1029800002902646012C01DC06E005E2601EC4B27E
:102990000198001F0190ECE700BF8548018802986C
:1029A0008142D8DD00BFAE4200DD13E0701C800024
:1029B0008049085AB1007F4A5052701C4000401CA8
:1029C00040001146095A7000401C40001152701C12
:1029D000C6B2E8E700BF76480188681E8000754AE5
:1029E00011526E480188681E4000401C4000115280
:1029F0006E480078062803D06C4800780A282AD14F
:102A00006D480078032812D100240DE006212046ED
:102A1000FEF7FCFF4900694A6000401C4000654B1E
:102A2000185A5052601CC4B2AC42EFDB2CE00024B8
:102A30000EE006212046FEF7E9FF4A005F490C310F
:102A40006000401C40005B4B185A8852601CC4B2A6
:102A5000AC42EEDB18E0002414E006212046FEF72D
:102A6000D5FF0C2148435549471806212046FEF75B
:102A7000CDFF49006000401C40004E4A105A785279
:102A8000601CC4B2AC42E8DB0BF0EAFA0DE1474847
:102A90000078042807D14A480078022801D1062589
:102AA00002E00C2500E0122546480088401C4549FC
:102AB000088008460088A8424CDC3D48018841480F
:102AC0000088401E8000404A1152344801883D4829
:102AD0000088401E4000401C4000115233480078DE
:102AE000042818D136480078022814D100240DE0BB
:102AF00006212046FEF78AFF4A0034496000401C48
:102B00004000314B185A8852601CC4B22D480088CE
:102B10008442EDDB1BE0002415E006212046FEF791
:102B200075FF0C21484329491839471806212046CA
:102B3000FEF76CFF49006000401C4000224A105A1A
:102B40007852601CC4B21F4800888442E5DB0BF059
:102B500087FAAAE01B4805806800801E40001A49D9
:102B600040180190ECB22646FF20029000BF019869
:102B700001880298814203DA019800780290264683
:102B8000012C25DC2AE00000590400205C04002010
:102B9000710400205B040020720400204004002027
:102BA000D8200020182300203A040020DD00002057
:102BB000620400208A1C00203C0400202A1C002003
:102BC0003D04002038040020421C0020121C00207C
:102BD000601EC4B20198001F0190C8E700BFFE4804
:102BE00001880298814260DD00BFAE4200DD13E043
:102BF000B000FA49095A701E8000F84A115270005C
:102C0000401C40001146095A701E4000401C400004
:102C10001152701CC6B2E8E700BFEF480188681E79
:102C20008000EE4A1152EE480188681E4000401CA8
:102C300040001152EB480078042818D1EA48007887
:102C4000022814D100240DE006212046FEF7DEFE06
:102C50004A00E6486100491C4900E04B595A81523C
:102C6000601CC4B2E24800888442EDDB1BE0002413
:102C700015E006212046FEF7C9FE0C214843DB493A
:102C80001839471806212046FEF7C0FE49006000AB
:102C9000401C4000D14A105A7852601CC4B2D4483B
:102CA00000888442E5DB0BF0DBF9D2480088CC4990
:102CB0000988884203D00120CF4908706BE0CF48D3
:102CC0000078C007C00F00281FD1002401E0601C5D
:102CD000C4B2062CFBDBC348007804280CD1C248E0
:102CE0000078022808D1C648007800282CD0C048B7
:102CF0000078C349087027E0BD480088002823D029
:102D0000BB480078BF4908701EE0002401E0601C49
:102D1000C4B2062CFBDBB3480078062803D0B148C8
:102D200000780A2808D1B848007800280CD0B748A5
:102D30000078B549087007E0B4480088002803D03F
:102D4000B2480078B2490870B24800781021884330
:102D5000B0490870A948007840218843A749087005
:102D600003200DF02FFC0120AB4908700420A2497C
:102D70000870AA480078082805D1A9480078F721EA
:102D80000840A7490870A748007801210843A549D1
:102D900008700BF01FF806E59F480078002800D067
:102DA00001E590480078062803D08E4800780A286C
:102DB00028D197480078002803D19348007800284C
:102DC00020D088480078062803D0864800780A2852
:102DD0000AD18D480078002806D09348007893499E
:102DE00008708149087004E00320904908707E490A
:102DF000087001208E49087001217B4800780AF094
:102E000001F95BE17D480078C007C00F00283DD084
:102E10007F480078002839D00120854908700420B7
:102E2000714908700121704800780AF0EBF86C488D
:102E300001880091684640787D4909784901084336
:102E4000C1B2684641700088674909784900794AEB
:102E5000505264480078062803D0624800780A2857
:102E600006D171480078714908705F49087004E024
:102E700003206E4908705C49087001206C49087095
:102E80000121594800780AF0BDF817E15B48007845
:102E9000C007C00F002879D152480078042875D1A6
:102EA00057480078002803D15648007800286DD094
:102EB0004C480078042825D14B480078022821D1BD
:102EC0004F48007800281DD0012059490870022081
:102ED000454908700121444800780AF093F84048B9
:102EE00001880091684640785149097849010843B2
:102EF000C1B26846417000883B49097849004D4A93
:102F0000505227E037480078042823D1364800780B
:102F100002281FDA3B48007800281BD001204449D2
:102F200008703149087001212F4800780AF06AF8CA
:102F30002B4801880091684640783D49097849014D
:102F40000843C1B2684641700088274909784900A2
:102F5000384A505223480078042808D12248007883
:102F6000022804D1314908701F49087004E000208C
:102F70002E4908701C49087001202D490870012154
:102F8000194800780AF03EF898E0FFE71B480078FF
:102F9000C007C00F00287AD11A480078002876D0E0
:102FA00001202349087002200F49087001210E48B2
:102FB00000780AF027F80A4801880091684600E086
:102FC000B7E040781A49097849010843C1B2684618
:102FD0004170008804492FE062040020421C002058
:102FE00040040020DD0000203D040020121C0020D1
:102FF00038040020440400205904002071040020FB
:103000004B0400204A0400204D0400203A04002014
:103010004C040020720400205A04002058040020B0
:10302000E4000020E50000203E0400203C040020D5
:1030300048040020BA1C0020097849003E4A50523A
:1030400001203E49087001213C48007809F0DAFF70
:103050003B4801880091684640783A49097849011F
:103060000843C1B268464170008834490978490074
:10307000314A505234480078042809D12F4800784A
:10308000022805D1314908702C49087005E00DE08F
:1030900000202E490870294908700120294908702C
:1030A00001212648007809F0ADFF07E028480078A4
:1030B00026490870214908700BF022FA1F48007851
:1030C0002449887024480078C007C00F002812D116
:1030D0001D480078042808D11C480078022804D133
:1030E0001A4908701549087017E000201749087040
:1030F0001249087011E014480078062803D01248DD
:1031000000780A2804D1114800780C49087004E0BE
:1031100003200E4908700949087000F073FB002075
:103120000849087007200D49087001200C490870F3
:1031300031E600BF00BF2EE6BA1C00203D0400208F
:103140004004002048040020DD0000203C04002052
:103150003E040020D82000207104002058040020E4
:103160005904002010B541480078012804D00228F5
:1031700034D0032877D13FE03D480078002800D0C4
:1031800010BD3C48007809280ED101200CF0B8F899
:1031900004463949088803F0C5FA38498860384937
:1031A00008790DF015FA0EE001200CF037F804460E
:1031B0003149088803F0B6FA304988603049097906
:1031C00048420DF005FA0220294908702748007886
:1031D000401C264908700BF0C9FFD1E72948007848
:1031E000C007C00F002806D00BF0B0FF1F480078C2
:1031F000401C1E490870C3E7224800788007C00FB2
:1032000000282ED11F4800784007C00F002803D0A7
:1032100000201649087024E001201449087016485F
:1032200002881948018819A004F047FF1648008851
:1032300011490988884214D1124800784007C00F0C
:10324000002802D10BF05CF901E00BF08FFF122097
:1032500009F032F8134800780821884308301149F2
:1032600008708DE7FFE700BF8AE7000059040020DF
:103270005B0400205804002040040020D8200020D7
:103280001823002072040020440400200D0A206E40
:10329000657874207374617420203A25782C257821
:1032A000000000007104002000200D4988600D48D6
:1032B000C068491508430B49C8600846C0684915ED
:1032C00088430849C860002007498860C8600861D1
:1032D00048610448806949158843024988617047FC
:1032E0000024014000100240000002402C4989697E
:1032F0000122520211432A4A916111464969012271
:103300001143274A5161D104264A91607D20000172
:1033100000BF24498968C90FC907002903D00146A5
:10332000401E0029F5D11F49C9681F4A11431D4A93
:10333000D1601146C968012211431A4AD160114671
:10334000C96802221143174AD16051051161012158
:1033500051611146896A154A1143124A9162144912
:1033600089682D2252011143114A91600621D160D2
:103370000C49403111610F4951610A4989680122A4
:103380001143084A91601146896804221143054A95
:1033900091600749896801221143054A916070478D
:1033A00000100240002401400820000053410000AA
:1033B000000002400C050020F8B58D48007803009D
:1033C0000EF0CEF80504056C83E704000CE1894893
:1033D0000078002800D0F8BD00BF874887490978E9
:1033E000405C8749087008460078CC2803DC834895
:1033F0000078192818DB0BF0A3F8824988680DF0D3
:10340000F3F803207B4908700420794908707E484E
:10341000007800907A4801787C48037877480278F1
:103420007B4804F04AFED6E70020754948700888BA
:1034300003F022FA724908800846008871498968B9
:10344000884205D16D480078401C6C490870C4E77B
:1034500000BF00BF6A480188684802786DA004F088
:103460002CFE002407E06448025D214672A004F0AF
:1034700024FE601CC4B2072CF5DB60480078401CB9
:103480005E49087003205B49087000206C49087091
:1034900057480078401C56490870A5E05548007808
:1034A000002800D097E7564908880DF0C9F8002099
:1034B000634908706349087002204E4908704C48FF
:1034C0000078401C4A4908708EE04A48007800287D
:1034D00000D080E70DF072F85B48437B027B4038F8
:1034E000816C5AA004F0E9FD444800784749097806
:1034F00088420CDB0BF024F8424988680DF074F820
:1035000010203C49087004203949087040E04E48BA
:103510004038806CBA2830D94B484038816C5848C4
:103520000078401D814228D94748007B052824DACD
:10353000002054490870002506E0202052494855D3
:1035400052494855681CC5B2082DF6DB2C48008846
:103550002C4988602A4908880DF046F83E20254904
:10356000087004202249087037484038826C44486B
:10357000017847A004F0A1FD0AE001201C49087071
:1035800031484038826C3E4801784AA004F095FDED
:103590002AE018480078002800D01CE71948826803
:1035A000374801784DA004F088FD002013490870C9
:1035B00024490870224908703A20524908709C201A
:1035C000514908700F4988680DF066F80D4909895E
:1035D00088B203F0E9F800200AF018FE0AF040FD76
:1035E00000200349087000BF00BF00BFF3E60000E1
:1035F0007F0400205B040020C61C0020D7040020AC
:10360000EC040020D82000209F040020A00400200B
:103610004C4901080D0A204166206A756D703A52C6
:103620006164667265203D25642C63526473416653
:103630004465743D25640000202025782D25780000
:103640002F0400207C040020182300200D0A2041B4
:1036500066206A756D70206E657720737461743AA8
:103660006C6576203D2025642C6D756C7469706CDA
:1036700065203D2025642C61646A203D202564007E
:10368000D90400208D040020B5040020BD040020D2
:103690000D0A20414620737769746368204F4B3AC6
:1036A00072437572537461536967203D2025642C01
:1036B000256400000D0A2041462073776974636811
:1036C000206E6578743A72437572537461536967FA
:1036D000203D2025642C2564000000000D0A207385
:1036E000776974636820656E643A724375725374C7
:1036F00061536967203D2025642C667265203D205A
:1037000025640000AD040020AF0400201EB5024671
:103710000C46002305E010786946C854521C581C1A
:10372000C3B2A342F7DB68460078032807D1684696
:103730004078012803D16846807A302802D00DF005
:1037400005FD1EBD6846807830210840102802D152
:103750000120094908706846807830210840002817
:1037600004D0684680780840302802D10020024901
:10377000087000BFE5E70000B402002000210B4AFA
:1037800011800B4A11800B4A11700B4A11800B4AB1
:103790001180002004E00021094A1154411C88B224
:1037A000012149028842F6DB704700003201002007
:1037B0003401002036010020380100203A010020A9
:1037C00055070020F0B503460A46002413E01946C9
:1037D00000260AE008784F78B84203DD0D78487873
:1037E00008704D70491C701CC6B2101B401EB042C0
:1037F000F0DC601CC4B2501EA042E8DC5510585DDD
:10380000F0BD00000448008804490880044800789E
:10381000044908707047000040040020460400205E
:10382000480400204E04002010B50D480D49C86022
:103830000020C8600C480861002008610846406903
:103840000A4908430749486103F05AF80CF0ECFABA
:10385000FFF74CFD04F0B2FB00F00AF810BD0000C9
:10386000015A0700001002401349620201001E00C5
:1038700010B5E121490201200BF0D2FDE1214902FE
:1038800002200BF0CDFDE121490204200BF0C8FD20
:1038900010BD000010B501235B02CA1A994242D044
:1038A00010DC202930D006DC012924D0042925D0C1
:1038B000082948D125E0402929D0CA1FF93A002A11
:1038C00041D12DE03F246402131BA24236D009DC13
:1038D000FF3AFF3A023A002A28D001239B02D21A6B
:1038E00031D126E00122D2039A1A13D001231B04FE
:1038F000D21A28D111E0154A826025E00822C26060
:1039000022E01022C2601FE0082202611CE01022A7
:10391000026119E00822426016E01022426013E0C2
:103920000422426010E0042242600DE00422426062
:103930000AE0002282610422426005E000228261E6
:103940000422426000E000BF00BF10BD0101010081
:1039500010B50C010346FF33B1331B590424234037
:103960001372137A002B07D10C010346FF33B133D6
:103970001B595B0D136006E00C010346FF33B133A6
:103980001B59DB0853600C010346FF33B1331B594D
:103990000224234053720C010346FF33B133E31872
:1039A0005B681B071B0F93720C010346FF33B13397
:1039B000E3185B681B041B0ED3740C010346FF3332
:1039C000B133E3189B68D3720C010346FF33B13364
:1039D000E3189B681B041C0E14730C010346FF3391
:1039E000B133E3189B681B021C0E54730C01034691
:1039F000FF33B133E3189B681B0E93730C0103462E
:103A0000FF33B133E318DB68D3730C010346FF3394
:103A1000B133E318DB681B041C0E14740C0103465D
:103A2000FF33B133E318DB681B021C0E54740C0126
:103A30000346FF33B133E318DB681B0E9374002990
:103A400004D1C36820242343C36003E00369202416
:103A50002343036110BD30B5024600209368012462
:103A6000A4062340A34200D110E093680124E40699
:103A70002340A34201D1012008E0936801242407D8
:103A80002340A34201D1022000E0042004287BD07F
:103A900004011346FF3381331B59DC07E40F050192
:103AA0001346FF3381335C510B7A002B0FD10B8807
:103AB0005B054C7A234305011446FF348134645975
:103AC000234305011446FF348134635110E04B68F1
:103AD000DB000C7A23434C7A234305011446FF3460
:103AE00081346459234305011446FF348134635102
:103AF0008B7A1B071B0F8B7204011346FF33813334
:103B0000E3185B681C09240105011346FF33813368
:103B1000EB185C6004011346FF338133E3185B68E4
:103B20008C7A234305011446FF3481342C196360D9
:103B30008B7B1B064C7B240423430C7B24022343F6
:103B4000CC7A234305011446FF3481342C19A36039
:103B50008B7C1B064C7C240423430C7C24022343D3
:103B6000CC7B234305011446FF3481342C19E360D8
:103B700004011346FF3381331B59012423430501FC
:103B80001446FF348134635130BD000000B58BB062
:103B9000142106A8FDF72EFF06AA00211148FFF701
:103BA000D7FE079802900698019008A88178684689
:103BB000817308A801786846017308A841786846AF
:103BC0004173082208A903310F300DF0DBFD01A974
:103BD000002000F021F802210248FFF75BFE0BB045
:103BE00000BD000000640040FFB581B004460D46F2
:103BF0001646E00007494018A9004758002F06D094
:103C000031463846049A05F039FC05B0F0BD002075
:103C1000FBE70000D017010870B505460C460123EC
:103C2000224600212846FFF7DFFF70BD002007492C
:103C30000870074800780421884305490870084641
:103C40000078022188430249087070476B04002005
:103C50007204002000200B4908700B4800780421F2
:103C60008843094908700948007804218843001DE9
:103C70000649087008460078022188430349087005
:103C8000704700006B0400208304002072040020B1
:103C900010B5834800788007C00F002800D110BD00
:103CA0008048007803000DF05BFC090622EDEDED85
:103CB0002AED6E97ED007A48007804218843784910
:103CC000087001207849087076480078401C7549D2
:103CD00008700020754908707148007808218843F1
:103CE00008306F490870052071490870D7E770489F
:103CF0000078002800D0D2E70DF074FA00BF6A48BF
:103D00000078032838D16B480078082806D16A4823
:103D10000078022802D0FFF79DFF33E06748007863
:103D2000C007C00F002824D1654800784007400F25
:103D300000281ED063480078C007C00F002818D1A3
:103D4000614800784007C00F002806D15A48007823
:103D5000002802D1FFF77EFFA1E705F0BBFD0020A0
:103D60005A49087007204F490870FA2058490870CE
:103D700008E0FFF76FFF05E04B480078002801D10D
:103D8000FFF754FF88E05148007801281DDD4E48B8
:103D900000784007C00F002803D02C204C49087041
:103DA0000CE0474800788007C00F002803D17D2031
:103DB0004749087002E0F420454908700820394955
:103DC000087000204149087005E04148007800284B
:103DD00001D1FFF72BFF5FE03D480078002802D1BA
:103DE000FFF724FF4DE039480078012849DD3648C7
:103DF00000784007C00F00281BD031480078C0066B
:103E0000C00F002812D033480088334909888842FF
:103E100005D03248008830490988884208D12E48A8
:103E20000088002804D0FFF715FF01E0FFF712FF1C
:103E300035E7234800784007C00F00280CD02848F9
:103E40000078042808D12748007827490978884253
:103E500001D1FFF7FFFE22E7194800788007C00F65
:103E600000280CD0214800780007C00F002806D198
:103E70001E480078C006C00F002800D10FE7FFF7EA
:103E8000E9FE0CE700200749087005480078022188
:103E900088430349087000BF00BF00BFFFE6000071
:103EA000720400206B0400202E0400202F04002048
:103EB0005B040020580400207D04002074040020CE
:103EC000810400207104002083040020900400205D
:103ED0005E040020C8040020C6040020CA0400209C
:103EE0003E010020E1040020DB040020B10400209A
:103EF00010B5FFF7D9F902F06FFB04F057F80BF09B
:103F00007DFF03F0F7F80DF0B3F80CF0ADFF0CF007
:103F100039FF2B484069400840002949486100208A
:103F20002849086028488069C904084326498861EF
:103F30000846806909040843234988610846806966
:103F400009030843204988610BF04CFB1C48C069F9
:103F5000FF21013108431A49C8611A48006801214C
:103F6000C90408431749086008460321090240189C
:103F700000690002000A134903221202891808612D
:103F80001048114640180069890408430D498918F2
:103F900008610E480E49C86200200D492031088191
:103FA0000B494862084680890121084308498881F5
:103FB00008460088012108430549088010BD00001B
:103FC0000010024000E100E00004004850C300007F
:103FD0000020004070B50446257A0A2200212046C0
:103FE0000DF0DEFB257270BD00200C4908700C49F5
:103FF00008700C4908700C4908700C4908700C498D
:1040000008700C4908700C49487008700B4908701A
:1040100048700B4908700B49087070477F040020F6
:10402000800400207D0400208404002083040020FC
:104030008204002081040020C6040020C80400205F
:104040008E040020B004002010B5D2480078030090
:104050000DF086FA0A06074590C6FEF8F7F6F5F762
:1040600095E1CC480089002800D090E1CA4800784A
:10407000002805D10520C74908700020088186E185
:10408000C6480078002800D181E10BF0F7FBC8207A
:104090000BF0B6F9C2480068032189068843C0497D
:1040A000086008460068C9030843BD49086008461F
:1040B0008069012149030843B9498861FFF7D8FBAA
:1040C0000CF00AFFB3484178B6A003F0F6FF502089
:1040D000B0490881022008700020487157E100F0C3
:1040E0000FFA00F04DFA00F0BBF9AA4880780028DA
:1040F00003D00320A749087049E1A64800790028A9
:104100001CD0A5480078002803D0A44800780028D7
:1041100007D1A8488069012189070843A54988611A
:104120000CE0A54800784007C00F002806D0A14841
:1041300080690121890308439E4988619548008967
:10414000002807D194480078002803D193480078CC
:10415000002803D19148007800280AD18F480078C0
:10416000002803D101208B49087002E0052089490D
:1041700008700CE188480078002803D08748007850
:1041800000282CD18B48806901218907084389497F
:1041900088618948007840084000874908700420F9
:1041A0007C4908701420088184480078002805D0D4
:1041B000834800780A21484376490881814800787D
:1041C000002803D1FF202D307249088171484178C1
:1041D0007DA003F072FF03F01FFC09F0FDF9D6E0AB
:1041E0006D480078002811D06C48007800280DD068
:1041F00009F0F2F9C82003F03DFC0320654908707E
:104200000846417874A003F058FFC0E06148008977
:1042100000281CD167488069012189070843654946
:1042200088615C484078022801D10BF093FB142090
:1042300058490881052008700846417804E07FE06D
:1042400052E09EE022E003E068A003F036FF9EE02B
:104250005C480078002803D04E480089002814D11B
:1042600054488069012189070843524988610BF04D
:104270007FFA64200BF0C4F84648417861A003F04F
:104280001CFF06204349087081E080E003F080F9BC
:104290000FE061480078002804D004F0D9FD002028
:1042A0005D4908703E48008A20210840002800D15E
:1042B00000E0EEE700BF012080F3108800BF00207F
:1042C0005649087003F0A8FB10200BF099F80AF08B
:1042D000D1F8002080F3108800BF2E4948710820D3
:1042E00008810120087052E0324880690121890765
:1042F00008433049886103F08FFB28480078002884
:1043000008D06420234908810920087044A003F0E4
:10431000D4FE14E046A003F0D0FE27480078400801
:104320004000254908701E201A490881022043498F
:10433000087000204249087001201649087026E0E4
:1043400014480089002800D021E014480078002893
:1043500008D03CA003F0B1FE14200E4908810220D1
:1043600008700DE03BA003F0A8FE0220334908705E
:104370000020334908701420064908810120087084
:1043800005E00820034908810120087000BF00BF34
:1043900010BD000026050020EC000020F9000020E0
:1043A000000800480D0A2041636320737461727431
:1043B0003A25640000040048DB000020DE000020F5
:1043C000DF000020E90000200D0A20416363206423
:1043D0006E3A2564000000000D0A20416363206FDF
:1043E0006E20646C793A2564200000000D0A20419B
:1043F000636320736C65657020646C793A25642072
:10440000000000000D0A2041636320736C65657035
:104410003A2564200000000001010020DA0000209D
:104420000D0A204C6F7720737461727400000000D5
:104430000D0A205265736574000000003D010020E4
:10444000E00000200D0A20416363207374617274E0
:10445000000000000D0A2041636320776169740049
:1044600030B58BB022488078002801D00BB030BD29
:104470001F480079002800D1F8E71E48007800287E
:1044800034D01D480078C006C00F00282ED11B482C
:10449000008800282AD019480088401E1749088043
:1044A0000024002502222146641C01A842549020C9
:1044B00001A908552146641C01A8405C45400F2015
:1044C00001A908552146641C01A8405C4540002014
:1044D00001A908552146641C01A8405C45402146BD
:1044E000641C01A8455421460CF066FD00BFBDE7E1
:1044F00026050020FF000020DB000020E200002055
:1045000010B51A488078002800D010BD18480078EF
:10451000002829D01748007800280ED016480078C7
:10452000C009002809D11448007820218843203090
:1045300011490870012009F0C9FA0E4800780028D6
:1045400003D00E48007800280ED10B4800784006B2
:10455000C00F002808D1084800788006C00F002846
:1045600002D0022009F0B2FA00BFCEE726050020F3
:10457000FF000020EF000020DB000020EC00002006
:1045800010B50C488078002800D010BD094800798B
:10459000002800D1F9E708480078002808D007482B
:1045A00000784007C00F002802D1012009F09CF8D4
:1045B00000BFEAE726050020FF000020DB00002006
:1045C0000020094988700871C870142008810120F2
:1045D0000870022048700020487104490870322099
:1045E000034908807047000026050020E0000020F5
:1045F000E200002010B563480078002806D1624828
:104600004078042802D004205F4948705E48407812
:1046100003000CF0A5FF05041F587CA0B5005B4803
:104620000078C009002814D05848007880218843B9
:10463000564908700120564908701E205249488189
:1046400008464078401C48700846017851A003F0A5
:1046500034FD95E04C484089002833D15248007819
:10466000002808D00920C00680690121C903084339
:104670000921C90688614D480078002809D04C48B6
:104680000078002805D04B48806904210843494937
:1046900088610020484908703B484078401C3A49EE
:1046A0004870444880690121890308434149886171
:1046B000142003F0DFF909F0CDFA334801783FA068
:1046C00003F0FBFC5CE031480078C00900281DD0F5
:1046D0002E480078802188432C49087000202C49FE
:1046E000087034488069012189070843314988618D
:1046F00003F092F91E202449488108464078401C66
:1047000048700846017831A003F0D7FC38E01E4815
:10471000408900281ED10920C00680690121C907EF
:1047200008430921C906886122488069012189045A
:1047300008432049886101201F4908700020124960
:1047400048700AF05BFC09F085FA0F48017824A054
:1047500003F0B3FC14E00C48007803280FD10A489A
:10476000417823A003F0A9FC09480078002803D071
:1047700001200549487002E000200349487000BF4D
:1047800000BF10BDEC00002026050020DC0000204A
:10479000400100200D0A20507772206F6E20646C5B
:1047A000793A2564200000000C0100200D01002052
:1047B0003F010020000400481D0100200D0A205088
:1047C0007772206F6E3A2564200000000D0A205099
:1047D000777220646E20646C793A256420000000B2
:1047E0000D0A20507772206F66663A25642000001B
:1047F0000D0A20507772206F6E20616363206F6E08
:104800003A256420000000000C480078002800D100
:1048100070470B480089002804D009480089401ED1
:104820000749088106484089002804D00448408987
:10483000401E0349488100BFEAE70000FE00002057
:104840002605002015480078002800D1704714483C
:10485000008A0821084000280FD000201149087064
:1048600011480078401C10490870084600786428F8
:1048700012DD00200D4908700EE000200A49087082
:1048800008480078401C074908700846007802284C
:1048900002DD01200549087000BFD7E7FE000020B7
:1048A00000080048E7000020E8000020E9000020A0
:1048B00015480078002800D170471448008A20214C
:1048C000084000280ED11249087012480078401C98
:1048D0001049087008460078022812DD01200E49B0
:1048E00008700EE000200B49087009480078401C51
:1048F0000749087008460078142802DD00200649A0
:10490000087000BFD8E70000FE0000200008004843
:10491000EA000020EB000020EC000020284800788E
:10492000002800D170472748008A4021084000280D
:1049300003D025480078002820D0002023490870A3
:1049400023480078401C2249087008460078142843
:1049500034DD20480078002830D101201D4908703E
:104960001D480078802188431B49087015488069DC
:10497000012149020843134988611FE000201449BE
:10498000087012480078401C1049087008460078EA
:104990001E2813DD0F48007800280FD000200D4995
:1049A00008700D480078402188430B49087005487D
:1049B00080690121490608430249886100BFB1E7C7
:1049C000FE00002000080048B4020020EE00002095
:1049D000ED000020EF000020DB00002010B53F4874
:1049E0000078002800D110BD3D48C0888005040E25
:1049F000312C27DA3B48808A08210840002808D05B
:104A000003F00AF8374880690121890708433549CE
:104A1000886135480078400840003349087002201A
:104A200032490870082032490870FFF7C9FD00209C
:104A3000304908702A48C2882D4801782EA003F01A
:104A40003CFB49E0382C20DA2648808A08210840BF
:104A5000002808D002F0E0FF224880690121890780
:104A60000843204988612048007840084000401CE5
:104A70001D49087001201F4908701948C2881C4848
:104A8000017822A003F019FB26E06B2C09DD164803
:104A9000007840084000144908700020154908704B
:104AA0001AE03A2C18DD0120124908700E480078EF
:104AB000C007C00F00280FD00A4880690121890370
:104AC000084308498861C82002F0D4FF06480078EE
:104AD000400840000449087000BF84E7040100203A
:104AE0000C05002000040048DB0000203D010020F0
:104AF00026050020F90000200D0A20426174204C98
:104B00006F773A25642C2564000000000D0A2042CE
:104B10006174206F6E3A25642C2564001948007872
:104B2000002800D170471848008A01210903084075
:104B3000002812D11549087015480078401C144906
:104B400008700846007814281ADD124800780028FA
:104B500016D101200F49087012E000200C4908709E
:104B60000A480078401C09490870084600781E2849
:104B700006DD08480078002802D0002005490870AA
:104B800000BFCFE7FE00002000080048F100002031
:104B9000F0000020F200002019480078002800D121
:104BA00070471848008A80210840002812D1164911
:104BB000087016480078401C1449087008460078B0
:104BC00014281ADD12480078002816D10120104957
:104BD000087012E000200D4908700B480078401C56
:104BE00009490870084600781E2806DD0848007844
:104BF000002802D000200649087000BFD0E700005E
:104C0000FE00002000080048F4000020F30000200F
:104C1000F500002000201549087015490870154955
:104C2000087015490870154908701549087015492C
:104C3000087015490870154908701549087015491C
:104C4000087015490870154908701549087015490C
:104C500008700E480078144908701248007813490B
:104C600008700D480078124908707047E70000206E
:104C7000E8000020E9000020EA000020EB0000200E
:104C8000EC000020ED000020EE000020EF000020EE
:104C9000F0000020F1000020F2000020F3000020CE
:104CA000F4000020F5000020F6000020F7000020AE
:104CB000F800002010B5FFF7FBFDFFF7C3FDFFF77D
:104CC0008DFE01F06DFF00280BD00648808A202160
:104CD0000840002805D0FFF721FEFFF71FFFFFF770
:104CE0005BFF10BD000400480EB51049104800F0ED
:104CF0002BFF684600F0DAF8002168460171202099
:104D000000900C21684641710021817100F08AF801
:104D100007216846017200214172817202A802F0E7
:104D2000E7FE202000F06AF80EBD000000030C0C26
:104D30000340010000B500201749087017490870AA
:104D40000AF00CFE002205E000205100144B5852DE
:104D5000501CC2B2062AF7DB124813490880012012
:104D60008870C8700C20087100204871887102207A
:104D70000E49087001200E49087000200D49088076
:104D80000D4908700D4908700D4908700D490870EB
:104D900001200D49087000BDFC000020FD0000202E
:104DA0000C050020E30700000E0100201601002082
:104DB00006010020080100200A0100200B0100204C
:104DC0000D0100200C0100204001002010B5022040
:104DD00000F01AF8002804D008F0AEF9022000F024
:104DE0000DF810BD10B5202000F00EF8002804D0FA
:104DF00006F0AEFA202000F001F810BD014948612C
:104E0000704700000004014001460020044A526936
:104E10000A40002A01D0012000E000207047000075
:104E200000040140002120498279002A35D00A4639
:104E3000126803689A430B461A600A465268036870
:104E40009A430B465A60027951180A6803681A435C
:104E50000A60154A926803689A43134B9A601A468F
:104E6000D26803689A43104BDA604279102A0CD159
:104E70001A46926803681A430B4B9A601A46D26826
:104E800003681A43084BDA600DE00749427951186C
:104E90000A6803681A430A6005E0027951180A6833
:104EA00003689A430A6070470004014000210160D2
:104EB00001710C21417100218171704770B500248E
:104EC0002AE01848055D01F091FFC22001F022FFA1
:104ED000144A611C515CC907C90F0846E03001F053
:104EE00019FF104AA11C505C01F014FF0D4AE11C8F
:104EF000505C01F00FFF261D04E00A49885D01F0B7
:104F000009FF761CA8000019001DB042F5D801F079
:104F100093FFA8000019041D0248005DFF28D0D1AE
:104F200070BD0000F421010870B504460725FF207C
:104F300000042040000C0749C870FF2000022040F8
:104F4000000A08714C7101221146284600F04EFEFD
:104F500070BD00002A23002070B504460F25FF20F5
:104F600000042040000C0749C870FF2000022040C8
:104F7000000A08714C7101221146284600F036FEE5
:104F800070BD00002A23002070B504461025FF20C4
:104F900000042040000C0749C870FF200002204098
:104FA000000A08714C7101221146284600F01EFECD
:104FB00070BD00002A230020F8B507460C461546B0
:104FC0001E462320009000202249C8700871084620
:104FD0004771FF2000042040000C8871FF20000270
:104FE0002040000AC8710C72FF2000042840000C09
:104FF0004872FF2000022840000A8872CD72FF200C
:1050000000043040000C0873FF2000023040000A0A
:1050100048738E7301220421009800F0E7FDFA2006
:105020000D49087000BF0A200AF0EAF900F034FACE
:1050300008485238C06FC004C00F002803D006488B
:1050400000780028EFD104480078002801D107F04B
:1050500099F9F8BD2A2300205D04002070B50446AC
:105060002425FF2000042040000C1449C870FF20B4
:1050700000022040000A08714C71012211462846A6
:1050800000F0B4FDFA200E49087000BF0A200AF0B3
:10509000B7F900F001FA09485238C06FC004C00FD8
:1050A000002803D0064800780028EFD10448007893
:1050B000002801D107F066F970BD00002A23002006
:1050C0005D04002070B50446202500200549C87005
:1050D00008710846447101221146284600F086FDF9
:1050E00070BD00002A23002010B5132404220021E3
:1050F000204600F07BFD0948417A523881645230E5
:10510000C07A0649123988730448817912380173CC
:105110001230C1791238417310BD00002A230020DB
:1051200070B504460D460D20400384421BD31B4836
:10513000844218D81E26FF2000042040000C184985
:10514000C870FF2000022040000A08714C71002046
:105150008871C87108460572681CC2B202213046C7
:1051600000F044FD18E00026FF2000042040000C61
:105170000B49C870FF2000022040000A08714C71E2
:1051800000208871C871084605726800401CC2B2D0
:105190000221304600F02AFD70BD0000FFBF010073
:1051A0002A230020F0B597B000240020149013901B
:1051B00012900A2615908BE0182016900020AC491A
:1051C000C8700871701E1599884203D10120A84942
:1051D000487102E00020A649487106220121169874
:1051E00000F004FDA248017B523881645230807B7C
:1051F0009F49123988739E48407A08739C48807A88
:1052000048739B4880790004FF2109040840054643
:105210009748C07900020912084005439448007A73
:1052200005439448281A9449884209D99148281A74
:105230009249884204D28F48281A9149C8602EE0CA
:105240000A212846FCF7D8FB8E49884206D90A2154
:105250002846FCF7D1FB8A49C86020E00521284692
:10526000FCF7CAFBAD21C90040188649884214D218
:1052700005212846FCF7C0FBAD21C9004018732169
:105280000901884209D905212846FCF7B5FBAD2163
:10529000C90040187A49C86001E07948C56074487F
:1052A0005238806C041972481238817B149808189F
:1052B00014906F481238017B1398081813906C48AB
:1052C0001238417B1298081812901598401C1590BE
:1052D0001598B04200D26FE731462046FCF78CFBB0
:1052E000044631461398FCF787FB13903146129819
:1052F000FCF782FB1290CD2C02D21298C7B24CE080
:10530000D72C0ED91298FDF744F85F4A5F4B0F91E6
:105310000E90FDF741F811911090FCF7EDFFC7B228
:105320003BE01298FDF735F8574A584B0B910A901D
:10533000FDF732F80F910E90D721081BFDF729F8E1
:10534000099108901298FDF724F84F4A4F4B0191AC
:105350000090FDF721F8059104901298FDF719F8D7
:1053600003910290059B049AFCF77FFD079106903C
:10537000099B089AFDF710F80022454B0B910A9003
:10538000FCF796FD0D910C900F9B0E9AFCF760FDBB
:1053900011911090FCF7B0FFC7B23948807803280C
:1053A00019DA3C4800784007C00F002801D1BB2C17
:1053B00007D2384800784007C00F00280BD0D52C02
:1053C00009D32D2F07DC1398052804D80620704335
:1053D0001499884217D22A48807803281DDB2D486B
:1053E00000784007C00F002801D1AA2C07D2294815
:1053F00000784007C00F00280FD0C42C0DD3310116
:105400001498814209D91A485238C06F0221884342
:10541000801C17495239C86707E015485238C06FD9
:105420000221884312495239C86715480069144956
:10543000C968884209D10E485238C06F0421884398
:10544000001D0B495239C86707E009485238C06F40
:105450000421884306495239C86705485238C06F4D
:1054600010218843103002495239C86717B0F0BD87
:105470002A230020A08601005CF3000088F40000CD
:10548000D820002032190000333333333333E33F65
:10549000000024407104002010B5112402220021D4
:1054A000204600F0A3FB274840794021084000280F
:1054B00009D024485238C06F090188434118214857
:1054C0005238C16708E01F485238C06F0121890275
:1054D00088431C495239C8671A480079C007C00F71
:1054E00000280AD017485238C06F01214903884369
:1054F000411814485238C16708E012485238C06F4A
:105500000121490388430F495239C8670D48C078C3
:10551000C007C00F00280AD00A485238C06F0121C6
:1055200009038843411807485238C16708E0054815
:105530005238C06F01210903884302495239C867B4
:1055400010BD00002A23002070B504462525002048
:105550002149C870087108464471002C2CD10222E0
:105560000121284600F042FB1B48C1785238816473
:1055700052300079184912398873174880790873B6
:105580001548C07948731448407901280AD1084663
:105590004038C06FFF210131884340180E4952390D
:1055A000C86717E00C485238C06FFF2101318843AB
:1055B00009495239C8670DE002220121284600F04E
:1055C00015FB0548C1785238816452300079024990
:1055D0001239887370BD00002A23002070B504467C
:1055E000172500200549C8700871A007800F487171
:1055F00001221146284600F0F9FA70BD2A23002046
:10560000F8B507460D46164609200090002E05D134
:1056100001220021009800F0E9FAB8E000205C497E
:10562000C8700871084645710F2D26D1002F0AD188
:105630005848807F88715748C07FC87155482030CE
:10564000007808729DE0022F0BD15348807F5049AB
:1056500088715148C07FC8714F4820300078087267
:105660008FE04E48807F4A4988714C48C07FC8719E
:105670004A4820300078087283E0002F2AD10024A5
:1056800025E0680028186100611840184149095C4C
:1056900060002018801D3E4A1154680028186100DF
:1056A00061184018401C3B49095C60002018C01D6F
:1056B000115468002818610061184018801C354991
:1056C000095C6000201808301154601CC4B2B44258
:1056D000D7DB56E0022F2AD1002425E068002818E5
:1056E0006100611840182C49095C60002018801D79
:1056F000274A115468002818610061184018401C9E
:105700002549095C60002018C01D11546800281844
:10571000610061184018801C1F49095C6000201856
:1057200008301154601CC4B2B442D7DB29E0002415
:1057300025E0680028186100611840181749095CC5
:1057400060002018801D124A11546800281861005A
:1057500061184018401C1149095C60002018C01DE8
:10576000115468002818610061184018801C0B490A
:10577000095C6000201808301154601CC4B2B442A7
:10578000D7DB701CC1B20122009800F02FFAF8BDDF
:105790002A230020D0470108F147010812480108D8
:1057A000F8B504460D4616461F4614200090FF200B
:1057B00000042040000C3749C870FF200002204040
:1057C000000A08714C71FF2000042840000C887109
:1057D000FF2000022840000AC8710D72FF2000045B
:1057E0003040000C4872FF2000023040000A8872EE
:1057F000CE72FF2000043840000C0873FF20000226
:105800003840000A48738F73FF2109040698084046
:10581000000C2049C873FF21090206980840000ABD
:105820001C49087406984874FF2109040798084029
:10583000000C18498874FF21090207980840000AE3
:105840001449C87407980875FF210904089808408E
:10585000000C10494875FF21090208980840000A09
:105860000C4988750898C875FF21090409980840F3
:10587000000C08490876FF21090209980840000A2F
:10588000044948760998887601220821009800F09A
:10589000ADF9F8BD2A23002070B504461525FF2078
:1058A0000004204000140749C870FF200002204077
:1058B000001208714C7101221146284600F096F939
:1058C00070BD00002A23002070B504462225002068
:1058D0001249C870087108464471012211462846D1
:1058E00000F084F9FA200E49087000BF0A2009F080
:1058F00087FDFFF7D1FD09485238C06FC004C00FC3
:10590000002803D0064800780028EFD1044800782A
:10591000002801D106F036FD70BD00002A230020CA
:105920005D040020F0B587B00546FDE028780590BD
:10593000069068780490A8780390E8780290002098
:1059400000906F783F02A87807433F02E87807434A
:105950007848874206D907208003874205D37648D6
:10596000874202D80320019012E00D2040038742B5
:1059700005D37248874202D81F20019008E01B20FF
:105980000003874204D36E48874201D81F2001904C
:105990000198032844D100243AE06A490498C87069
:1059A0000398087102984871A100281D405C654960
:1059B0008871A100681D405C6249C871A100A81DE2
:1059C000405C604908720846C07948720846007A0F
:1059D0008872A100E81D405C5A49C8720122032167
:1059E000019800F003F9049E36020398064336023C
:1059F00002980643761CFF2000043040000C0490FF
:105A0000FF2000023040000A0390F0B20290641CB4
:105A100006988442C1D305988000001D2D1883E0AC
:105A200001981F28FBD148E046490498C8700398A4
:105A300008710298487100241CE0A100281D091873
:105A40000098095C60002018801D3E4A1154A10096
:105A5000681D09180098095C60002018C01D1154C9
:105A6000A100A81D09180098095C600020180830E2
:105A70001154641C072CE0D301220821019800F086
:105A8000B5F8049E36020398064336020298064390
:105A9000F61DFF2000043040000C0490FF2000029F
:105AA0003040000A0390F0B2029000981C30C0B25F
:105AB00000900698C01FC0B2069006980728B3DC75
:105AC00020490498C870039808710298487100240E
:105AD0001CE0A100281D09180098095C600020182E
:105AE000801D184A1154A100681D09180098095C0E
:105AF00060002018C01D1154A100A81D09180098AD
:105B0000095C6000201808301154641C0698844217
:105B1000DFD30698401CC1B20122019800F066F85C
:105B200005988000001D2D182878FF2800D0FDE67C
:105B300007B0F0BDFF9F0100FFFF0100FFAF0100B4
:105B4000FFBF01002A23002070B504460D460D203A
:105B50004003844220D3234884421DD81F26FF20BF
:105B600000042040000C2049C870FF2000022040A3
:105B7000000A08714C71FF2000042840000C887155
:105B8000FF2000022840000AC8710D720122022184
:105B9000304600F02BF824E00326FF2000042040CC
:105BA000000C1149C870FF2000022040000A087153
:105BB0004C71280E8871FF2000042840000CC87129
:105BC000FF2000022840000A08720846C079487287
:105BD0000846007A8872CD7201220321304600F017
:105BE00005F870BDFFBF01002A23002070B50446F0
:105BF0000D46164601211348C173902011490F31FB
:105C0000487000208870F020204000110F398874FF
:105C10002007000E12314870681CC006C00E887044
:105C2000691CC8B20122032100F0E8F8012E07DB4D
:105C3000EB2004490F3188700321304600F004F84E
:105C400070BD000018230020F8B506460F46354603
:105C500001F0CCF8C22001F05DF8002F02D0032F34
:105C600038D138E06449C97BC807C00F01F052F849
:105C700061490F31487801F04DF85F490F3188785C
:105C800001F048F801F0D8F8042009F0A1FC01F077
:105C9000ADF8C32001F03EF8042009F099FC00F0B3
:105CA000FBFF5549887400F087FF00F0F5FF52496B
:105CB0001231487000F080FF00F0EEFF4E491231C3
:105CC000887000F079FF00F0E7FF4B491231C8708F
:105CD00000F0A2FF8CE04849C97BC907C90F0846FC
:105CE000703001F017F844490F31487801F012F88C
:105CF00041490F31887801F00DF801F09DF804203A
:105D000009F066FC01F072F8C32001F003F80420EA
:105D100009F05EFC681C002841D100F0BDFF364947
:105D2000887400F049FF00F0B7FF33491231487022
:105D300000F042FF00F0B0FF2F491231887000F0F0
:105D40003BFF2D4812308078C506ED0E012422E07D
:105D500000F0A2FF61006118274A1232505400F08F
:105D60002BFF00F099FF61006118491C224A123292
:105D7000505400F021FF00F08FFF61006118891C72
:105D80001D4A12325054AC4202D100F045FF01E0EE
:105D900000F012FF641C681C8442D9D327E0002461
:105DA00023E000F079FF61006118134A1232505469
:105DB00000F002FF00F070FF61006118491C0E4AFC
:105DC0001232505400F0F8FE00F066FF61006118D6
:105DD000891C094A12325054681EA04202D100F0B8
:105DE0001BFF01E000F0E8FE641CAC42D9D300BF09
:105DF00000BF01F021F8F8BD18230020F7B583B0EB
:105E000007461646002000900190029000F0EEFF39
:105E1000C22000F07FFF0498002802D0032825D17B
:105E200025E04F49C97BC907C90F0846803000F0FB
:105E300071FF4B490F31487800F06CFF48490F3132
:105E4000887800F067FF4649887C00F063FF44498A
:105E50001231487800F05EFF41491231887800F035
:105E600059FF3F491231C87800F054FF72E03C49B5
:105E7000C97BC907C90F0846F03000F04BFF38490D
:105E80000F31487800F046FF35490F31887800F02F
:105E900041FF00254DE069006918314A1232505C1B
:105EA00000F038FF69006918491C2D4A1232505C15
:105EB00000F030FF69006918891C294A1232505CD1
:105EC00000F028FF002E33D0022420E0A000694615
:105ED0000858690069180919214A1232515C4018A2
:105EE000A1006A465050A00069460858FF280DD905
:105EF000601E80000858401C611E89005050A000A0
:105F000069460858FF380138A1005050641E002C23
:105F1000DCD169006918124A1232515C00984018AD
:105F200000900098FF2803D90098FF3801380090AE
:105F30006D1CBD42AFD3002E0BD00099C8B200F04B
:105F4000E9FE0199C8B200F0E5FE0299C8B200F07E
:105F5000E1FE00BF00BF00F06FFF06B0F0BD000023
:105F600018230020FEB505460026002700200190DA
:105F70000090424880684249884222D93F48806860
:105F8000404988421DD200240BE00220FFF7DCFAD2
:105F90003D48806C86193C484030807BC719601CA6
:105FA000C4B2AC42F1DB29463046FBF725FD364949
:105FB000886429463846FBF71FFD33494031887312
:105FC0005AE02E4880683149884238D9002417E0C9
:105FD0000020FFF7B9FA2C48806C86192A48403017
:105FE000807BC71928484030017B01980818019030
:105FF00025484030417B009808180090601CC4B2CE
:10600000AC42E5DB29463046FBF7F6FC1E498864C6
:1060100029463846FBF7F0FC1B4940318873294676
:106020000198FBF7E9FC18494031087329460098AC
:10603000FBF7E2FCC1B21448403041731CE000247D
:106040000BE00120FFF780FA0F48806C86190E489C
:106050004030807BC719601CC4B2AC42F1DB2946DA
:106060003046FBF7C9FC0849886429463846FBF7E7
:10607000C3FC054940318873FEBD0000D8200020D4
:106080005CF3000088F40000D822002032190000E0
:1060900000B585B01A491B48FFF756FD0121480499
:1060A00003F088FA20200090002168460171032146
:1060B000417100218171C17169460920C00600F05B
:1060C00021FA03A8FEF7F2FE0021684601742020A1
:1060D00003900C21684641740121817403A8FEF7E6
:1060E000A1FE0721684601720021417201218172DF
:1060F00002A801F0FDFC2020FEF780FE05B000BDE7
:1061000000130C0C0340010008B58B480078C00751
:10611000C00F002800D108BD88480078801E030009
:106120000BF01EFA05047CA1DEF97B0000BF002104
:106130000091834800781C21484382494018801C04
:1061400081490978415C6846017001887FA001F0AF
:10615000B4FF68460078002851DD68460078CD28F5
:106160004DDA7E480078012807D07C480078042862
:106170000CD17B480078022808D06846008840048B
:10618000010C0091684600887649088075490888A6
:1061900000F0C8FA7449886806F0D4F803F066FB8A
:1061A000032066490870002070494870087005F0A7
:1061B00081F905F0A3F96E480078402188436C49C5
:1061C000087008460078202188436949087008460D
:1061D000007880218843664908700020654908706E
:1061E00065480078082188436349087000206349A6
:1061F0000870634908700620624908708BE75248AE
:106200000078401C504908700846007819288EDB39
:1062100006204A49087000BF00BF8AE05448007851
:106220008006C00F002809D02E205649087004208F
:106230004249087054A001F040FF13E05148007833
:1062400000280FD140480078401C3F49087008469C
:106250000078192803DB06203849087002E0022084
:106260003649087065E0434800780007C00F0028F1
:106270001ED040480078C006C00F002818D0052066
:106280002E49087045480078082188430830434962
:1062900008700520424908700020424908702E20ED
:1062A000414908703748017840A001F006FF16E028
:1062B00034480078002812D140A001F0FEFE2248A8
:1062C0000078401C2049087008460078192803DB34
:1062D00006201A49087002E002201849087028E0D8
:1062E000244800780007C00F002813D02148007808
:1062F000C006C00F00280DD0284800784006C00F07
:10630000002807D00C4800788007C00F002801D172
:1063100001E700E000BF0848007840084000064957
:10632000087003F023FC04F0C1FE29A001F0C5FEB3
:1063300000BF00BF00BFEEE6F7040020F10400201C
:10634000F2040020F81F0020F80400200D0A204568
:106350006F6E20537461743A25780000DD000020D0
:106360003C04002040040020D8200020C604002067
:1063700083040020B104002084040020B204002023
:10638000B3040020F50400200D0A20456F6E205054
:10639000492045786973742E200A00008204002089
:1063A0007D04002080040020A80400200D0A204560
:1063B0006F6E544120666E643A2578000D0A204EB7
:1063C00065787420456F6E202041462E200A00001B
:1063D0000D0A20456F6E2044657420456E642E20A2
:1063E0000A0000000149C860704700000020024018
:1063F00010B503460B20000400F042F80446012CBF
:1064000017D10D480069022108430B49086108466D
:106410004361006940210843074908610B200004DB
:1064200000F02EF80446044800690221884302491E
:106430000861204610BD00000020024000B500F0B9
:1064400013F83520FFF7CEFF00BD000003480069B8
:106450008021084301490861704700000020024084
:1064600001460A6890B270470248034948600348F1
:10647000486070472301674500200240AB89EFCD9B
:10648000014616E00E48C068C007C00F002800D0C3
:106490000FE00B48C06810221040002800D008E030
:1064A0000748C06804221040002800D001E0012005
:1064B00070470846491E0028E4D100BFF8E70000F5
:1064C0000020024030B503460C460B200004FFF7C5
:1064D000D7FF0546012D11D1094800690121084364
:1064E000074908611C800B200004FFF7C9FF05461F
:1064F000034800694008400001490861284630BD52
:1065000000200240F0B50A4600210023002400BF0D
:106510003DE001258D402B4615681D402C469C42D0
:1065200034D11579012D02D01579022D16D1856847
:106530004F000326BE40B543856055794E00B540F7
:10654000866835438560858801268E40B543858001
:10655000858896798E40B6B23543858005684F00B0
:106560000326BE40B543056015794E00B540066868
:1065700035430560C5684F000326BE40B543C5607E
:10658000D5794E00B540C6683543C560491C102911
:10659000BFD3F0BDF0B5002300244D07EE0E154625
:1065A000B5402B46CD10AE0005462035AD594E07FF
:1065B000F70E0F26BE40B543CE10B6000746203773
:1065C000BD51CD10AE003D46AD591D432C46CD10FA
:1065D000AD003E467451F0BD704700207047F8B5DD
:1065E00005460E460027002404E06000285AC7191B
:1065F000601CC4B2B442F8DB31463846FBF7FCF904
:1066000080B2F8BDF8B507460E462C480078400029
:106610002B4A81183846FCF741F8002800D1F8BD14
:10662000264909784900264A505A1522FF2100F0D0
:10663000A8FD002803D0002020490870EFE7204A79
:1066400011881E4A127852001D4B985A152200F0EC
:1066500098FD002802D119490870E0E71748007832
:10666000401CC0B2154908700A2825D30A211448D5
:10667000FFF7B5FF0546002416E00A206043114AE3
:10668000801841881522284600F07BFD002809D09B
:1066900000210A2060430B4A1154FF210A20604365
:1066A00080184180601C84B2112CE6DB358000200C
:1066B000024908700120B2E70020B0E7F201002093
:1066C0005E0C00204801002030B504460D46002134
:1066D0000AE00A204843C0188079A04202D12970FC
:1066E000012030BD481CC1B29142F2DB0020F8E726
:1066F00008B509F03DFE01464A79684642708A793C
:106700000270008808BD000070B504460D462101E6
:10671000034A88180122294602F0EEFE70BD0000EF
:10672000B80200203EB50546FFF7E2FFA84202DAB4
:10673000FFF7DEFF054609F01BFE0446E1786846D8
:10674000417121790171E1794170217A017081886B
:1067500012480164684601881048C163A0780F4957
:10676000403108710E480078C007C00F002803D0E0
:10677000A0780C49087005E0A0780A21FBF746F9DB
:1067800008490870684681880648007868430818F8
:1067900081B20291684600893EBD0000D8220020E7
:1067A00071040020F01B00207CB5064635462748C2
:1067B000866009F0DDFD0446E17868464171217983
:1067C0000171E1794170217A01708188204801646A
:1067D000684601881E48C163A0781D494031087190
:1067E0001C480078C007C00F002803D0A0781A49C1
:1067F000087005E0A0780A21FBF708F9164908702F
:1068000068460088A84209DC684601888088081A22
:1068100085B2684600880D49886009E0684680882E
:10682000A84204DC68468088281A85B200E000256A
:10683000094801782846FBF7E9F808490880084626
:106840000288314606A001F038FC7CBDD82000202B
:10685000D822002071040020F01B002040040020FA
:106860000D0A2073656C65637420667265203D2097
:106870003A25642C25782C000EB5024609F078FDE7
:106880000146CB78684643710B790371CB7943702D
:106890000B7A037083880F480364684603880D48A9
:1068A000C3630A200C4B1870684683880A48007836
:1068B0005043181883B20293684603890548C06B99
:1068C000834203D30348808F80B2029068460089D8
:1068D0000EBD0000D8220020F01B0020002109E09E
:1068E0000A204843054A105C002801D00120704767
:1068F000481CC1B21129F3DB0020F8E74801002051
:106900000520C0060921C906086000202449086046
:1069100024490860244908600920C006006823490A
:1069200008430921C90608601D480068032108437F
:106930001B4908601B4800681D4908431949086045
:10694000084680691B490843164988611448006855
:106950001949084312490860084680680F21090553
:1069600008430F498860084680880321890208434C
:106970000B498880084680691049084308498861A6
:106980000920C00600680E4908430921C9060860AD
:10699000084680690B4908430921C9068861704788
:1069A0000004004800080048000C00480F330000B5
:1069B00015030404000014225455501140003E4CAD
:1069C0005004404100002C981CB558484068574975
:1069D000886108468068C8610846C0680862084641
:1069E000006948620846406988620846006B402199
:1069F00088434E49098E8907C90F890140221140F9
:106A000008434A4908630846006B80218843474988
:106A1000098E4907C90FC901802211400843434923
:106A200008630846006B510088434049098E0907F6
:106A3000C90F09025200114008433C490863084647
:106A4000006B510088433949098EC906C90F4902B4
:106A5000520011400843354908630846006B510055
:106A600088433249098E8906C90F890252001140B4
:106A700008432E4908630846006B022188432B49CE
:106A800008630846006B04218843284908630846C8
:106A9000006B08218843254908630846006B1021D4
:106AA0008843224908630846006B202188431F4918
:106AB00008630846006B40084000401C086300243F
:106AC0000846008E4006C00F002801D00120044374
:106AD0001648008E0006C00F002801D00220044393
:106AE0001248008EC005C00F002801D004200443C6
:106AF0000E48008E8005C00F002801D008200443F6
:106B00000A48008E4005C00F002801D01020044321
:106B10000648806A0549496A009101900348036A62
:106B2000C2698169204604F01DFC1CBD5823002069
:106B300010B5164800788007C00F002820D001212A
:106B40001348FEF7EDFA1348C07813490860084669
:106B50000068000208600F480079096808430E4980
:106B6000086008460068000208600A484079096821
:106B700008430949086000210548FEF7E5FF04E0E5
:106B8000054801680248FEF7DFFF10BD71040020D0
:106B9000D6B001002A2300200805002000BFFEE730
:106BA0000448008A20210840002801D101207047B4
:106BB0000020FCE70008004810B516488069012154
:106BC0008906084313498861012008F027FC114811
:106BD00080690121C90608430E498861012008F037
:106BE0001DFC0C488069012189020843094988611C
:106BF000012008F013FC0748806901218906084339
:106C000004498861012008F009FC012008F006FC15
:106C100010BD00000004004810B51E488069012125
:106C2000890608431B498861012008F0F7FB1948D1
:106C300080690121C902084316498861012008F0D2
:106C4000EDFB1448806901218902084311498861DC
:106C5000002404E0022008F0BBFC601CC4B20A2C33
:106C600006DA0C48008A0121890208400028F1D088
:106C7000012008F0D3FB07488069012189060843F9
:106C800004498861012008F0C9FB012008F0C6FB17
:106C900010BD00000004004800B51D4880690121B6
:106CA000890608431A49886100F0ECF818488069A1
:106CB0000121C90208431649886100F0E3F800F099
:106CC000E1F8002200231EE01148806901218906B5
:106CD00008430F49886100F0D5F80D48806901210B
:106CE000890208430A49886100F0CCF85006020E78
:106CF0000748008A0121C9020840002801D001206C
:106D00000243581CC3B2082BDEDB104600BD000056
:106D10000004004830B50246154633488069012119
:106D2000890608433049886100F0ACF800232AE066
:106D30002D4880690121890608432B49886100F0AC
:106D4000A1F880202840002807D027488069012129
:106D5000C90208432449886106E02348806901216B
:106D6000C90608432049886100F08CF81E488069F4
:106D70000121890208431C49886100F083F86806F4
:106D8000050E581CC3B2082BD2DB174880690121BD
:106D9000890608431449886100F074F81248806934
:106DA0000121C90208431049886100F06BF80E48C0
:106DB00080690121890208430B49886100F062F86B
:106DC000142409E00848008A0121C902084000286B
:106DD00000D106E000F056F82046611ECCB2002833
:106DE000F0D100BF30BD00000004004800B51148DC
:106DF00080690121C90208430E49886108468069FB
:106E00000121890208430B49886100F03BF80948D9
:106E100080690121C90608430649886100F032F8FB
:106E2000044880690121890608430249886100F00D
:106E300029F800BD0004004800B51148806901210F
:106E4000890608430E498861084680694904084359
:106E50000B49886100F016F8094880690121890210
:106E600008430749886100F00DF805488069012151
:106E7000C90208430249886100F004F800BD00001F
:106E800000040048002001E0411CC8B20128FBDBDF
:106E90007047000000B585B00121022007F00AFC10
:106EA0000121C80402F056FB02200190002168462F
:106EB000017203214172002181720121C17201A975
:106EC0001048FFF71FFB03A8FDF7F0FF00216846FD
:106ED0000174022003900C216846417401218174E1
:106EE00003A8FDF79FFF052168460170002141704E
:106EF0000121817000F0FCFD0220FDF77FFF05B04D
:106F000000BD00000008004800212E4A1278052A22
:106F100003D02C4A1278072A01D12B492CE0294AA8
:106F20001278012A01D1294926E0264A1278022A3C
:106F300003D0244A1278032A01D125491CE0214AB2
:106F40001278032A01D1234916E01E4A1278082A32
:106F500001D1214910E01B4A1278042A01D11F49AE
:106F60000AE0184A1278062A01D11D4904E0154AA0
:106F70001278092A00D11B491B4800BF0A880280E9
:106F8000194A1632904200D102E0891C801CF5E7B4
:106F900000BF0C4A1278062A03D00A4A12780A2A3D
:106FA0000ED111480C30114900BF0A8802800E4AE8
:106FB0001632904200D102E0891C801CF5E700BF28
:106FC00070470000DD000020F0190108081A0108D0
:106FD000201A0108381A0108501A0108681A010815
:106FE000801A0108A41A01082A1C0020981A010816
:106FF0000021314A1278052A03D02F4A1278072A35
:1070000001D12E4936E02C4A1278012A03D02A4AAF
:1070100012780A2A01D12A492CE0274A1278022A3A
:1070200003D0254A1278032A01D1264922E0224AB8
:107030001278032A01D124491CE01F4A1278082A39
:1070400001D1224916E01C4A1278042A07D1204AAD
:107050001278022A01D11F490CE01F490AE0164AA2
:107060001278062A01D11D4904E0134A1278092A30
:1070700000D11B491B4800BF0A880280194A2232EE
:10708000904200D102E0891C801CF5E700BF0A4A4B
:107090001278042A0ED10F491248183000BF0A880E
:1070A0000280104A2232904200D102E0891C801CEA
:1070B000F5E700BF70470000DD000020C41801089C
:1070C000E81801080C1901083019010854190108C1
:1070D0003C040020E4190108781901089C190108F2
:1070E000C0190108FA1B002000B5FFF781FFFFF768
:1070F0000BFF00BD00B585B002200090002168465E
:1071000001710321417100218171C17169461048EB
:10711000FFF7F8F902A8FDF7C9FE002168460173E0
:10712000022002900C21684641730021817302A85D
:10713000FDF778FE052168460174002141748174D1
:1071400004A800F0D5FC0220FDF758FE05B000BDF4
:107150000008004810B508F0A9FEFFF79BFE10BD1F
:1071600030B504460D46002107E0685CA04202D11C
:107170001970012030BD481CC1B29142F5DB0020DE
:10718000F8E710B503468B4201D9581A00E0C81A37
:107190000446944201D8012010BD0020FCE7000005
:1071A00010B50F490888C117890F0918891089007F
:1071B000411A12D10A4908886421FAF727FC0029EC
:1071C00001D0012010BD06490888FF219131FAF74E
:1071D0001DFC002901D10120F4E70020F2E70000A6
:1071E0000E01002000200549087005490870054976
:1071F0000870054908700549087070471F01002094
:10720000200100201C0100201D0100202101002080
:1072100010B504462079012816D12078A17888423B
:1072200027D02078A070E078002802D10C2060716F
:107230001FE0E078012802D0E078022819D17D20F3
:1072400060710020A07114E02079002811D1E0784D
:10725000022802D0E078012808D1A079002805D1C1
:107260006079712802DC207807F076FA2046FCF776
:10727000B1FE10BD10B50446607900281FD06079BA
:10728000401E60716079002819D1E078002803D190
:10729000207807F061FA12E0E078012805D16078E3
:1072A00007F05AFA0120A07109E0E078022806D11F
:1072B000607807F051FA0120A0710A20607110BDBA
:1072C000FFB581B0074615461E4669463846FBF7AE
:1072D000E5F9002801D105B0F0BD002431E00A2015
