:020000040800F2
:10180000D829002081190008ED740008FD64000843
:1018100000000000000000000000000000000000C8
:10182000000000000000000000000000F1E00008DF
:101830000000000000000000B3790008EBED000894
:1018400093190008931900089319000893190008C8
:1018500093190008BD4A000893190008D54A0008EA
:1018600093190008931900089319000893190008A8
:10187000931900089319000893190008F5F6000859
:10188000931900089319000893190008A9F5000896
:101890009319000893190008931900089319000878
:1018A00093190008931900089319000845020108CC
:1018B00009030108C9030108653A000893190008E3
:1018C00000F002F800F030F80CA030C808382418F6
:1018D0002D18A246671EAB4654465D46AC4201D168
:1018E00000F022F87E460F3E0FCCB646012633426A
:1018F00000D0FB1AA246AB46334318479428010098
:10190000B42801000023002400250026103A01D34A
:1019100078C1FBD8520700D330C100D50B607047A7
:101920001FB51FBD10B510BD00F05AFE1146FFF7E0
:10193000F7FF0FF0FBFA00F072FE03B4FFF7F2FFBF
:1019400003BC00F079FE000070B505460C46164653
:1019500002E00FCC0FC5103E102EFAD2082E02D393
:1019600003CC03C5083E042E07D301CC01C5361FA6
:1019700003E021782970641C6D1C761EF9D270BDBD
:101980000748804707480047FEE7FEE7FEE7FEE717
:10199000FEE7FEE704480549054A064B704700008C
:1019A00059F00008C1180008D8230020D8290020C9
:1019B000D8250020D825002001E004C0091F0429F3
:1019C000FBD28B0701D50280801CC90700D00270B2
:1019D000704700290BD0C30702D00270401C491E7B
:1019E000022904D3830702D50280801C891EE3E705
:1019F0000022EEE70022DFE7002203098B422CD30E
:101A0000030A8B4211D300239C464EE003460B434E
:101A10003CD4002243088B4231D303098B421CD3B0
:101A2000030A8B4201D394463FE0C3098B4201D3A2
:101A3000CB01C01A524183098B4201D38B01C01ADA
:101A4000524143098B4201D34B01C01A5241030951
:101A50008B4201D30B01C01A5241C3088B4201D300
:101A6000CB00C01A524183088B4201D38B00C01AAD
:101A7000524143088B4201D34B00C01A5241411AD4
:101A800000D201465241104670475DE0CA0F00D0B7
:101A90004942031000D34042534000229C460309B0
:101AA0008B422DD3030A8B4212D3FC22890112BA36
:101AB000030A8B420CD3890192118B4208D389010E
:101AC00092118B4204D389013AD0921100E0890926
:101AD000C3098B4201D3CB01C01A524183098B4207
:101AE00001D38B01C01A524143098B4201D34B01F0
:101AF000C01A524103098B4201D30B01C01A524153
:101B0000C3088B4201D3CB00C01A524183088B42D9
:101B100001D38B00C01A5241D9D243088B4201D362
:101B20004B00C01A5241411A00D20146634652414D
:101B30005B10104601D34042002B00D5494270474C
:101B400063465B1000D3404201B50020C046C0464A
:101B500002BD704770477047F0B50C46871A9C412C
:101B60000D46861A9D4103D2C01BA141D219634183
:101B70000D0D1F0DC94EEC1BAE435CD07F057F0DD4
:101B80000026002F51D02D05AC46A943DD020123CC
:101B9000ED0A1B051D4320231B1B24D41746E740D9
:101BA000381871412F46E740CC199D40281831461E
:101BB00061410C0D27D161449A4013D50023401C8C
:101BC000594152000ED14008400001224B005205FD
:101BD000D34207D305204007C14201D5B04900E0F8
:101BE000B0493046F0BD6B00002A00D001229A189F
:101BF0001F23203C1B1B01D5002302E0E5402818D1
:101C000071410C0DD7D0012424050919C407CD0753
:101C100040084908E40F28436144002CD5D0002433
:101C2000401C61419A40D0D1CDE76A05520DD9D10F
:101C3000C90FC907D5E79C4D4E00002801D00124EB
:101C400000E0002434195F00002A01D0012600E0E2
:101C50000026BE19954FAC420CD8AE420AD8B44209
:101C600006D001256D05EC42BCD010461946F0BDEA
:101C70009942FCD000203946F0BDF0B51FB40C46A7
:101C80000F46811A9F412546861A9D4106D201259D
:101C9000ED076F40401ABC4152187B41210D1E0DCB
:101CA0008D1BAC467D4D8D437ED075056D0D7CD072
:101CB0000D05AE46AC431B031B0B794D52429D41B3
:101CC000202366469B1B14D31746F740381800267E
:101CD0000090744160462F460741E41900989D40EA
:101CE0002818664116D4714671189A4025D50123EB
:101CF00020E093182A466A415200002B00D0521C63
:101D00001E23203E9B1B002B61DD3541EE1728185A
:101D10006641E8D5001876415B1C9A4000D3401C10
:101D20004B05F3181524E34010D3002B52D0714615
:101D30007118D30FC01802D3491C05B0F0BD0123A0
:101D4000DB079A42F9D140084000F6E7012252052C
:101D5000B21801D1002853D00123CC0ADB029943E9
:101D6000891E002A08D1020C03D0020C000410398D
:101D700002E00246002020390023550B05D1120253
:101D80000823550B01D152010D23550C01D112012D
:101D90001B1DD50C01D192009B1C150D01D15200C9
:101DA0005B1C2025EE1A01E02CE022E00546F54000
:101DB00015439840CA1AE10769181305C918002A83
:101DC000BBDA032040070818C10FC9070FE07146AE
:101DD0006118B2E7F10740080843711071444A00E6
:101DE0000CD001235B059A42A7D2C90FC907002076
:101DF000A3E74905490D26D1002001E00028F4D1D0
:101E000000219AE7284D6600002801D0012100E05A
:101E1000002171185F00002A01D0012600E0002691
:101E2000BE19224FA94210D8AE420ED8B14208D0F6
:101E300001256D05E94206D01946A8024140104629
:101E40007BE79C4201D0214677E70020394674E7C2
:101E500010B50C465C4005D50124E4076340FFF74C
:101E60000CFF10BDFFF778FE10BD30B40C465C408F
:101E700004D50124E407634030BC6DE630BCFCE6C9
:101E800070B50124E40761400D465D4002D4FFF7C0
:101E900063FE70BD6340FFF7F0FE70BDFF070000FA
:101EA0000000F0FF0000F07F0000E0FF0000F87F7E
:101EB000F0B5F94D0C091E092C402E402F468BB071
:101EC000A7437DD0B543FCD0002E7AD0002CFCD0A7
:101ED0000D465D40ED0F2543AC1BFF25AD04641995
:101EE0000894C502440DC9022143500DDC0204438D
:101EF0000120C00701430443D2020191200C110CC0
:101F000000958C46010423468B430A9161460904DF
:101F1000E24D8A430991010A7D44491980390978C3
:101F200005464D4301266D18F605751B6943C90C1E
:101F3000640B891C4C436418B5012C1B250C2E0422
:101F4000B4434C434D43210C691889090591009D08
:101F5000E90701D00121C90704912C4601996708BE
:101F6000CD072F434C08059DE10B4D432D0C294611
:101F70006646754302950D4645432E46029D7D1BE0
:101F8000B44100950D465D4301942C0C2F040D4681
:101F90005543AE462D0C3D43029503947546049C73
:101FA0002D04641B049406D2029C039D641C00262D
:101FB00075410395029401AC70CC009F7D1B01E03C
:101FC0003EE162E1B441090400950791019405994D
:101FD000A4086143090C0C464443650BE7040C4616
:101FE00066467443A646640B3C43039502947446CC
:101FF000049DE4042C1B049406D2029C039D641CE3
:10200000002675410395029401AC70CC009F7D1BA6
:10201000B44101940C465C430095650FE7000C4603
:102020005443A646640F3C43039502947446049DB2
:10203000E4002C1B049406D2029C039D641C002621
:1020400075410395029401AC70CC009F7D1BB44197
:10205000AE09AF06049DC900AD092F43049DA40637
:10206000AD060495079D344369180791059DE10B62
:102070004D432D0C29466646754302950D46454352
:102080002E46029D7D1BB44100950D465D43019493
:102090002C0C2F040D465543AE462D0C3D430295A6
:1020A00003947546049C2D04641B049406D2029C80
:1020B000039D641C002675410395029401AC70CC0D
:1020C000009F7D1BB44101948C050694079C890AEE
:1020D000611800950791019C0599A4086143090CBA
:1020E0000D464543680BEF040D46644665436C0B93
:1020F0003C43049FED047D1BAC4602D20025641CCA
:102100006841009E019D371B854108465843019553
:102110000C46460FC5005443600F28436546E40053
:102120002C1B02D20025401C6E41019D3F1AB54177
:102130002846BD09800628438446A009BF064E02F2
:102140000699A40676180743079D002068410A995E
:10215000079019430020099B00906046FF19134324
:102160004041E20F64003A43A4460446D71A8C412A
:10217000A04203D90120009020463A46C70F941888
:1021800040416246D20F2243644664000494009C9E
:10219000BE466400D71AA446044602978C4177468F
:1021A000002F01D1A04204D96046401C8446029A07
:1021B0002046C40FA64694184041049A0546D20F03
:1021C000224364466400D31A8D417146002901D12F
:1021D000A84202D928461A46641C1043012200284E
:1021E00000D0164361020020079B891904465C4118
:1021F0000223002C02DB491813466441089DCE0AD5
:102200002D145D194B056705E10A2C050D19089978
:102210003E43C9076940002B08D0934006D30022F3
:10222000761C5141002B01D1760876001C4A002D06
:1022300043DB154241D0AA433FD030460BB0F0BD3E
:1022400006180D464D41174C7642AC411AD39518ED
:102250001C465C41134A6D42A24113D30122520530
:102260004C00D4420AD15C00D4420BD04B4002D582
:1022700092021143E2E749004908DFE75940C90FDC
:10228000C90718E000200849D8E7054801420DD1E8
:102290000342F7D0F2E700000000FF07072101002A
:1022A0000000F07F0000E0FF0000F87F1148594077
:1022B0000143C01241400020C0E70123089A9B0659
:1022C0009A4205DC032252078918C90FC907B5E7EE
:1022D000052252078918074A1143D2125140ADE72F
:1022E00070B515461C4602460B4628462146FFF7A8
:1022F000DFFD70BDFFFFFF7F0346CA02400D10B532
:1023000010430A1504D00124E4072043002A05DB0A
:102310000A4CA21A04D4D040FF2A00DD002010BDD0
:102320004A00002B01D0012000E0002010180122FB
:102330005205D042F2D8C817C04310BD1E04000099
:102340001F22030C02D10F22000402D0030E03D07F
:1023500004E00020014670470002083A030F01D153
:102360000001121F830F01D18000921E002801DBA3
:102370004000521E120551184205C0124118104665
:102380007047C10FC90700D0404201229207114394
:10239000D6E701218907D3E7F0B58B4C0F09254615
:1023A00089B0BD437BD01D092646AE43FAD00E4608
:1023B0005E402740F60F3E43254071D02401214264
:1023C000FBD0FF24AD19A4042D1B039501252D0579
:1023D000DB02DB0AC9022B43C90A29431E0109019A
:1023E000040F130F050121431701880B820391434A
:1023F0002D098C46A90B1E438A039543B30B9A0300
:1024000096433F09BA0B9403A74302962E467E4398
:102410000497B6464E19D7190C46019654430597B2
:102420007E43371B7646BF1B3601B646BE0B3619B8
:1024300000967646BC043719009C01D3641C0094B6
:102440006400002F01D001263443029E049F75438F
:1024500066467E430496760034196E003419009463
:10246000029C019E1C196643751BAE460694654688
:102470004519059C05956C43594375460891691AA1
:102480000191049E01465143A41B0491611A009CD2
:102490000791E10605D061090122114302E072E0D3
:1024A0006EE06109089D00272C0A2D066918049D1D
:1024B0007C412A0A2D066918019D6241AC0DAD02CE
:1024C0006D185441079A910D920255196141029A73
:1024D000644658435443069B059A5A43121A131BE9
:1024E0009A0E9B015B187A41010B0005C3185141FC
:1024F000220A200644195A419A4200D2491C01205E
:102500004002814203D315230226F64302E014233E
:102510000326F6432020C51AA9401746AF40DA40EB
:102520000A4320460399D840091473181905511815
:10253000039A3843D2075140AC4009D0012294405D
:1025400006D30022401C5141002C01D1400840001C
:102550001E4A934212D3012203989206904207DB4F
:102560000520400709181A480143C012414004E001
:10257000032040070818C10FC907002009B0F0BDAB
:102580000020F107FAE705180C464C4111486D424E
:10259000A04115D394181A465A410E4864429041FE
:1025A0000ED301204A004005824209D35A008242DC
:1025B00006D35940C90F084AC90700201143DDE777
:1025C00000200649DAE700000000FF07FE070000D0
:1025D000FFFFFF7F0000E0FF0000F07F0000F87FBA
:1025E000754600F025F8AE46050069465346C0081A
:1025F000C000854618B020B5FFF7CCF960BC0027B5
:102600004908B6460026C0C5C0C5C0C5C0C5C0C5BE
:10261000C0C5C0C5C0C5403D49008D46704710B516
:102620000446C046C0462046FFF787F910BD0000AB
:10263000004870477823002001491820ABBEFEE710
:1026400026000200704770B58C180578401C6B0797
:102650005B0F01D10378401C2A1106D10278401C7F
:1026600003E00678401C0E70491C5B1EF9D12B0755
:1026700005D40023521E0DD40B70491CFAE70378D1
:10268000401CCB1A921C03E01D780D70491C5B1C8A
:10269000521EF9D5A142D8D3002070BD38B50546E9
:1026A0000C466B4603220749284604F0F6F9002839
:1026B00005D00548008980102080012038BD002009
:1026C000FCE7000045010020FC04002010B51A487A
:1026D000007A022806D1184B184A1121012004F073
:1026E0008FFA28E01448007A01281ED11248407A57
:1026F000002820D01048C0790A2250430F4A801881
:10270000811C012003F078FC002814D001210A4824
:10271000C0790A225043094A1154002006494872E0
:10272000022008720BF0D0FA05E00348007A002876
:1027300001D10BF0F9FF10BD420C00204801002030
:10274000F0B585B0F9480078012806D002282DD0D0
:10275000032839D004287DD1E2E2F548007800282A
:1027600001D005B0F0BD01200CF0B0FA0390039841
:10277000012806D1EF480078202188432030ED4918
:102780000870ED49088803F0ABFCEC498860EC491F
:1027900008790DF029FC0CF0CFF90220E44908700B
:1027A000E2480078401CE1490870DAE7E148007827
:1027B000C007C00F002806D00CF0AEF9DB48007847
:1027C000401CDA490870CCE7DA4800788007C00F6F
:1027D000002800D0C5E7D74800784007C00F002880
:1027E0007ED0D8480078C007C00F002879D0D648DE
:1027F0000088401CD4490880D4480078062803D0BB
:10280000D24800780A2801D1062500E00C25CE48E0
:102810000088A8426DDCCE480188CB480088401E65
:102820008000CC4A1152C4480188C7480088401E25
:102830004000401C40001152C4480078062803D0D4
:10284000C24800780A2831D1C3480078032816D13D
:1028500000240FE0FEE306212046FFF7D7F8491ECB
:102860004900BE4A6000401C4000BA4B185A505202
:10287000601CC4B2B44800888442ECDB36E000241B
:102880000FE006212046FFF7C1F8491E4A00B34871
:102890000C306100491C4900AE4B595A8152601CF2
:1028A000C4B2A94800888442EBDB1FE0002415E095
:1028B00006212046FFF7AAF80C214843A7494718EC
:1028C00006212046FFF7A2F8491E49006000401C7F
:1028D0004000A04A105A7852601CC4B29A4802E0E4
:1028E000ADE1A0E005E000888442E1DB0BF084F874
:1028F000A5E1954805806800801E40009549401874
:102900000190ECB22646FF20029000BF019801889A
:102910000298814203DA0198007802902646012C41
:1029200000DC05E0601EC4B20198001F0190EDE7D5
:1029300000BF8748018802988142D9DD00BFAE42BE
:1029400000DD13E0701C80008249085AB100814A02
:102950005052701C4000401C40001146095A700043
:10296000401C40001152701CC6B2E8E700BF784816
:102970000188681E8000774A11526F480188681EDE
:102980004000401C4000115270480078062803D0D7
:102990006E4800780A282AD16F480078032812D19F
:1029A00000240DE006212046FFF730F849006B4A6D
:1029B0006000401C4000674B185A5052601CC4B263
:1029C000AC42EFDB2CE000240EE006212046FFF7AE
:1029D0001DF84A0061480C306100491C49005D4BFC
:1029E000595A8152601CC4B2AC42EEDB18E000249C
:1029F00014E006212046FFF709F80C214843574907
:102A0000471806212046FFF701F849006000401CE6
:102A10004000504A105A7852601CC4B2AC42E8DB05
:102A20000AF0EAFF0BE149480078042807D14C4836
:102A30000078022801D1062502E00C2500E01225CD
:102A400048480088401C4749088008460088A8423A
:102A50004CDC3F48018843480088401E8000424AC1
:102A60001152354801883F480088401E4000401CF4
:102A70004000115235480078042818D138480078B1
:102A8000022814D100240DE006212046FEF7BEFFE7
:102A90004A0036486100491C4900334B595A81525B
:102AA000601CC4B22F4800888442EDDB1BE0002488
:102AB00015E006212046FEF7A9FF0C2148432B49CB
:102AC0001839471806212046FEF7A0FF490060008C
:102AD000401C4000244A105A7852601CC4B221485D
:102AE00000888442E5DB0AF087FFA8E01D480580E6
:102AF0006800801E40001C4940180190ECB2264638
:102B0000FF20029000BF019801880298814203DAF9
:102B10000198007802902646012C00DC28E0601E17
:102B2000C4B20198001F0190EDE700005504002099
:102B3000570400206C0400203C040020C420002026
:102B4000042300206B04002036040020DC00002059
:102B50005C040020761C002038040020161C002095
:102B600039040020340400202E1C0020FE1B00200D
:102B700000BFFE4801880298814260DD00BFAE427E
:102B800000DD13E0B000FA49095A701E8000F84ACF
:102B900011527000401C40001146095A701E40003E
:102BA000401C40001152701CC6B2E8E700BFEF485D
:102BB0000188681E8000EE4A1152EE480188681EA6
:102BC0004000401C40001152EB480078042818D106
:102BD000EA480078022814D100240DE0062120469E
:102BE000FEF714FF4A00E6496000401C4000E04B3D
:102BF000185A8852601CC4B2E24800888442EDDB57
:102C00001BE0002415E006212046FEF7FFFE0C2104
:102C10004843DB491839471806212046FEF7F6FEDF
:102C200049006000401C4000D14A105A7852601C94
:102C3000C4B2D44800888442E5DB0AF0DDFED24805
:102C40000088CC490988884203D00120CF49087008
:102C500065E0CF480078C007C00F00281FD10024CE
:102C600001E0601CC4B2062CFBDBC34800780428DA
:102C70000CD1C2480078022808D1C6480078002844
:102C80002CD0C0480078C349087027E0BD480088B0
:102C9000002823D0BB480078BF4908701EE00024FC
:102CA00001E0601CC4B2062CFBDBB34800780628A8
:102CB00003D0B14800780A2808D1B8480078002825
:102CC0000CD0B7480078B549087007E0B4480088D0
:102CD000002803D0B2480078B2490870B2480078A2
:102CE00010218843B049087003200DF077F90120C6
:102CF000AE4908700420A5490870AD48007808283E
:102D000005D1AC480078F7210840AA490870AA48C4
:102D1000007801210843A84908700AF017FD20E552
:102D2000A2480078002800D01BE5934800780628C8
:102D300003D0914800780A2828D19A4800780028C2
:102D400003D196480078002820D08B4800780628C8
:102D500003D0894800780A280AD1904800780028D2
:102D600006D096480078964908708449087004E0B7
:102D70000320934908708149087001209149087027
:102D800001217E48007809F057FE59E1804800781B
:102D9000C007C00F00283DD082480078002839D0F5
:102DA0000120884908700420744908700121734883
:102DB000007809F041FE6F4801880091684640782C
:102DC0008049097849010843C1B2684641700088CA
:102DD0006A49097849007C4A5052674800780628B9
:102DE00003D0654800780A2806D1744800787449F1
:102DF00008706249087004E00320714908705F4957
:102E0000087001206F49087001215C48007809F0C2
:102E100013FE15E15E480078C007C00F002879D185
:102E200055480078042875D15A480078002803D105
:102E30005948007800286DD04F480078042825D1E3
:102E40004E480078022821D15248007800281DD031
:102E500001205C4908700220484908700121474858
:102E6000007809F0E9FD4348018800916846407800
:102E70005449097849010843C1B268464170008845
:102E80003E4909784900504A505227E03A480078B4
:102E9000042823D13948007802281FDA3E480078F8
:102EA00000281BD0012047490870344908700121CF
:102EB0003248007809F0C0FD2E480188009168462C
:102EC00040784049097849010843C1B268464170D9
:102ED00000882A49097849003B4A50522648007820
:102EE000042808D125480078022804D13449087004
:102EF0002249087004E00020314908701F49087019
:102F000001203049087001211C48007809F094FD27
:102F100096E0FFE71E480078C007C00F002878D170
:102F20001D480078002874D001202649087002202E
:102F30001249087001211148007809F07DFD0D4803
:102F400001880091684640781E4909784901084384
:102F5000C1B26846417000880849097849001A4A98
:102F6000505201200549087001212FE05C04002027
:102F70002E1C00203C040020DC000020390400202E
:102F8000FE1B0020340400204004002055040020D3
:102F90006B04002047040020460400204904002060
:102FA00036040020480400206C0400205604002051
:102FB00054040020E4000020E50000203A04002032
:102FC0003804002044040020A61C00203C4800785F
:102FD00009F032FD3B4801880091684640783A4943
:102FE000097849010843C1B26846417000883449F4
:102FF00009784900354A505235480078042809D1EB
:103000002F480078022805D1324908702C490870F1
:1030100005E00DE000202F490870294908700120C3
:103020002949087001212648007809F005FD07E0CC
:103030002948007827490870214908700AF00EFFD6
:103040001F4800782549887025480078C007C00FC0
:10305000002800E031E012D11D480078042808D192
:103060001C480078022804D11A49087014490870D5
:1030700017E00020174908701149087011E0144842
:103080000078062803D0124800780A2804D1114895
:1030900000780B49087004E003200E4908700849C5
:1030A000087000F01BFB00200749087007200D493D
:1030B000087001200C49087031E600BF2FE60000BF
:1030C000390400203C04002044040020A61C0020F9
:1030D000DC000020380400203A040020C420002036
:1030E0006B040020540400205504002010B5414812
:1030F0000078012804D0022834D0032877D13FE09B
:103100003D480078002800D010BD3C4800780928D0
:103110000ED101200BF0DAFD04463949088802F08F
:10312000DFFF38498860384908790CF05DFF0EE010
:1031300001200BF059FD04463149088802F0D0FF08
:10314000304988603049097948420CF04DFF02202F
:103150002949087027480078401C264908700BF060
:10316000EBFCD1E729480078C007C00F002806D043
:103170000BF0D2FC1F480078401C1E490870C3E7C2
:10318000224800788007C00F00282ED11F48007801
:103190004007C00F002803D000201649087024E023
:1031A000012014490870164802881948018819A09E
:1031B00004F07FFC1648008811490988884214D120
:1031C000124800784007C00F002802D10AF046FEDE
:1031D00001E00BF0B1FC122008F05EFD134800780E
:1031E000082188430830114908708DE7FFE700BFC8
:1031F0008AE70000550400205704002054040020F2
:103200003C040020C4200020042300206C04002083
:10321000400400200D0A206E657874207374617478
:1032200020203A25782C2578000000006B0400202F
:1032300000200D4988600D48C068491508430B49B6
:10324000C8600846C068491588430849C86000201E
:1032500007498860C8600861486104488069491569
:1032600088430249886170470024014000100240F1
:10327000000002402C4989690122520211432A4A66
:1032800091611146496901221143274A5161D104D4
:10329000264A91607D20000100BF24498968C90F3A
:1032A000C907002903D00146401E0029F5D11F4956
:1032B000C9681F4A11431D4AD1601146C9680122DD
:1032C00011431A4AD1601146C96802221143174AB4
:1032D000D16051051161012151611146896A154A78
:1032E0001143124A9162144989682D2252011143F7
:1032F000114A91600621D1600C49403111610F499A
:1033000051610A49896801221143084A91601146B6
:10331000896804221143054A91600749896801229E
:103320001143054A9160704700100240002401409B
:10333000082000005341000000000240FC0400206F
:103340007CB58F48007803000DF086FD0604056803
:1033500078C8FD0410E18B480078002800D07CBDBF
:1033600000BF894889490978415C68460171007944
:10337000CC2803DC8548007819280CDB0AF08EFD88
:103380008349886808F0CEFC10207E49087005202B
:103390007B490870E3E70020694648717D48007862
:1033A000012807D07B480078042808D17A480078A3
:1033B000022804D0684680884004010C01916846C8
:1033C000808876490988884205D170480078401C79
:1033D0006E490870C5E700BF00BF6C480078401C0C
:1033E0006A490870684680886C490880088802F03D
:1033F00077FE6749886002200CF0F0FD6449886818
:1034000008F090FC19205F4908700020644908709A
:103410005B480078401C5A490870ADE05948007874
:10342000002800D09BE700205D4908705D490870C6
:1034300053480078401C524908709DE05848007875
:1034400002284ADB0221584800F028F9C5B2574843
:103450000078009056480378564802782946564826
:1034600004F027FB554800784006C00F00281BD009
:1034700053480078C01C854216DD00205149087071
:10348000002406E020205049085550490855601C8A
:10349000C4B2082CF6DB0AF0D9FB052038490870C5
:1034A00003200CF09BFD18E0384800784849097863
:1034B00088420FDB0AF0F2FC3549886808F032FCDC
:1034C0000C203049087005202D49087003200CF0AD
:1034D00085FD44E701202A4908704DE03D48007809
:1034E0008007C00F00282CD13A4800784007C00F51
:1034F000002813D003200CF071FD00202049087033
:103500002249087034480078002803D032480078F7
:103510000DF070FC3A203149087012E0194800782B
:1035200000280ED10AF0BAFC03200CF057FD184910
:10353000886808F0F7FB0C20124908700520104934
:10354000087019E0FFE70F480078002800D006E770
:1035500000200E49087013490870114908703A207C
:103560001E4908709C201E49087003200CF036FD8F
:1035700000200349087000BF00BF00BFEFE6000055
:103580007704002057040020B21C0020CF04002044
:10359000C4200020DC000020380400203C0400206F
:1035A0002B040020740400202C040020610400205F
:1035B000600400205F0400203C4101086D040020ED
:1035C000D104002085040020AD040020B5040020B3
:1035D000980400206C04002044040020A50400206E
:1035E000A70400201EB502460C46002305E0107813
:1035F0006946C854521C581CC3B2A342F7DB684644
:103600000078032807D168464078012803D168462E
:10361000807A302802D00DF0EDF91EBD6846807822
:1036200030210840102802D101200949087068465D
:10363000807830210840002804D06846807808400F
:10364000302802D100200249087000BFE5E70000E1
:10365000B002002000210B4A11800B4A11800B4A56
:1036600011700B4A11800B4A1180002004E00021E8
:10367000094A1154411C88B2012149028842F6DBF3
:103680007047000032010020340100203601002084
:10369000380100203A01002043070020F0B503461E
:1036A0000A46002413E0194600260AE008784F78FD
:1036B000B84203DD0D78487808704D70491C701CC5
:1036C000C6B2101B401EB042F0DC601CC4B2501EDB
:1036D000A042E8DC5510585DF0BD000004480088A9
:1036E00004490880044800780449087070470000C5
:1036F0003C04002042040020440400204A0400202E
:1037000010B50D480D49C8600020C8600C4808611C
:1037100000200861084640690A4908430749486192
:1037200002F098FD0CF060F8FFF7A4FD04F040F9FA
:1037300000F00AF810BD0000015A07000010024016
:103740001349620201001E0010B5E1214902012067
:103750000BF04CFBE121490202200BF047FBE12179
:10376000490204200BF042FB10BD000010B50123FC
:103770005B02CA1A994242D010DC202930D006DC04
:10378000012924D0042925D0082948D125E0402941
:1037900029D0CA1FF93A002A41D12DE03F24640202
:1037A000131BA24236D009DCFF3AFF3A023A002A44
:1037B00028D001239B02D21A31D126E00122D20364
:1037C0009A1A13D001231B04D21A28D111E0154AEA
:1037D000826025E00822C26022E01022C2601FE061
:1037E000082202611CE01022026119E008224260F6
:1037F00016E01022426013E00422426010E004222E
:1038000042600DE0042242600AE00022826104224C
:10381000426005E0002282610422426000E000BFB5
:1038200000BF10BD0101010010B50C010346FF33BC
:10383000B1331B59042423401372137A002B07D190
:103840000C010346FF33B1331B595B0D136006E0D7
:103850000C010346FF33B1331B59DB0853600C01E5
:103860000346FF33B1331B590224234053720C012A
:103870000346FF33B133E3185B681B071B0F9372DA
:103880000C010346FF33B133E3185B681B041B0EC6
:10389000D3740C010346FF33B133E3189B68D37232
:1038A0000C010346FF33B133E3189B681B041C0E65
:1038B00014730C010346FF33B133E3189B681B02FA
:1038C0001C0E54730C010346FF33B133E3189B689D
:1038D0001B0E93730C010346FF33B133E318DB680F
:1038E000D3730C010346FF33B133E318DB681B04C9
:1038F0001C0E14740C010346FF33B133E318DB686C
:103900001B021C0E54740C010346FF33B133E31841
:10391000DB681B0E9374002904D1C3682024234361
:10392000C36003E0036920242343036110BD30B565
:103930000246002093680124A4062340A34200D13C
:1039400010E093680124E4062340A34201D1012042
:1039500008E09368012424072340A34201D10220F8
:1039600000E0042004287BD004011346FF33813398
:103970001B59DC07E40F05011346FF3381335C510B
:103980000B7A002B0FD10B885B054C7A2343050182
:103990001446FF3481346459234305011446FF342F
:1039A0008134635110E04B68DB000C7A23434C7A7E
:1039B000234305011446FF34813464592343050130
:1039C0001446FF34813463518B7A1B071B0F8B72B3
:1039D00004011346FF338133E3185B681C0924019B
:1039E00005011346FF338133EB185C600401134675
:1039F000FF338133E3185B688C7A23430501144657
:103A0000FF3481342C1963608B7B1B064C7B2404B0
:103A100023430C7B24022343CC7A23430501144621
:103A2000FF3481342C19A3608B7C1B064C7C24044E
:103A300023430C7C24022343CC7B234305011446FF
:103A4000FF3481342C19E36004011346FF338133C2
:103A50001B590124234305011446FF34813463516B
:103A600030BD000000B58BB0142106A8FDF7C2FFE1
:103A700006AA00211148FFF7D7FE07980290069882
:103A8000019008A881786846817308A80178684683
:103A9000017308A8417868464173082208A90331D8
:103AA0000F300DF0EBFA01A9002000F021F80221FF
:103AB0000248FFF75BFE0BB000BD00000064004051
:103AC000FFB581B004460D461646E0000749401890
:103AD000A9004758002F06D031463846049A05F011
:103AE000DBF905B0F0BD0020FBE70000C8100108BD
:103AF00070B505460C460123224600212846FFF7F3
:103B0000DFFF70BD10B50020104908701048007824
:103B1000042188430E490870084600780221884332
:103B20000B4908700B4800784007C00F002805D1EA
:103B300009480078042801D006F0C6FF064800783E
:103B4000042801D007F0E8F910BD0000650400204A
:103B50006C0400207B0400207704002000200B4927
:103B600008700B4800780421884309490870094807
:103B7000007804218843001D064908700846007833
:103B80000221884303490870704700006504002043
:103B90007B0400206C04002010B585480078800765
:103BA000C00F002800D110BD8248007803000DF03E
:103BB00053F9090622F2F2F22AF26E9BF2007C48D7
:103BC0000078042188437A49087001207A490870F6
:103BD00078480078401C77490870002077490870C1
:103BE000734800780821884308307149087005201F
:103BF00073490870D7E772480078002800D0D2E7F0
:103C00000CF044FF00BF6C480078032838D16D48A1
:103C10000078082806D16C480078022802D0FFF707
:103C20009DFF33E069480078C007C00F002824D109
:103C3000674800784007400F00281ED0654800788C
:103C4000C007C00F002818D1634800784007C00F94
:103C5000002806D15C480078002802D1FFF77EFFDB
:103C6000A1E705F045FB00205C4908700720514999
:103C70000870FA205A49087008E0FFF76FFF05E066
:103C80004D480078002801D1FFF73CFF8DE05348F4
:103C90000078012821DD53480078042805D04E48DB
:103CA00000784007C00F002803D02C204C49087032
:103CB0000CE0474800788007C00F002803D17D2022
:103CC0004749087002E0F420454908700820394946
:103CD000087000204149087005E04148007800283C
:103CE00001D1FFF70FFF60E03D480078002802D1C6
:103CF000FFF708FF4EE03948007801284ADD3648D2
:103D000000784007C00F00281BD031480078C0065B
:103D1000C00F002812D034480088344909888842EE
:103D200005D03348008831490988884208D12F4896
:103D30000088002804D0FFF711FF01E0FFF70EFF15
:103D400031E7234800784007C00F00280CD02948ED
:103D50000078042808D12848007828490978884242
:103D600001D1FFF7FBFE1EE7194800788007C00F5E
:103D700000280DD0224800780007C00F002807D186
:103D80001F480078C006C00F002801D10BE702E0F1
:103D9000FFF7E4FE07E700200649087004480078B2
:103DA000022188430249087000BF00BF00BFFAE645
:103DB0006C040020650400202A0400202B0400204D
:103DC0005704002054040020750400206E040020D5
:103DD000790400206B0400207B040020880400206C
:103DE0005904002077040020C0040020BE040020F5
:103DF000C20400203E010020D9040020D30400208A
:103E0000A904002010B5FFF713FA02F0DFF803F061
:103E1000C7FD0BF0D3FC02F01DFE0CF08DFD0CF085
:103E200091FC0CF02DFC28484069400840002649D0
:103E3000486100202549086025488069C904084375
:103E4000234988610846806909040843204988613C
:103E50000BF0AEF81C48C069FF21013108431A4934
:103E6000C8611A4800680121C9040843174908605D
:103E7000084603210902401800690002000A13499C
:103E8000032212028918086110481146401800697F
:103E9000890408430D49891808610E480E49C86213
:103EA00000200D49203108810B494862084680896D
:103EB00001210843084988810846008801210843F8
:103EC0000549088010BD00000010024000E100E03C
:103ED0000004004850C300000020004070B50446B4
:103EE000257A0A22002120460DF0D6F8257270BDF1
:103EF00000200C4908700C4908700C4908700C49E6
:103F000008700C4908700C4908700C4908700C497D
:103F1000487008700B49087048700B4908700B49CD
:103F20000870704777040020780400207504002092
:103F30007C0400207B0400207A0400207904002007
:103F4000BE040020C004002086040020A804002035
:103F500010B5D748007803000CF07EFF0A0607432F
:103F600099CDF2F1F0EFEEF0A0E1D1480089002800
:103F700000D09BE1CF480078002805D10520CC492E
:103F800008700020088191E1CB480078002800D11A
:103F90008CE10BF047F9C8200AF018FFC748006809
:103FA000032189068843C549086008460068C9039B
:103FB0000843C24908600846806901214903084353
:103FC000BE498861FFF7C0FB0CF0F4FBBCA003F016
:103FD00070FD5020B6490881022008700020487109
:103FE00064E100F011FA00F04FFA00F0BDF9B048BA
:103FF000807800280ED0AF480078002806D0B4485A
:104000008069012189030843B14988610320A849D7
:1040100008704BE1A648007900281CD0A54800781C
:10402000002803D0A4480078002807D1A848806958
:10403000012189070843A64988610CE0A54800785A
:104040004007C00F002806D0A148806901218903DC
:1040500008439F49886196480089002807D1954800
:104060000078002803D194480078002803D19248B2
:10407000007800280AD190480078002803D1012058
:104080008B49087002E00520894908700EE18948D3
:104090000078002803D08848007800282AD18C486E
:1040A0008069012189070843894988618948007826
:1040B000400840008749087004207D49087014209A
:1040C000088185480078002805D0844800780A21B6
:1040D00048437749088182480078002803D1FF20AF
:1040E0002D30734908817FA003F0E3FC03F094F9BD
:1040F00008F060FFDAE06F480078002821D06E48B1
:10410000007800281DD06A484078012806D1704800
:1041100080690121890308436D49886108F04AFFDD
:10412000C82003F0A7F9032061490870704801789E
:1041300070A003F0BEFCB9E094E06AE0B0E03AE0C1
:104140001BE05B480089002816D161488069012185
:10415000890708435E49886155484078012801D1A4
:104160000BF0E2F8142052490881052008706048DD
:10417000017865A003F09DFC98E05948007800287C
:1041800003D04B480089002814D15148806901218F
:10419000890708434E4988610AF0D0FF64200AF07D
:1041A00015FE534801785EA003F083FC06204049C9
:1041B00008707BE07AE002F025FF0FE05D480078B0
:1041C000002804D004F078FB00205A4908703B48CE
:1041D000008A20210840002800D100E0EEE700BF5F
:1041E000012080F3108800BF00205349087003F0BD
:1041F00013F910200AF0EAFD09F0F8FD002080F321
:10420000108800BF2A4948710820088101200870E1
:104210004CE02F4880690121890708432C498861B7
:1042200003F0FAF824480078002808D064202049D8
:1042300008810920087041A003F03BFC11E043A075
:1042400003F037FC234800784008400021490870FB
:104250001E201749088102203F4908700120144997
:10426000087023E012480089002800D01EE01248A0
:104270000078002808D012A003F01BFC14200C4981
:104280000881022008700AE034A003F012FC02202A
:10429000314908701420064908810120087005E0A2
:1042A0000820034908810120087000BF00BF10BD2D
:1042B00016050020EC000020F9000020000800484E
:1042C0000D0A204163632073746172740000000062
:1042D00000040048DB000020DD000020DE0000209C
:1042E000E90000200D0A2041636320646E00000095
:1042F000540400200D0A20416363206F6E20646C1B
:10430000793A2564200000000D0A20416363207380
:104310006C65657020646C793A25642000000000AB
:104320000D0A2041636320736C6565703A25642033
:104330000000000001010020DA0000200D0A204CDE
:104340006F77207374617274000000000D0A2052B0
:1043500065736574000000003D0100200D0A2041D6
:10436000636320776169740030B58BB02248807830
:10437000002801D00BB030BD1F480079002800D1C3
:10438000F8E71E480078002834D01D480078C006A1
:10439000C00F00282ED11B48008800282AD01948B9
:1043A0000088401E1749088000240025022221466B
:1043B000641C01A84254902001A908552146641CA0
:1043C00001A8405C45400F2001A908552146641C06
:1043D00001A8405C4540002001A908552146641C05
:1043E00001A8405C45402146641C01A84554214673
:1043F0000CF050FA00BFBDE716050020FF000020BA
:10440000DB000020E200002010B51A488078002868
:1044100000D010BD18480078002829D0174800782F
:1044200000280ED016480078C009002809D1144889
:10443000007820218843203011490870012009F0BC
:1044400033F80E480078002803D00E480078002882
:104450000ED10B4800784006C00F002808D108484C
:1044600000788006C00F002802D0022009F01CF856
:1044700000BFCEE716050020FF000020EF0000205F
:10448000DB000020EC00002010B50C4880780028EC
:1044900000D010BD09480079002800D1F9E708488C
:1044A0000078002808D0074800784007C00F00288F
:1044B00002D1012008F006FE00BFEAE71605002041
:1044C000FF000020DB0000200020084988700871F0
:1044D000C8701420088101200870487000204871BD
:1044E00003490870322003490880704716050020F0
:1044F000DF000020E200002007480078002800D1FB
:10450000704706480089002804D004480089401EEE
:104510000249088100BFF3E7FE00002016050020D5
:1045200015480078002800D170471448008A0821F7
:10453000084000280FD00020114908701148007869
:10454000401C1049087008460078642812DD0020DD
:104550000D4908700EE000200A49087008480078EC
:10456000401C0749087008460078022802DD012037
:104570000549087000BFD7E7FE000020000800488A
:10458000E7000020E8000020E9000020154800783E
:10459000002800D170471448008A202108400028D4
:1045A0000ED11249087012480078401C104908705A
:1045B00008460078022812DD01200E4908700EE03E
:1045C00000200B49087009480078401C0749087012
:1045D00008460078142802DD00200649087000BF54
:1045E000D8E70000FE00002000080048EA00002094
:1045F000EB000020EC00002028480078002800D1C3
:1046000070472748008A40210840002803D02548E9
:104610000078002820D00020234908702348007823
:10462000401C2249087008460078142834DD2048D0
:104630000078002830D101201D4908701D480078FD
:10464000802188431B49087015488069012149026F
:104650000843134988611FE000201449087012487C
:104660000078401C10490870084600781E2813DDA9
:104670000F48007800280FD000200D4908700D4821
:104680000078402188430B49087005488069012162
:10469000490608430249886100BFB1E7FE000020D7
:1046A00000080048B0020020EE000020ED000020CD
:1046B000EF000020DB00002010B546480078C0065F
:1046C000C00F002806D04348007810218843414994
:1046D000087006E03F4800781021884310303D49BB
:1046E00008703D48C0888005040E312C27DA3B480D
:1046F000808A08210840002808D002F08DFE374843
:104700008069012189070843344988613448007869
:1047100040084000324908700220324908700820E1
:1047200031490870FFF7D0FE0020304908702A4850
:10473000C2882D4801782EA003F0BBF949E0382C3F
:1047400020DA2648808A08210840002808D002F094
:1047500063FE224880690121890708431F49886157
:104760001F48007840084000401C1D490870012087
:104770001E4908701848C2881B48017821A003F020
:1047800098F926E06B2C09DD1548007840084000B8
:10479000134908700020154908701AE03A2C18DDFA
:1047A0000120124908700E480078C007C00F002889
:1047B0000FD00A48806901218903084307498861AD
:1047C000C82002F057FE064800784008400004491F
:1047D000087010BD78020020FC040020000400488E
:1047E000DB0000203D01002016050020F90000201C
:1047F0000D0A20426174204C6F773A25642C2564A1
:10480000000000000D0A20426174206F6E3A25649A
:104810002C25640019480078002800D170471848FA
:10482000008A012109030840002812D115490870A7
:1048300015480078401C1449087008460078142870
:104840001ADD12480078002816D101200F4908709F
:1048500012E000200C4908700A480078401C094901
:104860000870084600781E2806DD084800780028F1
:1048700002D000200549087000BFCFE7FE000020ED
:1048800000080048F1000020F0000020F2000020A5
:1048900019480078002800D170471848008A802104
:1048A0000840002812D11649087016480078401CAC
:1048B000144908700846007814281ADD1248007858
:1048C000002816D101201049087012E000200D497F
:1048D00008700B480078401C0949087008460078A9
:1048E0001E2806DD08480078002802D0002006496E
:1048F000087000BFD0E70000FE000020000800485C
:10490000F4000020F3000020F500002000201549ED
:10491000087015490870154908701549087015493F
:10492000087015490870154908701549087015492F
:10493000087015490870154908701549087015491F
:10494000087015490870154908700E480078144918
:10495000087012480078134908700D480078124911
:1049600008707047E7000020E8000020E900002000
:10497000EA000020EB000020EC000020ED00002009
:10498000EE000020EF000020F0000020F1000020E9
:10499000F2000020F3000020F4000020F5000020C9
:1049A000F6000020F7000020F800002010B5FFF707
:1049B000EDFDFFF7B5FDFFF77FFE01F0A1FD00283B
:1049C0000BD00648808A20210840002805D0FFF738
:1049D00013FEFFF71FFFFFF75BFF10BD0004004849
:1049E0000EB51049104800F0A9FD684600F0D6F851
:1049F000002168460171202000900C216846417119
:104A00000021817100F086F80721684601720021BB
:104A10004172817202A802F06BFD202000F066F85E
:104A20000EBD000000030C0C0340010000B5002087
:104A300016490870164908700AF07AFC002205E051
:104A400000205100134B5852501CC2B2062AF7DB0B
:104A500011481249088001208870C8700C20087124
:104A600000204871887102200D49087001200D490D
:104A7000087000200C4908800C4908700C49087027
:104A80000C4908700C49087000BD0000FC000020B3
:104A9000FD000020FC040020E30700000E010020C0
:104AA0001601002006010020080100200A01002054
:104AB0000B0100200D0100200C01002010B5022088
:104AC00000F01AF8002804D008F050F8022000F096
:104AD0000DF810BD10B5202000F00EF8002804D00D
:104AE00006F044F9202000F001F810BD01494861AA
:104AF000704700000004014001460020044A52694A
:104B00000A40002A01D0012000E000207047000088
:104B100000040140002120498279002A35D00A464C
:104B2000126803689A430B461A600A465268036883
:104B30009A430B465A60027951180A6803681A436F
:104B40000A60154A926803689A43134B9A601A46A2
:104B5000D26803689A43104BDA604279102A0CD16C
:104B60001A46926803681A430B4B9A601A46D26839
:104B700003681A43084BDA600DE00749427951187F
:104B80000A6803681A430A6005E0027951180A6846
:104B900003689A430A6070470004014000210160E5
:104BA00001710C21417100218171704770B50024A1
:104BB0002AE01848055D01F0C9FDC22001F05AFD48
:104BC000144A611C515CC907C90F0846E03001F066
:104BD00051FD104AA11C505C01F04CFD0D4AE11C36
:104BE000505C01F047FD261D04E00A49885D01F094
:104BF00041FD761CA8000019001DB042F5D801F057
:104C0000CBFDA8000019041D0248005DFF28D0D18B
:104C100070BD0000E4190108F8B507460C461546BA
:104C20001E462320009000201549C87008710846D0
:104C30004771FF2000042040000C8871FF20000213
:104C40002040000AC8710C72FF2000042840000CAC
:104C50004872FF2000022840000A8872CD72FF20AF
:104C600000043040000C0873FF2000023040000AAE
:104C700048738E7301220421009800F0B1FCF8BD46
:104C80001623002070B504462425FF200004204090
:104C9000000C0749C870FF2000022040000A08717C
:104CA0004C7101221146284600F09AFC70BD0000AC
:104CB0001623002070B50446202500200549C87041
:104CC00008710846447101221146284600F088FC0C
:104CD00070BD00001623002070B504460D460D205F
:104CE000400384421BD31B48844218D81E26FF2051
:104CF00000042040000C1849C870FF20000220402A
:104D0000000A08714C7100208871C871084605724C
:104D1000681CC2B20221304600F062FC18E0002696
:104D2000FF2000042040000C0B49C870FF20000247
:104D30002040000A08714C7100208871C871084633
:104D400005726800401CC2B20221304600F048FCE7
:104D500070BD0000FFBF010016230020F0B597B022
:104D6000002400201490139012900A2615908BE0D6
:104D7000182016900020B049C8700871701E15994F
:104D8000884203D10120AC49487102E00020AA49C1
:104D9000487106220121169800F022FCA648017BEA
:104DA000523881645230807BA34912398873A248FB
:104DB000407A0873A048807A48739F48807900043D
:104DC000FF210904084005469B48C07900020912EA
:104DD000084005439848007A05439848281A98499E
:104DE000884209D99548281A9649884204D293489E
:104DF000281A9549C8602EE00A212846FCF7FCFDD8
:104E00009249884206D90A212846FCF7F5FD8E49C9
:104E1000C86020E005212846FCF7EEFDAD21C90061
:104E200040188A49884214D205212846FCF7E4FD3F
:104E3000AD21C900401873210901884209D9052113
:104E40002846FCF7D9FDAD21C90040187E49C8604D
:104E500001E07D48C56078485238806C0419764876
:104E60001238817B14980818149073481238017B0B
:104E700013980818139070481238417B129808183C
:104E800012901598401C15901598B04200D26FE70B
:104E900031462046FCF7B0FD044631461398FCF736
:104EA000ABFD139031461298FCF7A6FD1290CD2C65
:104EB00002D21298C7B24CE0D72C0ED91298FDF747
:104EC00068FA634A634B0F910E90FDF765FA1191F2
:104ED0001090FDF711FAC7B23BE01298FDF759FAAE
:104EE0005B4A5C4B0B910A90FDF756FA0F910E90BE
:104EF000D721081BFDF74DFA099108901298FDF78C
:104F000048FA534A534B01910090FDF745FA059139
:104F100004901298FDF73DFA03910290059B049AC4
:104F2000FCF7A3FF07910690099B089AFDF734FA56
:104F30000022494B0B910A90FCF7BAFF0D910C909F
:104F40000F9B0E9AFCF784FF11911090FDF7D4F996
:104F5000C7B23D48807803281DDA404800784007F2
:104F6000C00F002803D03E480078082801D1BB2C90
:104F700007D23A4800784007C00F00280BD0D52C44
:104F800009D32D2F07DC1398192804D80620704365
:104F9000149988421BD22C488078032821DB2F48A3
:104FA00000784007C00F002803D02D48007808285B
:104FB00001D1AA2C07D2294800784007C00F002849
:104FC0000FD0C42C0DD331011498814209D91A484D
:104FD0005238C06F02218843801C17495239C86774
:104FE00007E015485238C06F0221884312495239F0
:104FF000C867154800691449C968884209D10E4834
:105000005238C06F04218843001D0B495239C867CC
:1050100007E009485238C06F0421884306495239D5
:10502000C86705485238C06F1021884310300249C4
:105030005239C86717B0F0BD16230020A0860100C2
:105040005CF3000088F40000C42000203219000046
:10505000333333333333E33F000024406B04002009
:105060005404002010B5112403220021204600F032
:10507000B7FA2748407940210840002809D0244841
:105080005238C06F09018843411821485238C1671E
:1050900008E01F485238C06F0121890288431C492B
:1050A0005239C8671A480079C007C00F00280AD0D3
:1050B00017485238C06F01214903884341181448EA
:1050C0005238C16708E012485238C06F01214903C5
:1050D00088430F495239C8670D48C078C007C00FD0
:1050E00000280AD00A485238C06F012109038843BA
:1050F000411807485238C16708E005485238C06F68
:1051000001210903884302495239C86710BD0000D4
:105110001623002070B50446252500202149C870BB
:10512000087108464471002C2CD104220121284624
:1051300000F056FA1B48C178523881645230007929
:105140001849123988731748807908731548C0794F
:1051500048731448407901280AD108464038C06F86
:10516000FF210131884340180E495239C86717E0C2
:105170000C485238C06FFF21013188430949523928
:10518000C8670DE003220121284600F029FA0548EE
:10519000C1785238816452300079024912398873DB
:1051A00070BD00001623002070B5044617250020AE
:1051B0000549C8700871A007800F48710122114687
:1051C000284600F00DFA70BD16230020F8B50446FD
:1051D0000D4616461F4614200090FF200004204074
:1051E000000C3749C870FF2000022040000A0871F7
:1051F0004C71FF2000042840000C8871FF20000241
:105200002840000AC8710D72FF2000043040000CD5
:105210004872FF2000023040000A8872CE72FF20E0
:1052200000043840000C0873FF2000023840000AD8
:1052300048738F73FF21090406980840000C204929
:10524000C873FF21090206980840000A1C49087427
:1052500006984874FF21090407980840000C184973
:105260008874FF21090207980840000A1449C8748D
:1052700007980875FF21090408980840000C104998
:105280004875FF21090208980840000A0C498875F2
:105290000898C875FF21090409980840000C0849BE
:1052A0000876FF21090209980840000A0449487657
:1052B0000998887601220821009800F091F9F8BD3C
:1052C0001623002070B504461525FF200004204059
:1052D00000140749C870FF20000220400012087126
:1052E0004C7101221146284600F07AF970BD000089
:1052F0001623002070B50446222500200549C870F9
:1053000008710846447101221146284600F068F9E8
:1053100070BD000016230020F0B587B00546FDE003
:1053200028780590069068780490A8780390E8782B
:105330000290002000906F783F02A87807433F0258
:10534000E87807437848874206D9072080038742D8
:1053500005D37648874202D80320019012E00D2041
:105360004003874205D37248874202D81F2001902C
:1053700008E01B200003874204D36E48874201D80F
:105380001F2001900198032844D100243AE06A4983
:105390000498C8700398087102984871A100281DEC
:1053A000405C65498871A100681D405C6249C87114
:1053B000A100A81D405C604908720846C079487287
:1053C0000846007A8872A100E81D405C5A49C872FC
:1053D00001220321019800F003F9049E360203988C
:1053E0000643360202980643761CFF200004304034
:1053F000000C0490FF2000023040000A0390F0B23D
:105400000290641C06988442C1D305988000001D58
:105410002D1883E001981F28FBD148E046490498E5
:10542000C870039808710298487100241CE0A1001C
:10543000281D09180098095C60002018801D3E4A4C
:105440001154A100681D09180098095C600020181B
:10545000C01D1154A100A81D09180098095C600026
:10546000201808301154641C072CE0D301220821B5
:10547000019800F0B5F8049E360203980643360200
:1054800002980643F61DFF2000043040000C0490F3
:10549000FF2000023040000A0390F0B20290009812
:1054A0001C30C0B200900698C01FC0B2069006988B
:1054B0000728B3DC20490498C87003980871029843
:1054C000487100241CE0A100281D09180098095CFF
:1054D00060002018801D184A1154A100681D091889
:1054E0000098095C60002018C01D1154A100A81D7F
:1054F00009180098095C6000201808301154641CD9
:1055000006988442DFD30698401CC1B2012201985C
:1055100000F066F805988000001D2D182878FF28F7
:1055200000D0FDE607B0F0BDFF9F0100FFFF0100C6
:10553000FFAF0100FFBF01001623002070B5044635
:105540000D460D204003844220D3234884421DD8B9
:105550001F26FF2000042040000C2049C870FF20B7
:1055600000022040000A08714C71FF20000428400E
:10557000000C8871FF2000022840000AC8710D72DB
:1055800001220221304600F02BF824E00326FF2000
:1055900000042040000C1149C870FF200002204088
:1055A000000A08714C71280E8871FF200004284001
:1055B000000CC871FF2000022840000A087208464B
:1055C000C07948720846007A8872CD7201220321A0
:1055D000304600F005F870BDFFBF01001623002023
:1055E00070B504460D46164601211348C17390203C
:1055F00011490F31487000208870F02020400011C0
:105600000F3988742007000E12314870681CC006DC
:10561000C00E8870691CC8B20122032100F0E8F8AE
:10562000012E07DBEB2004490F318870032130463F
:1056300000F004F870BD000004230020F8B5064611
:105640000F46354601F082F8C22001F013F8002F12
:1056500002D0032F38D138E06449C97BC807C00F96
:1056600001F008F861490F31487801F003F85F490B
:105670000F31887800F0FEFF01F08EF8042009F069
:105680008DFC01F063F8C32000F0F4FF042009F062
:1056900085FC00F0B1FF5549887400F03DFF00F033
:1056A000ABFF52491231487000F036FF00F0A4FF02
:1056B0004E491231887000F02FFF00F09DFF4B49DA
:1056C0001231C87000F058FF8CE04849C97BC90707
:1056D000C90F0846703000F0CDFF44490F314878BB
:1056E00000F0C8FF41490F31887800F0C3FF01F096
:1056F00053F8042009F052FC01F028F8C32000F010
:10570000B9FF042009F04AFC681C002841D100F0D0
:1057100073FF3649887400F0FFFE00F06DFF3349D7
:105720001231487000F0F8FE00F066FF2F49123188
:10573000887000F0F1FE2D4812308078C506ED0E1D
:10574000012422E000F058FF61006118274A12325C
:10575000505400F0E1FE00F04FFF61006118491C59
:10576000224A1232505400F0D7FE00F045FF61008B
:105770006118891C1D4A12325054AC4202D100F00B
:10578000FBFE01E000F0C8FE641C681C8442D9D313
:1057900027E0002423E000F02FFF61006118134A86
:1057A0001232505400F0B8FE00F026FF610061187C
:1057B000491C0E4A1232505400F0AEFE00F01CFF9D
:1057C00061006118891C094A12325054681EA042B7
:1057D00002D100F0D1FE01E000F09EFE641CAC425C
:1057E000D9D300BF00BF00F0D7FFF8BD04230020CD
:1057F000F7B583B00746164600200090019002904E
:1058000000F0A4FFC22000F035FF0498002802D069
:10581000032825D125E04F49C97BC907C90F084690
:10582000803000F027FF4B490F31487800F022FF0D
:1058300048490F31887800F01DFF4649887C00F008
:1058400019FF44491231487800F014FF41491231E0
:10585000887800F00FFF3F491231C87800F00AFF46
:1058600072E03C49C97BC907C90F0846F03000F017
:1058700001FF38490F31487800F0FCFE35490F31FF
:10588000887800F0F7FE00254DE069006918314A7C
:105890001232505C00F0EEFE69006918491C2D4A76
:1058A0001232505C00F0E6FE69006918891C294A32
:1058B0001232505C00F0DEFE002E33D0022420E0D5
:1058C000A00069460858690069180919214A12326E
:1058D000515C4018A1006A465050A0006946085823
:1058E000FF280DD9601E80000858401C611E8900E9
:1058F0005050A00069460858FF380138A1005050A8
:10590000641E002CDCD169006918124A1232515C05
:105910000098401800900098FF2803D90098FF389D
:10592000013800906D1CBD42AFD3002E0BD0009902
:10593000C8B200F09FFE0199C8B200F09BFE029928
:10594000C8B200F097FE00BF00BF00F025FF06B010
:10595000F0BD000004230020FEB505460026002708
:10596000002001900090424880684249884222D934
:105970003F488068404988421DD200240BE0022045
:10598000FFF7C8FB3D48806C86193C484030807B5F
:10599000C719601CC4B2AC42F1DB29463046FCF7A3
:1059A0002BF83649886429463846FCF725F83349F0
:1059B000403188735AE02E4880683149884238D98E
:1059C000002417E00020FFF7A5FB2C48806C861907
:1059D0002A484030807BC71928484030017B019815
:1059E0000818019025484030417B00980818009025
:1059F000601CC4B2AC42E5DB29463046FBF7FCFF35
:105A00001E49886429463846FBF7F6FF1B4940319A
:105A1000887329460198FBF7EFFF18494031087356
:105A200029460098FBF7E8FFC1B2144840304173A3
:105A30001CE000240BE00120FFF76CFB0F48806C9A
:105A400086190E484030807BC719601CC4B2AC4236
:105A5000F1DB29463046FBF7CFFF08498864294629
:105A60003846FBF7C9FF054940318873FEBD000089
:105A7000C42000205CF3000088F40000C422002051
:105A80003219000000B585B01A491B48FFF756FDD2
:105A90000121480403F09CFA202000900021684670
:105AA00001710321417100218171C1716946092091
:105AB000C00600F021FA03A8FFF770F8002168463D
:105AC0000174202003900C216846417401218174E7
:105AD00003A8FFF71FF807216846017200214172F1
:105AE0000121817202A801F003FD2020FEF7FEFFD4
:105AF00005B000BD00130C0C0340010008B58B4835
:105B00000078C007C00F002800D108BD8848007881
:105B1000801E03000BF0A0F905047CA1DEF97B00D8
:105B200000BF00210091834800781C21484382492E
:105B30004018801C81490978415C684601700188E1
:105B40007FA001F0B6FF68460078002851DD684666
:105B50000078CD284DDA7E480078012807D07C48AF
:105B6000007804280CD17B480078022808D06846C9
:105B700000884004010C009168460088764908803E
:105B80007549088800F0ACFA7449886806F0CAF8CC
:105B900003F07AFB032066490870002070494870C2
:105BA000087005F095F905F0B7F96E4800784021C6
:105BB00088436C4908700846007820218843694969
:105BC00008700846007880218843664908700020E4
:105BD0006549087065480078082188436349087062
:105BE0000020634908706349087006206249087004
:105BF0008BE752480078401C5049087008460078EE
:105C000019288EDB06204A49087000BF00BF8AE0D1
:105C1000544800788006C00F002809D02E2056492D
:105C2000087004204249087054A001F042FF13E0BC
:105C30005148007800280FD140480078401C3F4967
:105C4000087008460078192803DB062038490870D8
:105C500002E002203649087065E0434800780007FA
:105C6000C00F00281ED040480078C006C00F002892
:105C700018D005202E49087045480078082188432F
:105C80000830434908700520424908700020424905
:105C900008702E20414908703748017840A001F073
:105CA00008FF16E034480078002812D140A001F027
:105CB00000FF22480078401C204908700846007800
:105CC000192803DB06201A49087002E0022018494F
:105CD000087028E0244800780007C00F002813D07F
:105CE00021480078C006C00F00280DD02848007851
:105CF0004006C00F002807D00C4800788007C00F6E
:105D0000002801D101E700E000BF08480078400802
:105D100040000649087003F037FC04F0D5FE29A0C6
:105D200001F0C7FE00BF00BF00BFEEE6EC0400209C
:105D3000E6040020E7040020E41F0020ED0400201A
:105D40000D0A20456F6E20537461743A2578000067
:105D5000DC000020380400203C040020C420002087
:105D6000BE0400207B040020A90400207C04002045
:105D7000AA040020AB040020EA0400200D0A2045FC
:105D80006F6E2050492045786973742E200A0000F8
:105D90007A0400207504002078040020A00400206C
:105DA0000D0A20456F6E544120666E643A257800D6
:105DB0000D0A204E65787420456F6E202041462ED6
:105DC000200A00000D0A20456F6E204465742045AE
:105DD0006E642E200A0000000149C8607047000070
:105DE0000020024010B503460B20000400F042F8EA
:105DF0000446012C17D10D480069022108430B49C4
:105E00000861084643610069402108430749086169
:105E10000B20000400F02EF804460448006902211B
:105E2000884302490861204610BD0000002002405E
:105E300000B500F013F83520FFF7CEFF00BD0000DD
:105E40000348006980210843014908617047000048
:105E50000020024001460A6890B270470248034998
:105E600048600348486070472301674500200240AE
:105E7000AB89EFCD014616E00E48C068C007C00FE1
:105E8000002800D00FE00B48C06810221040002806
:105E900000D008E00748C06804221040002800D065
:105EA00001E0012070470846491E0028E4D100BFE8
:105EB000F8E700000020024030B503460C460B20F6
:105EC0000004FFF7D7FF0546012D11D109480069ED
:105ED00001210843074908611C800B200004FFF7DB
:105EE000C9FF0546034800694008400001490861B0
:105EF000284630BD00200240F0B50A4600210023AC
:105F0000002400BF3DE001258D402B4615681D4053
:105F10002C469C4234D11579012D02D01579022DE1
:105F200016D185684F000326BE40B543856055797C
:105F30004E00B540866835438560858801268E40D1
:105F4000B5438580858896798E40B6B23543858085
:105F500005684F000326BE40B543056015794E0025
:105F6000B540066835430560C5684F000326BE404E
:105F7000B543C560D5794E00B540C6683543C560A8
:105F8000491C1029BFD3F0BDF0B5002300244D07F4
:105F9000EE0E1546B5402B46CD10AE000546203519
:105FA000AD594E07F70E0F26BE40B543CE10B600D2
:105FB00007462037BD51CD10AE003D46AD591D43BB
:105FC0002C46CD10AD003E467451F0BD7047002008
:105FD0007047F8B505460E460027002404E060002F
:105FE000285AC719601CC4B2B442F8DB314638469F
:105FF000FBF702FD80B2F8BD70B505460C461E48A1
:10600000007840001D4A81182846FCF747FB00280D
:1060100000D170BD184909784900184A505A102219
:10602000174900F04BFD002803D0002012490870EA
:10603000EFE7124A1188104A127852000F4B985A13
:10604000102200F03BFD002802D10B490870E0E768
:1060500009480078401CC0B207490870082809D3D5
:1060600008210648FFF7B5FF20800020024908708C
:106070000120CEE70020CCE7F20100204C0C0020EC
:10608000FF0F000030B504460D4600210AE00A204B
:106090004843C0188079A04202D12970012030BD48
:1060A000481CC1B29142F2DB0020F8E708B509F0C4
:1060B0003FFE01464A79684642708A79027000883C
:1060C00008BD000070B504460D462101034A88183A
:1060D0000122294602F01EFF70BD0000B40200201C
:1060E0003EB50546FFF7E2FFA84202DAFFF7DEFF02
:1060F000054609F01DFE0446E178684641712179A4
:106100000171E1794170217A01708188164801643A
:10611000684601881448C16314480078C007C00F5E
:10612000002809D060780A2148430F49403108719E
:10613000A0780F4908700BE060780A2148430A49AB
:1061400040310871A0780A21FBF760FC084908700B
:1061500068468188064800786843081881B2029131
:10616000684600893EBD0000C42200206B04002068
:10617000DC1B00207CB5064635462B48866009F0BE
:10618000D7FD0446E1786846417121790171E179D2
:106190004170217A01708188244801646846018831
:1061A0002248C16322480078C007C00F002809D0E8
:1061B00060780A2148431D4940310871A0781D4983
:1061C00008700BE060780A21484318494031087193
:1061D000A0780A21FBF71AFC164908706846008867
:1061E000A84209DC684601888088081A85B268469A
:1061F00000880D49886009E068468088A84204DC70
:1062000068468088281A85B200E000250948017890
:106210002846FBF7FBFB0849088008460288314600
:1062200006A001F046FC7CBDC4200020C422002052
:106230006B040020DC1B00203C0400200D0A2073AE
:10624000656C65637420667265203D203A25642C78
:1062500025782C000520C0060921C9060860002009
:106260002449086024490860244908600920C006C0
:106270000068234908430921C90608601D480068D1
:10628000032108431B4908601B4800681D49084357
:1062900019490860084680691B4908431649886106
:1062A0001448006819490843124908600846806884
:1062B0000F21090508430F4988600846808803219B
:1062C000890208430B4988800846806910490843C1
:1062D000084988610920C00600680E490843092161
:1062E000C9060860084680690B4908430921C906A8
:1062F000886170470004004800080048000C00480E
:106300000F330000150304040000142254555011EB
:1063100040003E4C5004404100002C981CB55848A9
:1063200040685749886108468068C8610846C06867
:106330000862084600694862084640698862084663
:10634000006B402188434E49098E8907C90F890196
:106350004022114008434A4908630846006B8021E7
:1063600088434749098E4907C90FC9018022114056
:106370000843434908630846006B5100884340497D
:10638000098E0907C90F09025200114008433C4910
:1063900008630846006B510088433949098EC906D5
:1063A000C90F4902520011400843354908630846A5
:1063B000006B510088433249098E8906C90F890252
:1063C0005200114008432E4908630846006B022121
:1063D00088432B4908630846006B042188432849F9
:1063E00008630846006B082188432549086308466E
:1063F000006B10218843224908630846006B202166
:1064000088431F4908630846006B40084000401C51
:10641000086300240846008E4006C00F002801D003
:10642000012004431648008E0006C00F002801D04A
:10643000022004431248008EC005C00F002801D07E
:10644000042004430E48008E8005C00F002801D0B0
:10645000082004430A48008E4005C00F002801D0E0
:10646000102004430648806A0549496A009101905A
:106470000348036AC2698169204604F081FC1CBD9F
:106480004423002010B5184800788007C00F00286A
:1064900024D101211548FEF71FFC1548C078154985
:1064A0000860084600680002086011480079096821
:1064B00008431049086008460068000208600C485C
:1064C0004079096808430B4908600B490748FFF702
:1064D00035F801210548FEF7FFFB04E00548016897
:1064E0000248FFF72BF810BD6B040020D6B0010066
:1064F00016230020F8040020FFFF7F0000BFFEE706
:106500000448008A20210840002801D1012070475A
:106510000020FCE70008004810B5164880690121FA
:106520008906084313498861012008F05DFC114881
:1065300080690121C90608430E498861012008F0DD
:1065400053FC0C488069012189020843094988618C
:10655000012008F049FC07488069012189060843A9
:1065600004498861012008F03FFC012008F03CFC50
:1065700010BD00000004004810B51E4880690121CC
:10658000890608431B498861012008F02DFC194841
:1065900080690121C902084316498861012008F079
:1065A00023FC14488069012189020843114988614C
:1065B000002404E0022008F0F1FC601CC4B20A2CA4
:1065C00006DA0C48008A0121890208400028F1D02F
:1065D000012008F009FC0748806901218906084369
:1065E00004498861012008F0FFFB012008F0FCFB52
:1065F00010BD00000004004800B51D48806901215D
:10660000890608431A49886100F0ECF81848806947
:106610000121C90208431649886100F0E3F800F03F
:10662000E1F8002200231EE011488069012189065B
:1066300008430F49886100F0D5F80D4880690121B1
:10664000890208430A49886100F0CCF85006020E1E
:106650000748008A0121C9020840002801D0012012
:106660000243581CC3B2082BDEDB104600BD0000FD
:106670000004004830B502461546334880690121C0
:10668000890608433049886100F0ACF800232AE00D
:106690002D4880690121890608432B49886100F053
:1066A000A1F880202840002807D0274880690121D0
:1066B000C90208432449886106E023488069012112
:1066C000C90608432049886100F08CF81E4880699B
:1066D0000121890208431C49886100F083F868069B
:1066E000050E581CC3B2082BD2DB17488069012164
:1066F000890608431449886100F074F812488069DB
:106700000121C90208431049886100F06BF80E4866
:1067100080690121890208430B49886100F062F811
:10672000142409E00848008A0121C9020840002811
:1067300000D106E000F056F82046611ECCB20028D9
:10674000F0D100BF30BD00000004004800B5114882
:1067500080690121C90208430E49886108468069A1
:106760000121890208430B49886100F03BF8094880
:1067700080690121C90608430649886100F032F8A2
:10678000044880690121890608430249886100F0B4
:1067900029F800BD0004004800B5114880690121B6
:1067A000890608430E498861084680694904084300
:1067B0000B49886100F016F80948806901218902B7
:1067C00008430749886100F00DF8054880690121F8
:1067D000C90208430249886100F004F800BD0000C6
:1067E00000040048002001E0411CC8B20128FBDB86
:1067F0007047000000B585B00121022007F07AFC47
:106800000121C80402F0B4FB022001900021684677
:10681000017203214172002181720121C17201A91B
:106820001048FFF769FB03A8FEF7B8F90021684696
:106830000174022003900C21684641740121817487
:1068400003A8FEF767F90521684601700021417031
:106850000121817000F04CFE0220FEF747F905B0DF
:1068600000BD00000008004800212E4A1278052AC9
:1068700003D02C4A1278072A01D12B492CE0294A4F
:106880001278012A01D1294926E0264A1278022AE3
:1068900003D0244A1278032A01D125491CE0214A59
:1068A0001278032A01D1234916E01E4A1278082AD9
:1068B00001D1214910E01B4A1278042A01D11F4955
:1068C0000AE0184A1278062A01D11D4904E0154A47
:1068D0001278092A00D11B491B4800BF0A88028090
:1068E000194A1632904200D102E0891C801CF5E75B
:1068F00000BF0C4A1278062A03D00A4A12780A2AE4
:106900000ED111480C30114900BF0A8802800E4A8E
:106910001632904200D102E0891C801CF5E700BFCE
:1069200070470000DC000020E81201080013010895
:1069300018130108301301084813010860130108F7
:10694000781301089C130108161C002090130108FD
:106950000021314A1278052A03D02F4A1278072ADB
:1069600001D12E4936E02C4A1278012A03D02A4A56
:1069700012780A2A01D12A492CE0274A1278022AE1
:1069800003D0254A1278032A01D1264922E0224A5F
:106990001278032A01D124491CE01F4A1278082AE0
:1069A00001D1224916E01C4A1278042A07D1204A54
:1069B0001278022A01D11F490CE01F490AE0164A49
:1069C0001278062A01D11D4904E0134A1278092AD7
:1069D00000D11B491B4800BF0A880280194A223295
:1069E000904200D102E0891C801CF5E700BF0A4AF2
:1069F0001278042A0ED10F491248183000BF0A88B5
:106A00000280104A2232904200D102E0891C801C90
:106A1000F5E700BF70470000DC000020BC11010852
:106A2000E011010804120108281201084C120108A3
:106A300038040020DC1201087012010894120108C9
:106A4000B8120108E61B002000B5FFF781FFFFF731
:106A50000BFF00BD0EB56846FEF7A0F800216846A2
:106A60000171022000900C21684641710021817162
:106A7000FEF750F8052168460172002141728172CB
:106A800002A800F035FD0220FEF730F80EBD10B56B
:106A900008F0ECFEFFF7AEFE10BD30B504460D4623
:106AA000002107E0685CA04202D11970012030BDCE
:106AB000481CC1B29142F5DB0020F8E710B503464F
:106AC0008B4201D9581A00E0C81A0446944201D8F2
:106AD000012010BD0020FCE710B50F490888C11740
:106AE000890F091889108900411A12D10A490888AA
:106AF0006421FAF78BFF002901D0012010BD06495F
:106B00000888FF219131FAF781FF002901D1012086
:106B1000F4E70020F2E700000E0100200020054904
:106B2000087005490870054908700549087005494D
:106B3000087070471F010020200100201C01002068
:106B40001D0100202101002010B5044620790128F4
:106B500016D12078A178884228D02078A070E078DB
:106B6000002802D10C20607120E0E078012802D0DA
:106B7000E07802281AD17D2060710020A07115E014
:106B80002079002812D1E078022802D0E07801288C
:106B900009D1A079002806D16079712803DC20781A
:106BA000012100F067FF2046FDF798F910BD00B500
:106BB00002465079002822D05079401E50715079F9
:106BC00000281CD1D078002804D11078012100F0D1
:106BD00051FF14E0D078012806D15078012100F04F
:106BE00049FF012090710AE0D078022807D150783F
:106BF000012100F03FFF012090710A20507100BD7B
:106C0000FFB581B00F4616461D4669460198FBF751
:106C100045FD002801D105B0F0BD00241EE00A208A
:106C2000604380194188322268460088FFF746FF9A
:106C3000002811D0012028710A2060438019807932
:106C400028700A2060438019C07968700A20604368
:106C50008019007AE87003E0601CC4B2BC42DEDB3D
:106C600000BFBC4201D1002028712846FFF76CFF0D
:106C70002846FFF79CFF00BFCDE7000010B50020BD
:106C800077E0032837DA002114E0504A5279FF23D5
:106C900009335A434E4BD2184301D218121D8B00B0
:106CA000D458842242434B4BD21814328B00D45018
:106CB0004A1CD1B20629E8DB444A5279FF23093342
:106CC0005A43434BD2184301D45884224243414B88
:106CD0009C503E4A5279FF2309335A433C4BD21809
:106CE0004301D218147F842203465343394A9A1829
:106CF000803294703BE0002116E0344A5279FF2341
:106D000009335A43324BD2184301D218121D8B005B
:106D1000D458C21E24235A432C4B703BD218121D48
:106D20008B00D4504A1CD1B20629E6DB274A52799F
:106D3000FF2309335A43264BD2184301D458C21EAD
:106D400024235A43214B703B9C50204A5279FF2305
:106D500009335A431E4BD2184301D218147FC21E66
:106D600024235A43194B703BD21820329470421C92
:106D7000D0B2032885DB154A5279FF2309335A43E1
:106D8000134BD2188032536C104A403AD3634032CE
:106D90005279FF2309335A430D4BD2188032936C3A
:106DA0000A4A403A136440325279FF2309335A4366
:106DB000074BD218C03212780A235A43034B1A7178
:106DC0000022044B443B9A7010BD000004230020B5
:106DD000B41301080821002000B587B0142101A8D0
:106DE000FAF708FE06A90320FFF76CF9002801D185
:106DF00007B000BD6846007E03000AF02DF8068C3F
:106E000004192E8A8B8C00200190454802900021A5
:106E1000684641730421017308218173082200210F
:106E20000F300AF039F901A93E48FCF780FD73E004
:106E3000212000010190002002900021684641734A
:106E4000017308218173082237490F300AF016F9BF
:106E500001A93448FCF76BFD5EE03348C0780006BA
:106E600031498978090408432F49497809020843C0
:106E70002D4909780843401C00280AD1212000012F
:106E800001900290022168464173002101738173D1
:106E900033E025480079002817D12348C078000640
:106EA00021498978090408431F49497809020843A0
:106EB0001D4909780843019000200290002168468E
:106EC000417301730821817317E000200190164877
:106ED000C0780006144989780904084312494978A2
:106EE00009020843104909780843029000216846C6
:106EF0004173042101730821817308220A49491D45
:106F000003A803300AF0BAF801A90648FCF70FFD00
:106F100002E000BF00E000BF00BF00BF68E7000064
:106F20001314000000640040310F002000202B49A2
:106F30000860FFF78FFDFDF753FD0220FDF7D6FD3A
:106F40002020FDF7D3FD00210120800708F0D8FBA9
:106F500008F034FCFCF76CF9FFF738F800F020FD7E
:106F600009F0EAFC09F08CFB1D484069400840002C
:106F70001B49486100201B49886008211A4809F014
:106F80007FFA0821174809F07BFA0821174809F011
:106F900077FAFEF74DFF1648FEF724FF154914480F
:106FA000FEF78AFFFEF74CFF1148FEF753FF124928
:106FB00008800120C0064068104908600846006843
:106FC0000F4908600121C906086880F3088800BFDE
:106FD0000B480068804700BFFEE7000000E100E0CA
:106FE000001002400044004000380140004C0040C6
:106FF0000010000817830000D8000020C8000020FF
:10700000C400002010B5FDF781FC0020184908805D
:10701000184908801849088018490880002404E0AD
:10702000002017490855601C84B2012040028442A8
:10703000F6DB0020134908701349088013490870D3
:1070400013498870C8700871124908701248806925
:1070500001218904084310498861012080F31088C8
:1070600000BFFCF7CFFE002080F3108800BF10BDEA
:10707000380100203A0100203201002034010020B4
:10708000430700200601002008010020DB0000204B
:10709000160500200B0100200008004870B59A4832
:1070A0000078002804D001285BD0022872D1DAE0F1
:1070B00096480078C007C00F002821D09448007877
:1070C000042811D19348007802280DD09148007807
:1070D000032809D08F480078042805D08B48007811
:1070E0008006C00F00280BD1884800784008400077
:1070F0008649087000208849087003F0E5FC70BDDF
:1071000086480078C007C00F002829D08048007842
:10711000042825D182480078002809D081480078C9
:1071200000281DD079480078C007C00F002817D06C
:1071300079480078002813D17B480078C007C00F39
:1071400000280DD13E20764908700120774908704B
:107150000020774908706C480078401C6A49087024
:10716000CEE07348007805287CDB05217148FCF7E8
:1071700095FAC4B2232C01DD4E2511E01E2C01DD51
:107180003A250DE0192C01DD272509E0142C02DD3C
:10719000132505E0B3E00F2C01DD092500E00925EA
:1071A00060480078A84201DD5E480570022C03DCCF
:1071B000E82500205B49087058480078C007C00FD8
:1071C000002847D051480078C007C00F002841D0A0
:1071D0004E4800788006C00F00283BD01E2C2BDACA
:1071E00050480078002833D153480078C006C00EBC
:1071F000002814D051480078002803D15048007866
:1072000000280CD0414800788006C00F002806D026
:107210004C480470FCF762FA01203F4908703B4873
:10722000007840084000394908703E203C49087009
:107230000020354908700BE03448007840084000D1
:10724000324908709C203649087000202E49087089
:1072500055E707E02C480078401C2B4908700020B7
:10726000334908704CE032480078052846DB052198
:107270003048FCF713FAC4B21E2C39DA29480078DA
:10728000002824D12C480078C006C00E00280DD15B
:107290002A480078002803D12948007800280FD018
:1072A0001A4800788006C00F002809D025480470CD
:1072B000FCF714FA3A201B4908700120164908709F
:1072C0003E201749087000200F49087016E0144846
:1072D0000078002812D13E2011490870012013497E
