:020000040800F2
:10000000C80A002065010008910200089302000858
:1000100000000000000000000000000000000000E0
:100020000000000000000000000000009502000831
:10003000000000000000000097020008990200087C
:100040007701000877010008770100089B0200088B
:100050007701000801030008770100080B0300087E
:100060007701000877010008770100087701000890
:1000700077010008770100087701000815030008E0
:100080007701000877010008770100087701000870
:100090007701000877010008770100087701000860
:1000A0007701000877010008770100087701000850
:1000B0009D02000827030008770100087701000867
:1000C00000F002F800F03EF80CA030C80838241800
:1000D0002D18A246671EAB4654465D46AC4201D180
:1000E00000F030F87E460F3E0FCCB6460126334274
:1000F00000D0FB1AA246AB4633431847F80700006E
:1001000018080000103A02D378C878C1FAD852070C
:1001100001D330C830C101D504680C6070470000BD
:100120000023002400250026103A01D378C1FBD813
:10013000520700D330C100D50B6070471FB51FBDFB
:1001400010B510BD00F0A3FB1146FFF7F7FF00F05C
:100150003BF800F0BBFB03B4FFF7F2FF03BC00F079
:10016000C1FB00000748804707480047FEE7FEE75D
:10017000FEE7FEE7FEE7FEE704480549054A064BB1
:10018000704700005F020008C1000008C80400209A
:10019000C80A0020C8060020C806002010B50021AB
:1001A00001235B078A008458D2181460491C302947
:1001B000F8D32B48816901221143816129490868DC
:1001C00003221043086010BD274800F03BF927497F
:1001D000884233D10120C006FFF7E0FF00F0F6F8B7
:1001E00023480068C0071BD100F0F3FA00F0A4FA1E
:1001F00000F0C8FAA02000F015FA1E48016803229A
:100200009206914301600168C20311430160816954
:100210005213114381611848816952001143816171
:1002200000F0A4F9154800F0FEF80D48C169C214A9
:100230001143C1611249BF2008600FE011490868ED
:10024000114A104001225207904207D148680F4AD4
:1002500050601060096881F308888047FEE77047A6
:100260000010024000000140001000081783000049
:10027000004400400008004800040048FFFF000060
:10028000002C0040001800080000FE2FC0000020D5
:10029000704770477047704770477047F0B5244A01
:1002A000D069244C810609D520211162A588224EEF
:1002B000224F31884B1C7D54D9B23180010618D5AC
:1002C0001F4911621F4B204D19882E881F4DB142C6
:1002D00009D00E461E4F491CBE5D2681C9B2198049
:1002E0000121297005E000212970116880239943BC
:1002F0001160000703D5106A082108431062F0BDA1
:1003000010B50A2000F08EF910BD10B50A2000F0DB
:1003100089F910BD10B500200121890708610A2064
:1003200000F080F910BD10B50A2000F07BF910BD77
:100330000044004020440040D20000206803002018
:1003400007010700D0000020CE000020CC000020D4
:10035000680200203D490AE0CA68D20707D1CA688E
:10036000D20604D4CA68520701D400207047401E48
:10037000421CF1D10120704770B504460B252D04B5
:100380002846FFF7E7FF00280FD1304B18690226F7
:10039000304318615C6118694021084318612846A0
:1003A000FFF7D8FF1969B143196170BD2749C860CB
:1003B000704726482649416026494160704700B58C
:1003C000FFF7F7FF3520FFF7F1FF00BD70B5224CB6
:1003D000FFF7F5FF214E25142046FFF7CDFF01283A
:1003E00002D06419B442F7D370BD18480169802265
:1003F00011430161704770B504460D460B26360463
:100400003046FFF7A7FF00280CD1104B18690121D7
:100410000843186125803046FFF79CFF1969490899
:100420004900196170BD30B50546FFF7C8FF0C4C97
:100430002046FFF7A1FF29462046FFF7DCFFFFF724
:10044000D4FF30BD006880B2704700000020024039
:1004500023016745AB89EFCD0018000800000208B2
:1004600000100008704700B585B002236A460121DC
:10047000137081235370C5239370D170452110717F
:10048000484006215071684600F032F905B000BDC1
:1004900030B56A4CE17896290FD8694A00209070EF
:1004A0002546C83507E023181B792B5493785B1C2D
:1004B0009370401CC0B28842F5D330BDF0B561489E
:1004C000614A00881188884201D10120F0BD88422C
:1004D00002D9401A80B204E0FF2301335B1A1818D6
:1004E00080B2042801D20120F0BD574B574D1B8824
:1004F0006C5C5B1C9FB2022C03D0F8B21080012010
:10050000F0BDDBB2EB5C802B05D0812B03D0F8B2C1
:1005100010800120F0BDCB1CDBB2EB5C5B1DDBB2BD
:10052000872B03D9F8B210800120F0BD984201D288
:100530000120F0BD00240A460020404E07E0434D54
:10054000AD5C35546C40521CD2B2401C80B2984213
:10055000F5D3022C04D03C48F9B201800120F0BD53
:10056000394AC818C0B210800020F0BDF8B5FFF7B6
:1005700026FF00F06FF80120FFF775FF0224304FCF
:1005800000203870B8707870314E22E0FFF796FF87
:100590000128FBD029498878C62804D0C42804D073
:1005A000C52808D008E0032406E0042408790128BF
:1005B00002D1022400E00124022C0DD0032C0FD024
:1005C000042C2AD000203870787001240020387064
:1005D0007870002CDAD1F8BD0120FFF744FFF5E771
:1005E000FFF756FF0025B878002812D01348C8300E
:1005F00041194978405D0902081881B23046FFF779
:10060000FAFEB61CAD1CEDB2B8788542EED30020E0
:10061000B8700120FFF727FFD8E700240120FFF77B
:1006200022FFD3E700227D231B0104E00021491CA7
:100630009942FCD3521C8242F8D37047D800002064
:10064000C8000020D2000020D40000206803002051
:100650000018000830B533480022428082800270C2
:10066000C28002813048016901235B0419430161A2
:10067000016999430161C1699943C16141694908AF
:10068000490041610921C9060C68A0252C430C6072
:100690008C68F0252C438C600C6AFF252D02AC433E
:1006A0000C620C6A11252D022C430C621F498A60D2
:1006B0000A68520852000A6002691A43026102691C
:1006C0009A430261C2691A43C2611948026803056C
:1006D0001A4302602C200860FF201730C8600868A9
:1006E000012210430860086880221043086030BD72
:1006F000F0B500220B4F0F4D08E006787B88401CB8
:100700005C1CEE54E3B27B80521C92B28A42F4D35A
:100710003878002804D10549086880221043086011
:10072000F0BD0000CC00002000100240004400405A
:1007300000E100E06802002049484849C16000210A
:10074000C160484A026101614269474B1A434261F4
:100750000520C0060922D206106044480160444AC0
:100760001160444B19601168434B19431160916942
:100770000423194391610168404A11430160816972
:100780008161704710B53A48816904221143816143
:10079000016803229206914301600168C20311437C
:1007A00001608169820411438161A020FFF73AFF53
:1007B0002E4CA06910210843A061A020FFF732FF52
:1007C000A06908210843A061A06920210843A06115
:1007D00010BD10B5224A0120106050682849084019
:1007E00050607D210901084613689B0702D4401E12
:1007F000431CF9D10020D062106801231B04184368
:1008000010601068800302D4491E481CF9D11D48AD
:1008100001681024214301605068506050685060A6
:1008200050687F21C9038843506050681843506066
:10083000106821050843106010688001FCD55068DD
:100840008008800050605068022108435060506862
:100850000007800F0228FAD110BD0000015A0700DE
:10086000001002401349620001001E00000400480D
:1008700000080048000C004810000004401500105B
:100880000CB8FFF80020024070477047704775466B
:1008900000F024F8AE46050069465346C008C00083
:1008A000854618B020B5FFF767FC60BC00274908F3
:1008B000B6460026C0C5C0C5C0C5C0C5C0C5C0C5F8
:1008C000C0C5C0C5403D49008D46704710B50446BF
:1008D000C046C0462046FFF73EFC10BD00487047AA
:1008E0006804002001491820ABBEFEE72600020084
:1008F0007047000014090008C00000201800000024
:10090000040100082C090008D8000020F0090000AC
:1009100020010008000000000000000000000000AE
:0C092000000000000000000000000000CB
:04000005080000C12E
:00000001FF
